{
  "contractName": "Decentracraft",
  "abi": [
    {
      "inputs": [],
      "payable": true,
      "stateMutability": "payable",
      "type": "constructor"
    },
    {
      "anonymous": false,
      "inputs": [
        {
          "indexed": true,
          "internalType": "address",
          "name": "_owner",
          "type": "address"
        },
        {
          "indexed": true,
          "internalType": "address",
          "name": "_operator",
          "type": "address"
        },
        {
          "indexed": false,
          "internalType": "bool",
          "name": "_approved",
          "type": "bool"
        }
      ],
      "name": "ApprovalForAll",
      "type": "event"
    },
    {
      "anonymous": false,
      "inputs": [
        {
          "indexed": false,
          "internalType": "uint256",
          "name": "_id",
          "type": "uint256"
        }
      ],
      "name": "IDCreated",
      "type": "event"
    },
    {
      "anonymous": false,
      "inputs": [
        {
          "indexed": false,
          "internalType": "address",
          "name": "bouncer",
          "type": "address"
        },
        {
          "indexed": false,
          "internalType": "bool",
          "name": "enabled",
          "type": "bool"
        }
      ],
      "name": "Minter",
      "type": "event"
    },
    {
      "anonymous": false,
      "inputs": [
        {
          "indexed": true,
          "internalType": "address",
          "name": "_operator",
          "type": "address"
        },
        {
          "indexed": true,
          "internalType": "address",
          "name": "_from",
          "type": "address"
        },
        {
          "indexed": true,
          "internalType": "address",
          "name": "_to",
          "type": "address"
        },
        {
          "indexed": false,
          "internalType": "uint256[]",
          "name": "_ids",
          "type": "uint256[]"
        },
        {
          "indexed": false,
          "internalType": "uint256[]",
          "name": "_values",
          "type": "uint256[]"
        }
      ],
      "name": "TransferBatch",
      "type": "event"
    },
    {
      "anonymous": false,
      "inputs": [
        {
          "indexed": true,
          "internalType": "address",
          "name": "_operator",
          "type": "address"
        },
        {
          "indexed": true,
          "internalType": "address",
          "name": "_from",
          "type": "address"
        },
        {
          "indexed": true,
          "internalType": "address",
          "name": "_to",
          "type": "address"
        },
        {
          "indexed": false,
          "internalType": "uint256",
          "name": "_id",
          "type": "uint256"
        },
        {
          "indexed": false,
          "internalType": "uint256",
          "name": "_value",
          "type": "uint256"
        }
      ],
      "name": "TransferSingle",
      "type": "event"
    },
    {
      "anonymous": false,
      "inputs": [
        {
          "indexed": false,
          "internalType": "string",
          "name": "_value",
          "type": "string"
        },
        {
          "indexed": true,
          "internalType": "uint256",
          "name": "_id",
          "type": "uint256"
        }
      ],
      "name": "URI",
      "type": "event"
    },
    {
      "payable": true,
      "stateMutability": "payable",
      "type": "fallback"
    },
    {
      "constant": true,
      "inputs": [
        {
          "internalType": "address",
          "name": "_owner",
          "type": "address"
        },
        {
          "internalType": "uint256",
          "name": "_id",
          "type": "uint256"
        }
      ],
      "name": "balanceOf",
      "outputs": [
        {
          "internalType": "uint256",
          "name": "",
          "type": "uint256"
        }
      ],
      "payable": false,
      "stateMutability": "view",
      "type": "function"
    },
    {
      "constant": true,
      "inputs": [
        {
          "internalType": "address[]",
          "name": "_owners",
          "type": "address[]"
        },
        {
          "internalType": "uint256[]",
          "name": "_ids",
          "type": "uint256[]"
        }
      ],
      "name": "balanceOfBatch",
      "outputs": [
        {
          "internalType": "uint256[]",
          "name": "",
          "type": "uint256[]"
        }
      ],
      "payable": false,
      "stateMutability": "view",
      "type": "function"
    },
    {
      "constant": false,
      "inputs": [
        {
          "internalType": "address",
          "name": "account",
          "type": "address"
        },
        {
          "internalType": "uint256",
          "name": "id",
          "type": "uint256"
        },
        {
          "internalType": "uint256",
          "name": "amount",
          "type": "uint256"
        }
      ],
      "name": "burn",
      "outputs": [],
      "payable": false,
      "stateMutability": "nonpayable",
      "type": "function"
    },
    {
      "constant": false,
      "inputs": [
        {
          "internalType": "address",
          "name": "account",
          "type": "address"
        },
        {
          "internalType": "uint256[]",
          "name": "ids",
          "type": "uint256[]"
        },
        {
          "internalType": "uint256[]",
          "name": "amounts",
          "type": "uint256[]"
        }
      ],
      "name": "burnBatch",
      "outputs": [],
      "payable": false,
      "stateMutability": "nonpayable",
      "type": "function"
    },
    {
      "constant": true,
      "inputs": [],
      "name": "contracturi",
      "outputs": [
        {
          "internalType": "string",
          "name": "",
          "type": "string"
        }
      ],
      "payable": false,
      "stateMutability": "view",
      "type": "function"
    },
    {
      "constant": true,
      "inputs": [],
      "name": "getItemIDsLength",
      "outputs": [
        {
          "internalType": "uint256",
          "name": "",
          "type": "uint256"
        }
      ],
      "payable": false,
      "stateMutability": "view",
      "type": "function"
    },
    {
      "constant": true,
      "inputs": [
        {
          "internalType": "uint256",
          "name": "_id",
          "type": "uint256"
        }
      ],
      "name": "getNonFungibleBaseType",
      "outputs": [
        {
          "internalType": "uint256",
          "name": "",
          "type": "uint256"
        }
      ],
      "payable": false,
      "stateMutability": "pure",
      "type": "function"
    },
    {
      "constant": true,
      "inputs": [
        {
          "internalType": "uint256",
          "name": "_id",
          "type": "uint256"
        }
      ],
      "name": "getNonFungibleIndex",
      "outputs": [
        {
          "internalType": "uint256",
          "name": "",
          "type": "uint256"
        }
      ],
      "payable": false,
      "stateMutability": "pure",
      "type": "function"
    },
    {
      "constant": true,
      "inputs": [
        {
          "internalType": "address",
          "name": "_owner",
          "type": "address"
        },
        {
          "internalType": "address",
          "name": "_operator",
          "type": "address"
        }
      ],
      "name": "isApprovedForAll",
      "outputs": [
        {
          "internalType": "bool",
          "name": "",
          "type": "bool"
        }
      ],
      "payable": false,
      "stateMutability": "view",
      "type": "function"
    },
    {
      "constant": true,
      "inputs": [
        {
          "internalType": "uint256",
          "name": "_id",
          "type": "uint256"
        }
      ],
      "name": "isFungible",
      "outputs": [
        {
          "internalType": "bool",
          "name": "",
          "type": "bool"
        }
      ],
      "payable": false,
      "stateMutability": "pure",
      "type": "function"
    },
    {
      "constant": true,
      "inputs": [
        {
          "internalType": "uint256",
          "name": "_id",
          "type": "uint256"
        }
      ],
      "name": "isNonFungible",
      "outputs": [
        {
          "internalType": "bool",
          "name": "",
          "type": "bool"
        }
      ],
      "payable": false,
      "stateMutability": "pure",
      "type": "function"
    },
    {
      "constant": true,
      "inputs": [
        {
          "internalType": "uint256",
          "name": "_id",
          "type": "uint256"
        }
      ],
      "name": "isNonFungibleBaseType",
      "outputs": [
        {
          "internalType": "bool",
          "name": "",
          "type": "bool"
        }
      ],
      "payable": false,
      "stateMutability": "pure",
      "type": "function"
    },
    {
      "constant": true,
      "inputs": [
        {
          "internalType": "uint256",
          "name": "_id",
          "type": "uint256"
        }
      ],
      "name": "isNonFungibleItem",
      "outputs": [
        {
          "internalType": "bool",
          "name": "",
          "type": "bool"
        }
      ],
      "payable": false,
      "stateMutability": "pure",
      "type": "function"
    },
    {
      "constant": true,
      "inputs": [
        {
          "internalType": "uint256",
          "name": "",
          "type": "uint256"
        }
      ],
      "name": "itemIDs",
      "outputs": [
        {
          "internalType": "uint256",
          "name": "",
          "type": "uint256"
        }
      ],
      "payable": false,
      "stateMutability": "view",
      "type": "function"
    },
    {
      "constant": true,
      "inputs": [
        {
          "internalType": "uint256",
          "name": "",
          "type": "uint256"
        }
      ],
      "name": "maxIndex",
      "outputs": [
        {
          "internalType": "uint256",
          "name": "",
          "type": "uint256"
        }
      ],
      "payable": false,
      "stateMutability": "view",
      "type": "function"
    },
    {
      "constant": true,
      "inputs": [],
      "name": "name",
      "outputs": [
        {
          "internalType": "string",
          "name": "",
          "type": "string"
        }
      ],
      "payable": false,
      "stateMutability": "view",
      "type": "function"
    },
    {
      "constant": true,
      "inputs": [
        {
          "internalType": "uint256",
          "name": "",
          "type": "uint256"
        }
      ],
      "name": "nfOwners",
      "outputs": [
        {
          "internalType": "address",
          "name": "",
          "type": "address"
        }
      ],
      "payable": false,
      "stateMutability": "view",
      "type": "function"
    },
    {
      "constant": true,
      "inputs": [],
      "name": "owner",
      "outputs": [
        {
          "internalType": "address",
          "name": "",
          "type": "address"
        }
      ],
      "payable": false,
      "stateMutability": "view",
      "type": "function"
    },
    {
      "constant": true,
      "inputs": [
        {
          "internalType": "uint256",
          "name": "_id",
          "type": "uint256"
        }
      ],
      "name": "ownerOf",
      "outputs": [
        {
          "internalType": "address",
          "name": "",
          "type": "address"
        }
      ],
      "payable": false,
      "stateMutability": "view",
      "type": "function"
    },
    {
      "constant": false,
      "inputs": [
        {
          "internalType": "address",
          "name": "_from",
          "type": "address"
        },
        {
          "internalType": "address",
          "name": "_to",
          "type": "address"
        },
        {
          "internalType": "uint256[]",
          "name": "_ids",
          "type": "uint256[]"
        },
        {
          "internalType": "uint256[]",
          "name": "_values",
          "type": "uint256[]"
        },
        {
          "internalType": "bytes",
          "name": "_data",
          "type": "bytes"
        }
      ],
      "name": "safeBatchTransferFrom",
      "outputs": [],
      "payable": false,
      "stateMutability": "nonpayable",
      "type": "function"
    },
    {
      "constant": false,
      "inputs": [
        {
          "internalType": "address",
          "name": "_from",
          "type": "address"
        },
        {
          "internalType": "address",
          "name": "_to",
          "type": "address"
        },
        {
          "internalType": "uint256",
          "name": "_id",
          "type": "uint256"
        },
        {
          "internalType": "uint256",
          "name": "_value",
          "type": "uint256"
        },
        {
          "internalType": "bytes",
          "name": "_data",
          "type": "bytes"
        }
      ],
      "name": "safeTransferFrom",
      "outputs": [],
      "payable": false,
      "stateMutability": "nonpayable",
      "type": "function"
    },
    {
      "constant": false,
      "inputs": [
        {
          "internalType": "address",
          "name": "_operator",
          "type": "address"
        },
        {
          "internalType": "bool",
          "name": "_approved",
          "type": "bool"
        }
      ],
      "name": "setApprovalForAll",
      "outputs": [],
      "payable": false,
      "stateMutability": "nonpayable",
      "type": "function"
    },
    {
      "constant": false,
      "inputs": [
        {
          "internalType": "address",
          "name": "_owner",
          "type": "address"
        }
      ],
      "name": "setOwner",
      "outputs": [],
      "payable": false,
      "stateMutability": "nonpayable",
      "type": "function"
    },
    {
      "constant": true,
      "inputs": [
        {
          "internalType": "bytes4",
          "name": "_interfaceId",
          "type": "bytes4"
        }
      ],
      "name": "supportsInterface",
      "outputs": [
        {
          "internalType": "bool",
          "name": "",
          "type": "bool"
        }
      ],
      "payable": false,
      "stateMutability": "view",
      "type": "function"
    },
    {
      "constant": true,
      "inputs": [],
      "name": "symbol",
      "outputs": [
        {
          "internalType": "string",
          "name": "",
          "type": "string"
        }
      ],
      "payable": false,
      "stateMutability": "view",
      "type": "function"
    },
    {
      "constant": true,
      "inputs": [],
      "name": "tokenbaseuri",
      "outputs": [
        {
          "internalType": "string",
          "name": "",
          "type": "string"
        }
      ],
      "payable": false,
      "stateMutability": "view",
      "type": "function"
    },
    {
      "constant": true,
      "inputs": [
        {
          "internalType": "uint256",
          "name": "",
          "type": "uint256"
        }
      ],
      "name": "uriMap",
      "outputs": [
        {
          "internalType": "string",
          "name": "",
          "type": "string"
        }
      ],
      "payable": false,
      "stateMutability": "view",
      "type": "function"
    },
    {
      "constant": false,
      "inputs": [
        {
          "internalType": "string",
          "name": "_contracturi",
          "type": "string"
        }
      ],
      "name": "setContractURI",
      "outputs": [],
      "payable": false,
      "stateMutability": "nonpayable",
      "type": "function"
    },
    {
      "constant": false,
      "inputs": [
        {
          "internalType": "string",
          "name": "_tokenbaseuri",
          "type": "string"
        }
      ],
      "name": "setTokenBaseURI",
      "outputs": [],
      "payable": false,
      "stateMutability": "nonpayable",
      "type": "function"
    },
    {
      "constant": true,
      "inputs": [],
      "name": "contractURI",
      "outputs": [
        {
          "internalType": "string",
          "name": "",
          "type": "string"
        }
      ],
      "payable": false,
      "stateMutability": "view",
      "type": "function"
    },
    {
      "constant": false,
      "inputs": [
        {
          "internalType": "address",
          "name": "minter",
          "type": "address"
        },
        {
          "internalType": "bool",
          "name": "enabled",
          "type": "bool"
        }
      ],
      "name": "setMinter",
      "outputs": [],
      "payable": false,
      "stateMutability": "nonpayable",
      "type": "function"
    },
    {
      "constant": true,
      "inputs": [
        {
          "internalType": "address",
          "name": "who",
          "type": "address"
        }
      ],
      "name": "isMinter",
      "outputs": [
        {
          "internalType": "bool",
          "name": "",
          "type": "bool"
        }
      ],
      "payable": false,
      "stateMutability": "view",
      "type": "function"
    },
    {
      "constant": false,
      "inputs": [],
      "name": "withdraw",
      "outputs": [],
      "payable": false,
      "stateMutability": "nonpayable",
      "type": "function"
    },
    {
      "constant": true,
      "inputs": [
        {
          "internalType": "uint256",
          "name": "_id",
          "type": "uint256"
        }
      ],
      "name": "uri",
      "outputs": [
        {
          "internalType": "string",
          "name": "",
          "type": "string"
        }
      ],
      "payable": false,
      "stateMutability": "view",
      "type": "function"
    },
    {
      "constant": false,
      "inputs": [
        {
          "internalType": "string",
          "name": "_uri",
          "type": "string"
        },
        {
          "internalType": "bool",
          "name": "_isNF",
          "type": "bool"
        }
      ],
      "name": "create",
      "outputs": [
        {
          "internalType": "uint256",
          "name": "_type",
          "type": "uint256"
        }
      ],
      "payable": false,
      "stateMutability": "nonpayable",
      "type": "function"
    },
    {
      "constant": false,
      "inputs": [
        {
          "internalType": "uint256",
          "name": "_type",
          "type": "uint256"
        },
        {
          "internalType": "address[]",
          "name": "_to",
          "type": "address[]"
        },
        {
          "internalType": "string",
          "name": "_uri",
          "type": "string"
        },
        {
          "internalType": "string",
          "name": "_attributesJSON",
          "type": "string"
        }
      ],
      "name": "mintNonFungible",
      "outputs": [
        {
          "internalType": "uint256",
          "name": "_id",
          "type": "uint256"
        }
      ],
      "payable": true,
      "stateMutability": "payable",
      "type": "function"
    },
    {
      "constant": false,
      "inputs": [
        {
          "internalType": "uint256",
          "name": "_id",
          "type": "uint256"
        },
        {
          "internalType": "address[]",
          "name": "_to",
          "type": "address[]"
        },
        {
          "internalType": "uint256[]",
          "name": "_quantities",
          "type": "uint256[]"
        }
      ],
      "name": "mintFungible",
      "outputs": [],
      "payable": false,
      "stateMutability": "nonpayable",
      "type": "function"
    },
    {
      "constant": false,
      "inputs": [
        {
          "internalType": "uint256",
          "name": "_id",
          "type": "uint256"
        },
        {
          "internalType": "string",
          "name": "_jsonHash",
          "type": "string"
        }
      ],
      "name": "setDCIJSONHash",
      "outputs": [],
      "payable": false,
      "stateMutability": "nonpayable",
      "type": "function"
    }
  ],
  "bytecode": "0x6080604052600080546001600160a01b031916331790556133ec806100256000396000f3fe6080604052600436106102245760003560e01c8063938e3d7b11610123578063b59230c5116100ab578063e44591f01161006f578063e44591f014610fcc578063e8a3d48514610ff6578063e985e9c51461100b578063f242432a14611046578063f5298aca146110e657610224565b8063b59230c514610c4a578063cbd7495814610d02578063cc10e40114610eb4578063cf456ae714610f67578063dd2eb9f314610fa257610224565b80639cca1c64116100f25780639cca1c6414610b5e578063a22cb46514610b88578063a836f30714610bc3578063aa271e1a14610bed578063adebf6f214610c2057610224565b8063938e3d7b14610a5957806395d817bc14610b0a57806395d89b4114610b3457806399419e7e14610b4957610224565b80634e1273f4116101b15780636f969c2d116101755780636f969c2d146108085780637269a3271461083257806378b272211461085c5780638da5cb5b146109935780638ef79e91146109a857610224565b80634e1273f41461052857806353457129146106435780635e81b958146106585780636352211e146106825780636b20c454146106c857610224565b80630e89341c116101f85780630e89341c1461036d57806313af40351461039757806321185fdf146103ca5780632eb2c2d6146103df5780633ccfd60b1461051357610224565b8062fdd58e1461022657806301ffc9a71461027157806306fdde03146102b957806308d7d46914610343575b005b34801561023257600080fd5b5061025f6004803603604081101561024957600080fd5b506001600160a01b038135169060200135611125565b60408051918252519081900360200190f35b34801561027d57600080fd5b506102a56004803603602081101561029457600080fd5b50356001600160e01b031916611195565b604080519115158252519081900360200190f35b3480156102c557600080fd5b506102ce6111dc565b6040805160208082528351818301528351919283929083019185019080838360005b838110156103085781810151838201526020016102f0565b50505050905090810190601f1680156103355780820380516001836020036101000a031916815260200191505b509250505060405180910390f35b34801561034f57600080fd5b5061025f6004803603602081101561036657600080fd5b503561126a565b34801561037957600080fd5b506102ce6004803603602081101561039057600080fd5b503561127c565b3480156103a357600080fd5b50610224600480360360208110156103ba57600080fd5b50356001600160a01b0316611365565b3480156103d657600080fd5b5061025f611397565b3480156103eb57600080fd5b50610224600480360360a081101561040257600080fd5b6001600160a01b038235811692602081013590911691810190606081016040820135600160201b81111561043557600080fd5b82018360208201111561044757600080fd5b803590602001918460208302840111600160201b8311171561046857600080fd5b919390929091602081019035600160201b81111561048557600080fd5b82018360208201111561049757600080fd5b803590602001918460208302840111600160201b831117156104b857600080fd5b919390929091602081019035600160201b8111156104d557600080fd5b8201836020820111156104e757600080fd5b803590602001918460018302840111600160201b8311171561050857600080fd5b50909250905061139e565b34801561051f57600080fd5b506102246117bb565b34801561053457600080fd5b506105f36004803603604081101561054b57600080fd5b810190602081018135600160201b81111561056557600080fd5b82018360208201111561057757600080fd5b803590602001918460208302840111600160201b8311171561059857600080fd5b919390929091602081019035600160201b8111156105b557600080fd5b8201836020820111156105c757600080fd5b803590602001918460208302840111600160201b831117156105e857600080fd5b5090925090506117fc565b60408051602080825283518183015283519192839290830191858101910280838360005b8381101561062f578181015183820152602001610617565b505050509050019250505060405180910390f35b34801561064f57600080fd5b506102ce611949565b34801561066457600080fd5b506102a56004803603602081101561067b57600080fd5b50356119a4565b34801561068e57600080fd5b506106ac600480360360208110156106a557600080fd5b50356119c5565b604080516001600160a01b039092168252519081900360200190f35b3480156106d457600080fd5b50610224600480360360608110156106eb57600080fd5b6001600160a01b038235169190810190604081016020820135600160201b81111561071557600080fd5b82018360208201111561072757600080fd5b803590602001918460208302840111600160201b8311171561074857600080fd5b9190808060200260200160405190810160405280939291908181526020018383602002808284376000920191909152509295949360208101935035915050600160201b81111561079757600080fd5b8201836020820111156107a957600080fd5b803590602001918460208302840111600160201b831117156107ca57600080fd5b9190808060200260200160405190810160405280939291908181526020018383602002808284376000920191909152509295506119e0945050505050565b34801561081457600080fd5b5061025f6004803603602081101561082b57600080fd5b5035611a5c565b34801561083e57600080fd5b506102a56004803603602081101561085557600080fd5b5035611a72565b34801561086857600080fd5b506102246004803603606081101561087f57600080fd5b81359190810190604081016020820135600160201b8111156108a057600080fd5b8201836020820111156108b257600080fd5b803590602001918460208302840111600160201b831117156108d357600080fd5b9190808060200260200160405190810160405280939291908181526020018383602002808284376000920191909152509295949360208101935035915050600160201b81111561092257600080fd5b82018360208201111561093457600080fd5b803590602001918460208302840111600160201b8311171561095557600080fd5b919080806020026020016040519081016040528093929190818152602001838360200280828437600092019190915250929550611a92945050505050565b34801561099f57600080fd5b506106ac611be5565b3480156109b457600080fd5b50610224600480360360208110156109cb57600080fd5b810190602081018135600160201b8111156109e557600080fd5b8201836020820111156109f757600080fd5b803590602001918460018302840111600160201b83111715610a1857600080fd5b91908080601f016020809104026020016040519081016040528093929190818152602001838380828437600092019190915250929550611bf4945050505050565b348015610a6557600080fd5b5061022460048036036020811015610a7c57600080fd5b810190602081018135600160201b811115610a9657600080fd5b820183602082011115610aa857600080fd5b803590602001918460018302840111600160201b83111715610ac957600080fd5b91908080601f016020809104026020016040519081016040528093929190818152602001838380828437600092019190915250929550611c1e945050505050565b348015610b1657600080fd5b506106ac60048036036020811015610b2d57600080fd5b5035611c44565b348015610b4057600080fd5b506102ce611c5f565b348015610b5557600080fd5b506102ce611cba565b348015610b6a57600080fd5b5061025f60048036036020811015610b8157600080fd5b5035611d15565b348015610b9457600080fd5b5061022460048036036040811015610bab57600080fd5b506001600160a01b0381351690602001351515611d21565b348015610bcf57600080fd5b5061025f60048036036020811015610be657600080fd5b5035611d8f565b348015610bf957600080fd5b506102a560048036036020811015610c1057600080fd5b50356001600160a01b0316611dad565b348015610c2c57600080fd5b506102a560048036036020811015610c4357600080fd5b5035611dcb565b348015610c5657600080fd5b5061022460048036036040811015610c6d57600080fd5b81359190810190604081016020820135600160201b811115610c8e57600080fd5b820183602082011115610ca057600080fd5b803590602001918460018302840111600160201b83111715610cc157600080fd5b91908080601f016020809104026020016040519081016040528093929190818152602001838380828437600092019190915250929550611c1a945050505050565b61025f60048036036080811015610d1857600080fd5b81359190810190604081016020820135600160201b811115610d3957600080fd5b820183602082011115610d4b57600080fd5b803590602001918460208302840111600160201b83111715610d6c57600080fd5b9190808060200260200160405190810160405280939291908181526020018383602002808284376000920191909152509295949360208101935035915050600160201b811115610dbb57600080fd5b820183602082011115610dcd57600080fd5b803590602001918460018302840111600160201b83111715610dee57600080fd5b91908080601f0160208091040260200160405190810160405280939291908181526020018383808284376000920191909152509295949360208101935035915050600160201b811115610e4057600080fd5b820183602082011115610e5257600080fd5b803590602001918460018302840111600160201b83111715610e7357600080fd5b91908080601f016020809104026020016040519081016040528093929190818152602001838380828437600092019190915250929550611dd5945050505050565b348015610ec057600080fd5b5061025f60048036036040811015610ed757600080fd5b810190602081018135600160201b811115610ef157600080fd5b820183602082011115610f0357600080fd5b803590602001918460018302840111600160201b83111715610f2457600080fd5b91908080601f016020809104026020016040519081016040528093929190818152602001838380828437600092019190915250929550505050351515905061211a565b348015610f7357600080fd5b5061022460048036036040811015610f8a57600080fd5b506001600160a01b038135169060200135151561237c565b348015610fae57600080fd5b506102ce60048036036020811015610fc557600080fd5b50356123f3565b348015610fd857600080fd5b506102a560048036036020811015610fef57600080fd5b503561245b565b34801561100257600080fd5b506102ce612467565b34801561101757600080fd5b506102a56004803603604081101561102e57600080fd5b506001600160a01b03813581169160200135166124fd565b34801561105257600080fd5b50610224600480360360a081101561106957600080fd5b6001600160a01b03823581169260208101359091169160408201359160608101359181019060a081016080820135600160201b8111156110a857600080fd5b8201836020820111156110ba57600080fd5b803590602001918460018302840111600160201b831117156110db57600080fd5b50909250905061252b565b3480156110f257600080fd5b506102246004803603606081101561110957600080fd5b506001600160a01b03813516906020810135906040013561279c565b6000611130826119a4565b1561116a576000828152600560205260409020546001600160a01b0384811691161461115d576000611160565b60015b60ff16905061118f565b5060008181526001602090815260408083206001600160a01b03861684529091529020545b92915050565b60006001600160e01b031982166301ffc9a760e01b14806111c657506001600160e01b03198216636cdb3d1360e11b145b156111d3575060016111d7565b5060005b919050565b6006805460408051602060026001851615610100026000190190941693909304601f810184900484028201840190925281815292918301828280156112625780601f1061123757610100808354040283529160200191611262565b820191906000526020600020905b81548152906001019060200180831161124557829003601f168201915b505050505081565b600d6020526000908152604090205481565b60606009600a600084815260200190815260200160002060405160200180838054600181600116156101000203166002900480156112f15780601f106112cf5761010080835404028352918201916112f1565b820191906000526020600020905b8154815290600101906020018083116112dd575b50508280546001816001161561010002031660029004801561134a5780601f1061132857610100808354040283529182019161134a565b820191906000526020600020905b815481529060010190602001808311611336575b505060408051601f1981840301815291905295945050505050565b6000546001600160a01b031633141561139457600080546001600160a01b0319166001600160a01b0383161790555b50565b6003545b90565b6001600160a01b0387166113f9576040805162461bcd60e51b815260206004820152601b60248201527f63616e6e6f742073656e6420746f207a65726f20616464726573730000000000604482015290519081900360640190fd5b84831461144d576040805162461bcd60e51b815260206004820152601760248201527f4172726179206c656e677468206d757374206d61746368000000000000000000604482015290519081900360640190fd5b6001600160a01b03881633148061148c57506001600160a01b038816600090815260026020908152604080832033845290915290205460ff1615156001145b6114c75760405162461bcd60e51b815260040180806020018281038252602f8152602001806132c7602f913960400191505060405180910390fd5b60005b858110156116445760008787838181106114e057fe5b90506020020135905060008686848181106114f757fe5b9050602002013590506115098261245b565b15611560576000828152600560205260409020546001600160a01b038c811691161461153457600080fd5b600082815260056020526040902080546001600160a01b0319166001600160a01b038c1617905561163a565b60008281526001602090815260408083206001600160a01b038f168452909152902054611593908263ffffffff61281316565b6001600084815260200190815260200160002060008d6001600160a01b03166001600160a01b03168152602001908152602001600020819055506116166001600084815260200190815260200160002060008c6001600160a01b03166001600160a01b03168152602001908152602001600020548261282590919063ffffffff16565b60008381526001602090815260408083206001600160a01b038f1684529091529020555b50506001016114ca565b50866001600160a01b0316886001600160a01b0316336001600160a01b03167f4a39dc06d4c0dbc64b70af90fd698a233a518aa5d07e595d983b8c0526c8f7fb898989896040518080602001806020018381038352878782818152602001925060200280828437600083820152601f01601f19169091018481038352858152602090810191508690860280828437600083820152604051601f909101601f19169092018290039850909650505050505050a4611708876001600160a01b0316612832565b156117b1576117b133898989898080602002602001604051908101604052809392919081815260200183836020028082843760009201919091525050604080516020808d0282810182019093528c82529093508c92508b91829185019084908082843760009201919091525050604080516020601f8c018190048102820181019092528a815292508a915089908190840183828082843760009201919091525061283892505050565b5050505050505050565b6000546001600160a01b03163314156117fa5760405133904780156108fc02916000818181858888f19350505050158015611394573d6000803e3d6000fd5b565b606083821461180a57600080fd5b604080518581526020808702820101909152606090858015611836578160200160208202803883390190505b50905060005b8581101561193d57600085858381811061185257fe5b905060200201359050611864816119a4565b156118cf5787878381811061187557fe5b600084815260056020908152604090912054910292909201356001600160a01b0390811692169190911490506118ac5760006118af565b60015b60ff168383815181106118be57fe5b602002602001018181525050611934565b6000818152600160205260408120908989858181106118ea57fe5b905060200201356001600160a01b03166001600160a01b03166001600160a01b031681526020019081526020016000205483838151811061192757fe5b6020026020010181815250505b5060010161183c565b5090505b949350505050565b6009805460408051602060026001851615610100026000190190941693909304601f810184900484028201840190925281815292918301828280156112625780601f1061123757610100808354040283529160200191611262565b6000600160ff1b80831614801561118f5750506001600160801b0316151590565b6000908152600560205260409020546001600160a01b031690565b6001600160a01b0383163314806119fc57506119fc83336124fd565b80611a1157506000546001600160a01b031633145b611a4c5760405162461bcd60e51b815260040180806020018281038252602981526020018061325b6029913960400191505060405180910390fd5b611a57838383612a24565b505050565b6fffffffffffffffffffffffffffffffff191690565b6000600160ff1b80831614801561118f5750506001600160801b03161590565b6000546001600160a01b0316331480611abf5750336000908152600b602052604090205460ff1615156001145b15611a5757611acd83611dcb565b611ad657600080fd5b611adf83612cc3565b60005b8251811015611bdf576000838281518110611af957fe5b602002602001015190506000838381518110611b1157fe5b60209081029190910181015160008881526001835260408082206001600160a01b03871683529093529190912054909150611b5390829063ffffffff61282516565b60008781526001602090815260408083206001600160a01b0387168085529083528184209490945580518a81529182018590528051339260008051602061321783398151915292908290030190a4611bb3826001600160a01b0316612832565b15611bd557611bd5333384898560405180602001604052806000815250612d26565b5050600101611ae2565b50505050565b6000546001600160a01b031681565b6000546001600160a01b0316331415611394578051611c1a90600990602084019061317e565b5050565b6000546001600160a01b0316331415611394578051611c1a90600890602084019061317e565b6005602052600090815260409020546001600160a01b031681565b6007805460408051602060026001851615610100026000190190941693909304601f810184900484028201840190925281815292918301828280156112625780601f1061123757610100808354040283529160200191611262565b6008805460408051602060026001851615610100026000190190941693909304601f810184900484028201840190925281815292918301828280156112625780601f1061123757610100808354040283529160200191611262565b6001600160801b031690565b3360008181526002602090815260408083206001600160a01b03871680855290835292819020805460ff1916861515908117909155815190815290519293927f17307eab39ab6107e8899845ad3d59bd9653f200f220920489ca2b5937696c31929181900390910190a35050565b60038181548110611d9c57fe5b600091825260209091200154905081565b6001600160a01b03166000908152600b602052604090205460ff1690565b600160ff1b161590565b600080546001600160a01b0316331480611e035750336000908152600b602052604090205460ff1615156001145b1561194157611e118561245b565b611e1a57600080fd5b6000858152600d602052604090205484516001820191611e40919063ffffffff61282516565b6000878152600d60205260408120919091555b8551811015612110576000868281518110611e6a57fe5b6020026020010151905081830188179350806001600160a01b031660006001600160a01b0316336001600160a01b0316600080516020613217833981519152876001604051808381526020018281526020019250505060405180910390a4611ed184612cc3565b600084815260056020526040902080546001600160a01b0319166001600160a01b0383161790558551612029576060611f0985612e96565b6040516020018082805190602001908083835b60208310611f3b5780518252601f199092019160209182019101611f1c565b51815160209384036101000a600019018019909216911617905264173539b7b760d91b9190930190815260408051808303601a190181526005909201815260008b8152600a8552208151919650611f9a9550935091850191905061317e565b5084600080516020613284833981519152826040518080602001828103825283818151815260200191508051906020019080838360005b83811015611fe9578181015183820152602001611fd1565b50505050905090810190601f1680156120165780820380516001836020036101000a031916815260200191505b509250505060405180910390a2506120d2565b6000888152600a6020908152604090912087516120489289019061317e565b5083600080516020613284833981519152876040518080602001828103825283818151815260200191508051906020019080838360005b8381101561209757818101518382015260200161207f565b50505050905090810190601f1680156120c45780820380516001836020036101000a031916815260200191505b509250505060405180910390a25b6120e4816001600160a01b0316612832565b156121075761210733338387600160405180602001604052806000815250612d26565b50600101611e53565b5050949350505050565b600080546001600160a01b03163314806121485750336000908152600b602052604090205460ff1615156001145b1561118f5750600c80546001019081905560801b811561216957600160ff1b175b825161229a57606061217a82612e96565b6040516020018082805190602001908083835b602083106121ac5780518252601f19909201916020918201910161218d565b51815160209384036101000a600019018019909216911617905264173539b7b760d91b9190930190815260408051808303601a19018152600590920181526000888152600a855220815191965061220b9550935091850191905061317e565b5081600080516020613284833981519152826040518080602001828103825283818151815260200191508051906020019080838360005b8381101561225a578181015183820152602001612242565b50505050905090810190601f1680156122875780820380516001836020036101000a031916815260200191505b509250505060405180910390a250612343565b6000818152600a6020908152604090912084516122b99286019061317e565b5080600080516020613284833981519152846040518080602001828103825283818151815260200191508051906020019080838360005b838110156123085781810151838201526020016122f0565b50505050905090810190601f1680156123355780820380516001836020036101000a031916815260200191505b509250505060405180910390a25b6040805182815290517fb4e2b98c0733b4b9e2236bda1094d1e612189ffd14a07695e03fea76565d1de29181900360200190a192915050565b6000546001600160a01b0316331415611c1a576001600160a01b0382166000818152600b6020908152604091829020805460ff191685151590811790915582519384529083015280517fff452b3b9159b024a9098f0058c63eccd90d36b3584608202800d662f962bb609281900390910190a15050565b600a6020908152600091825260409182902080548351601f6002600019610100600186161502019093169290920491820184900484028101840190945280845290918301828280156112625780601f1061123757610100808354040283529160200191611262565b600160ff1b9081161490565b60088054604080516020601f60026000196101006001881615020190951694909404938401819004810282018101909252828152606093909290918301828280156124f35780601f106124c8576101008083540402835291602001916124f3565b820191906000526020600020905b8154815290600101906020018083116124d657829003601f168201915b5050505050905090565b6001600160a01b03918216600090815260026020908152604080832093909416825291909152205460ff1690565b6001600160a01b038516612586576040805162461bcd60e51b815260206004820152601b60248201527f63616e6e6f742073656e6420746f207a65726f20616464726573730000000000604482015290519081900360640190fd5b6001600160a01b0386163314806125c557506001600160a01b038616600090815260026020908152604080832033845290915290205460ff1615156001145b6126005760405162461bcd60e51b815260040180806020018281038252602f8152602001806132c7602f913960400191505060405180910390fd5b6126098461245b565b15612660576000848152600560205260409020546001600160a01b0387811691161461263457600080fd5b600084815260056020526040902080546001600160a01b0319166001600160a01b0387161790556126ee565b60008481526001602090815260408083206001600160a01b038a168452909152902054612693908463ffffffff61281316565b60008581526001602090815260408083206001600160a01b038b811685529252808320939093558716815220546126ca9084612825565b60008581526001602090815260408083206001600160a01b038a1684529091529020555b846001600160a01b0316866001600160a01b0316336001600160a01b03166000805160206132178339815191528787604051808381526020018281526020019250505060405180910390a461274b856001600160a01b0316612832565b1561279457612794338787878787878080601f016020809104026020016040519081016040528093929190818152602001838380828437600092019190915250612d2692505050565b505050505050565b6001600160a01b0383163314806127b857506127b883336124fd565b806127cd57506000546001600160a01b031633145b6128085760405162461bcd60e51b815260040180806020018281038252602981526020018061325b6029913960400191505060405180910390fd5b611a57838383612f57565b60008282111561281f57fe5b50900390565b8181018281101561118f57fe5b3b151590565b63bc197c8160e01b6001600160e01b031916846001600160a01b031663bc197c8188888787876040518663ffffffff1660e01b815260040180866001600160a01b03166001600160a01b03168152602001856001600160a01b03166001600160a01b03168152602001806020018060200180602001848103845287818151815260200191508051906020019060200280838360005b838110156128e55781810151838201526020016128cd565b50505050905001848103835286818151815260200191508051906020019060200280838360005b8381101561292457818101518382015260200161290c565b50505050905001848103825285818151815260200191508051906020019080838360005b83811015612960578181015183820152602001612948565b50505050905090810190601f16801561298d5780820380516001836020036101000a031916815260200191505b5098505050505050505050602060405180830381600087803b1580156129b257600080fd5b505af11580156129c6573d6000803e3d6000fd5b505050506040513d60208110156129dc57600080fd5b50516001600160e01b031916146127945760405162461bcd60e51b815260040180806020018281038252603e815260200180613319603e913960400191505060405180910390fd5b6001600160a01b038316612a695760405162461bcd60e51b81526004018080602001828103825260238152602001806132f66023913960400191505060405180910390fd5b8051825114612aa95760405162461bcd60e51b81526004018080602001828103825260288152602001806133576028913960400191505060405180910390fd5b3360005b8351811015612be2576000848281518110612ac457fe5b60200260200101519050612ad7816119a4565b15612b55576000818152600560205260409020546001600160a01b03878116911614612b345760405162461bcd60e51b81526004018080602001828103825260238152602001806132a46023913960400191505060405180910390fd5b600081815260056020526040902080546001600160a01b0319169055612bd9565b612bb5848381518110612b6457fe5b60200260200101516040518060600160405280602481526020016132376024913960008481526001602090815260408083206001600160a01b038d168452909152902054919063ffffffff6130e716565b60008281526001602090815260408083206001600160a01b038b1684529091529020555b50600101612aad565b5060006001600160a01b0316846001600160a01b0316826001600160a01b03167f4a39dc06d4c0dbc64b70af90fd698a233a518aa5d07e595d983b8c0526c8f7fb8686604051808060200180602001838103835285818151815260200191508051906020019060200280838360005b83811015612c69578181015183820152602001612c51565b50505050905001838103825284818151815260200191508051906020019060200280838360005b83811015612ca8578181015183820152602001612c90565b5050505090500194505050505060405180910390a450505050565b60008181526004602052604090205460ff16611394576000818152600460205260408120805460ff191660019081179091556003805491820181559091527fc2575a0e9e593c00f959f8c92f12db2869c3395a3b0502d05e2516446f71f85b0155565b63f23a6e6160e01b6001600160e01b031916846001600160a01b031663f23a6e6188888787876040518663ffffffff1660e01b815260040180866001600160a01b03166001600160a01b03168152602001856001600160a01b03166001600160a01b0316815260200184815260200183815260200180602001828103825283818151815260200191508051906020019080838360005b83811015612dd4578181015183820152602001612dbc565b50505050905090810190601f168015612e015780820380516001836020036101000a031916815260200191505b509650505050505050602060405180830381600087803b158015612e2457600080fd5b505af1158015612e38573d6000803e3d6000fd5b505050506040513d6020811015612e4e57600080fd5b50516001600160e01b031916146127945760405162461bcd60e51b815260040180806020018281038252603981526020018061337f6039913960400191505060405180910390fd5b606081612ebb57506040805180820190915260018152600360fc1b60208201526111d7565b8160005b8115612ed357600101600a82049150612ebf565b6060816040519080825280601f01601f191660200182016040528015612f00576020820181803883390190505b50905060001982015b8515612f4e57600a860660300160f81b82828060019003935081518110612f2c57fe5b60200101906001600160f81b031916908160001a905350600a86049550612f09565b50949350505050565b6001600160a01b038316612f9c5760405162461bcd60e51b81526004018080602001828103825260238152602001806132f66023913960400191505060405180910390fd5b33612fa6836119a4565b15613024576000838152600560205260409020546001600160a01b038581169116146130035760405162461bcd60e51b81526004018080602001828103825260238152602001806132a46023913960400191505060405180910390fd5b600083815260056020526040902080546001600160a01b0319169055613095565b613071826040518060600160405280602481526020016132376024913960008681526001602090815260408083206001600160a01b038b168452909152902054919063ffffffff6130e716565b60008481526001602090815260408083206001600160a01b03891684529091529020555b60006001600160a01b0316846001600160a01b0316826001600160a01b03166000805160206132178339815191528686604051808381526020018281526020019250505060405180910390a450505050565b600081848411156131765760405162461bcd60e51b81526004018080602001828103825283818151815260200191508051906020019080838360005b8381101561313b578181015183820152602001613123565b50505050905090810190601f1680156131685780820380516001836020036101000a031916815260200191505b509250505060405180910390fd5b505050900390565b828054600181600116156101000203166002900490600052602060002090601f016020900481019282601f106131bf57805160ff19168380011785556131ec565b828001600101855582156131ec579182015b828111156131ec5782518255916020019190600101906131d1565b506131f89291506131fc565b5090565b61139b91905b808211156131f8576000815560010161320256fec3d58168c5ae7397731d063d5bbf3d657854427343f4c083240f7aacaa2d0f62455243313135353a206275726e20616d6f756e7420657863656564732062616c616e6365455243313135353a2063616c6c6572206973206e6f74206f776e6572206e6f7220617070726f7665646bb7ff708619ba0610cba295a58592e0451dee2622938c8755667688daf3529b4163636f756e74206973206e6f7420746865206f776e6572206f6620746865204e46544e656564206f70657261746f7220617070726f76616c20666f7220337264207061727479207472616e73666572732e455243313135353a206275726e2066726f6d20746865207a65726f2061646472657373636f6e74726163742072657475726e656420616e20756e6b6e6f776e2076616c75652066726f6d206f6e4552433131353542617463685265636569766564455243313135353a2069647320616e6420616d6f756e7473206c656e677468206d69736d61746368636f6e74726163742072657475726e656420616e20756e6b6e6f776e2076616c75652066726f6d206f6e455243313135355265636569766564a265627a7a72315820cc28106f168e6158dbbbf02c2483c5997bba1470ae661d723d0f82b4bd902a4264736f6c634300050f0032",
  "source": "pragma solidity ^0.5.11;\n\n// import \"./DecentracraftItem.sol\";\nimport \"./ERC1155MixedFungible.sol\";\n\n/**\n    @dev Mintable form of ERC1155\n    Shows how easy it is to mint new items\n*/\ncontract Decentracraft is ERC1155MixedFungible  {\n\n    // Contract name\n    string public name;\n    // Contract symbol\n    string public symbol;\n\n    string public contracturi;\n    string public tokenbaseuri;\n\n    mapping (uint256 => string) public uriMap;\n    \n    mapping(address => bool) private _minters; // the contracts allowed to mint\n\n    event IDCreated(uint256 _id);\n    event Minter(address bouncer, bool enabled);\n\n    modifier minterOnly() {\n      if (msg.sender == owner || _minters[msg.sender] == true) _;\n    }\n\n    // DecentracraftItem public decentracraftItem;\n\n    function setContractURI(string memory _contracturi) public ownerOnly {\n        contracturi = _contracturi;\n    }    \n\n    function setTokenBaseURI(string memory _tokenbaseuri) public ownerOnly {\n        tokenbaseuri = _tokenbaseuri;\n    }    \n\n    function contractURI() public view returns (string memory) {\n        return contracturi;\n    }\n    \n    /// @notice Enable or disable the ability of `minter` to mint tokens (minting rights).\n    /// @param minter address that will be given/removed minting rights.\n    /// @param enabled set whether the address is enabled or disabled as a minter.\n    function setMinter(address minter, bool enabled) external ownerOnly {\n        _minters[minter] = enabled;\n        emit Minter(minter, enabled);\n    }\n\n    /// @notice check whether address `who` is given minter rights.\n    /// @param who The address to query.\n    /// @return whether the address has minting rights.\n    function isMinter(address who) external view returns (bool) {\n        return _minters[who];\n    }\n\n    constructor (/* DecentracraftItem _dcItem */) public payable  {        \n        // decentracraftItem = _dcItem;\n    }\n\n    function withdraw() public ownerOnly {\n        // decentracraftItem.withdraw();\n        msg.sender.transfer(address(this).balance);\n    }\n\n    function () external payable {\n    }\n\n    uint256 nonce;\n    // mapping (uint256 => address) public creators;\n    mapping (uint256 => uint256) public maxIndex;\n\n    // modifier creatorOnly(uint256 _id) {\n    //     require(creators[_id] == msg.sender);\n    //     _;\n    // }\n\n    function uri(uint256 _id) external view returns (string memory) {\n        // if(isNonFungible(_id)){\n        //     return uriMap[_id];//decentracraftItem.uri(_id);\n        // }\n        return string(abi.encodePacked(tokenbaseuri, uriMap[_id]));\n    }\n\n    // solium-disable-next-line security/no-assign-params\n    function uint2str(uint256 _i) private pure returns (string memory _uintAsString) {\n        if (_i == 0) {\n            return \"0\";\n        }\n\n        uint256 j = _i;\n        uint256 len;\n        while (j != 0) {\n            len++;\n            j /= 10;\n        }\n\n        bytes memory bstr = new bytes(len);\n        uint256 k = len - 1;\n        while (_i != 0) {\n            bstr[k--] = bytes1(uint8(48 + (_i % 10)));\n            _i /= 10;\n        }\n\n        return string(bstr);\n    }\n\n    // This function only creates the type.\n    function create(string memory _uri, bool   _isNF) public minterOnly returns(uint256 _type) {\n        // Store the type in the upper 128 bits\n        _type = (++nonce << 128);\n\n        // Set a flag if this is an NFI.\n        if (_isNF)\n          _type = _type | TYPE_NF_BIT;\n\n        // This will allow restricted access to creators.\n        // creators[_type] = msg.sender;\n\n        if(bytes(_uri).length == 0){\n            string memory uristr = string(abi.encodePacked(uint2str(_type), \".json\"));\n            uriMap[_type] = uristr;\n            emit URI(uristr, _type);\n        }\n        else{\n            uriMap[_type] = _uri;\n            emit URI(_uri, _type);\n        }\n\n        // emit a Transfer event with Create semantic to help with discovery.\n        // emit TransferSingle(msg.sender, address(0x0), address(0x0), _type, 0);\n        emit IDCreated(_type);\n\n        return _type;\n    }\n    \n    function mintNonFungible(uint256 _type, address[] memory _to, \n                string memory _uri, string memory _attributesJSON) public payable minterOnly returns (uint256 _id)  {\n\n        // No need to check this is a nf type rather than an id since\n        // creatorOnly() will only let a type pass through.\n        require(isNonFungible(_type));\n\n        // Index are 1-based.\n        uint256 index = maxIndex[_type] + 1;\n        maxIndex[_type] = _to.length.add(maxIndex[_type]);\n\n        for (uint256 i = 0; i < _to.length; ++i) {\n            address dst = _to[i];\n            _id  = _type | index + i;\n\n            emit TransferSingle(msg.sender, address(0x0), dst, _id, 1);\n            \n            addID(_id);\n            nfOwners[_id] = dst;\n            \n            if(bytes(_uri).length == 0){\n                string memory uristr = string(abi.encodePacked(uint2str(_id), \".json\"));\n                uriMap[_id] = uristr;\n                emit URI(uristr, _id);\n            }\n            else{\n                uriMap[_type] = _uri;\n                emit URI(_uri, _id);\n            }\n\n            //decentracraftItem.addDCI.value(msg.value)(id, _uri, _attributesJSON);\n\n            // You could use base-type id to store NF type balances if you wish.\n            // balances[_type][dst] = quantity.add(balances[_type][dst]);\n\n            if (dst.isContract()) {\n                _doSafeTransferAcceptanceCheck(msg.sender, msg.sender, dst, _id, 1, '');\n            }\n        }\n    }\n\n    function mintFungible(uint256 _id, address[] memory _to, uint256[] memory _quantities) public minterOnly /* creatorOnly(_id) */ {\n\n        require(isFungible(_id));\n\n        addID(_id);\n        for (uint256 i = 0; i < _to.length; ++i) {\n\n            address to = _to[i];\n            uint256 quantity = _quantities[i];\n\n            // Grant the items to the caller\n            balances[_id][to] = quantity.add(balances[_id][to]);\n\n            // Emit the Transfer/Mint event.\n            // the 0x0 source address implies a mint\n            // It will also provide the circulating supply info.\n            emit TransferSingle(msg.sender, address(0x0), to, _id, quantity);\n\n            if (to.isContract()) {\n                _doSafeTransferAcceptanceCheck(msg.sender, msg.sender, to, _id, quantity, '');\n            }\n        }\n    }    \n\n    //Emergency function to manually add json hash in case it wasn't handled correctly by provable\n    function setDCIJSONHash(uint256 _id, string memory _jsonHash) public ownerOnly{\n        // decentracraftItem.setDCIJSONHash(_id, _jsonHash);\n    }\n}\n",
  "sourcePath": "/mnt/c/Kiko/MyProjects/Blockchain/Decentraland/decentracraft-contracts/contracts/Decentracraft.sol",
  "compiler": {
    "name": "solc",
    "version": "0.5.15+commit.6a57276f.Emscripten.clang"
  },
  "schemaVersion": "3.3.2",
  "updatedAt": "2021-01-22T13:22:51.903Z",
  "devdoc": {
    "details": "Mintable form of ERC1155 Shows how easy it is to mint new items",
    "methods": {
      "isApprovedForAll(address,address)": {
        "params": {
          "_operator": "Address of authorized operator",
          "_owner": "The owner of the Tokens"
        },
        "return": "True if the operator is approved, false if not"
      },
      "isMinter(address)": {
        "params": {
          "who": "The address to query."
        },
        "return": "whether the address has minting rights."
      },
      "setApprovalForAll(address,bool)": {
        "details": "MUST emit the ApprovalForAll event on success.",
        "params": {
          "_approved": "True if the operator is approved, false to revoke approval",
          "_operator": "Address to add to the set of authorized operators"
        }
      },
      "setMinter(address,bool)": {
        "params": {
          "enabled": "set whether the address is enabled or disabled as a minter.",
          "minter": "address that will be given/removed minting rights."
        }
      }
    }
  },
  "userdoc": {
    "methods": {
      "isApprovedForAll(address,address)": {
        "notice": "Queries the approval status of an operator for a given owner."
      },
      "isMinter(address)": {
        "notice": "check whether address `who` is given minter rights."
      },
      "setApprovalForAll(address,bool)": {
        "notice": "Enable or disable approval for a third party (\"operator\") to manage all of the caller's tokens."
      },
      "setMinter(address,bool)": {
        "notice": "Enable or disable the ability of `minter` to mint tokens (minting rights)."
      }
    }
  }
}