{
  "contractName": "DecentracraftWorld",
  "abi": [
    {
      "inputs": [],
      "payable": true,
      "stateMutability": "payable",
      "type": "constructor"
    },
    {
      "anonymous": false,
      "inputs": [
        {
          "indexed": false,
          "internalType": "string",
          "name": "message",
          "type": "string"
        }
      ],
      "name": "LogMessage",
      "type": "event"
    },
    {
      "anonymous": false,
      "inputs": [
        {
          "indexed": false,
          "internalType": "uint256",
          "name": "message",
          "type": "uint256"
        }
      ],
      "name": "LogMessage",
      "type": "event"
    },
    {
      "payable": true,
      "stateMutability": "payable",
      "type": "fallback"
    },
    {
      "constant": true,
      "inputs": [
        {
          "internalType": "uint256",
          "name": "",
          "type": "uint256"
        }
      ],
      "name": "craftersList",
      "outputs": [
        {
          "internalType": "contract DecentracraftCrafter",
          "name": "",
          "type": "address"
        }
      ],
      "payable": false,
      "stateMutability": "view",
      "type": "function"
    },
    {
      "constant": true,
      "inputs": [
        {
          "internalType": "address",
          "name": "",
          "type": "address"
        }
      ],
      "name": "craftersRNG",
      "outputs": [
        {
          "internalType": "address",
          "name": "",
          "type": "address"
        }
      ],
      "payable": false,
      "stateMutability": "view",
      "type": "function"
    },
    {
      "constant": true,
      "inputs": [],
      "name": "owner",
      "outputs": [
        {
          "internalType": "address",
          "name": "",
          "type": "address"
        }
      ],
      "payable": false,
      "stateMutability": "view",
      "type": "function"
    },
    {
      "constant": false,
      "inputs": [
        {
          "internalType": "address",
          "name": "_owner",
          "type": "address"
        }
      ],
      "name": "setOwner",
      "outputs": [],
      "payable": false,
      "stateMutability": "nonpayable",
      "type": "function"
    },
    {
      "constant": true,
      "inputs": [
        {
          "internalType": "address",
          "name": "",
          "type": "address"
        },
        {
          "internalType": "uint256",
          "name": "",
          "type": "uint256"
        }
      ],
      "name": "tokenBurners",
      "outputs": [
        {
          "internalType": "contract Decentracraft",
          "name": "",
          "type": "address"
        }
      ],
      "payable": false,
      "stateMutability": "view",
      "type": "function"
    },
    {
      "constant": true,
      "inputs": [
        {
          "internalType": "address",
          "name": "",
          "type": "address"
        }
      ],
      "name": "tokenCrafters",
      "outputs": [
        {
          "internalType": "contract Decentracraft",
          "name": "",
          "type": "address"
        }
      ],
      "payable": false,
      "stateMutability": "view",
      "type": "function"
    },
    {
      "constant": true,
      "inputs": [],
      "name": "getBalance",
      "outputs": [
        {
          "internalType": "uint256",
          "name": "",
          "type": "uint256"
        }
      ],
      "payable": false,
      "stateMutability": "view",
      "type": "function"
    },
    {
      "constant": false,
      "inputs": [],
      "name": "withdraw",
      "outputs": [],
      "payable": false,
      "stateMutability": "nonpayable",
      "type": "function"
    },
    {
      "constant": false,
      "inputs": [
        {
          "internalType": "address",
          "name": "callee",
          "type": "address"
        },
        {
          "internalType": "bytes",
          "name": "data",
          "type": "bytes"
        }
      ],
      "name": "callTo",
      "outputs": [
        {
          "internalType": "bytes",
          "name": "",
          "type": "bytes"
        }
      ],
      "payable": false,
      "stateMutability": "nonpayable",
      "type": "function"
    },
    {
      "constant": false,
      "inputs": [
        {
          "internalType": "address",
          "name": "_crafter",
          "type": "address"
        },
        {
          "internalType": "address",
          "name": "_rng",
          "type": "address"
        }
      ],
      "name": "updateRNG",
      "outputs": [],
      "payable": false,
      "stateMutability": "nonpayable",
      "type": "function"
    },
    {
      "constant": false,
      "inputs": [
        {
          "internalType": "address",
          "name": "_dccWorldAddress",
          "type": "address"
        }
      ],
      "name": "updateDCCWorldAddress",
      "outputs": [],
      "payable": false,
      "stateMutability": "nonpayable",
      "type": "function"
    },
    {
      "constant": false,
      "inputs": [
        {
          "internalType": "contract DecentracraftCrafter",
          "name": "_crafter",
          "type": "address"
        },
        {
          "internalType": "contract Decentracraft",
          "name": "_token",
          "type": "address"
        },
        {
          "internalType": "address",
          "name": "_rng",
          "type": "address"
        }
      ],
      "name": "addTokenCrafter",
      "outputs": [],
      "payable": false,
      "stateMutability": "nonpayable",
      "type": "function"
    },
    {
      "constant": false,
      "inputs": [
        {
          "internalType": "address",
          "name": "_crafter",
          "type": "address"
        },
        {
          "internalType": "address",
          "name": "_newOwner",
          "type": "address"
        }
      ],
      "name": "removeTokenCrafter",
      "outputs": [],
      "payable": false,
      "stateMutability": "nonpayable",
      "type": "function"
    },
    {
      "constant": false,
      "inputs": [
        {
          "internalType": "address",
          "name": "_crafter",
          "type": "address"
        },
        {
          "internalType": "contract Decentracraft",
          "name": "_decentracraft",
          "type": "address"
        }
      ],
      "name": "allowToBurn",
      "outputs": [],
      "payable": false,
      "stateMutability": "nonpayable",
      "type": "function"
    },
    {
      "constant": true,
      "inputs": [
        {
          "internalType": "address",
          "name": "_crafter",
          "type": "address"
        },
        {
          "internalType": "contract Decentracraft",
          "name": "_decentracraft",
          "type": "address"
        }
      ],
      "name": "allowedToBurn",
      "outputs": [
        {
          "internalType": "bool",
          "name": "_allowed",
          "type": "bool"
        }
      ],
      "payable": false,
      "stateMutability": "view",
      "type": "function"
    },
    {
      "constant": false,
      "inputs": [
        {
          "internalType": "string",
          "name": "_uri",
          "type": "string"
        },
        {
          "internalType": "bool",
          "name": "_isNF",
          "type": "bool"
        }
      ],
      "name": "create",
      "outputs": [
        {
          "internalType": "uint256",
          "name": "_type",
          "type": "uint256"
        }
      ],
      "payable": false,
      "stateMutability": "nonpayable",
      "type": "function"
    },
    {
      "constant": false,
      "inputs": [],
      "name": "generateRandom",
      "outputs": [
        {
          "internalType": "bytes32",
          "name": "_queryId",
          "type": "bytes32"
        }
      ],
      "payable": false,
      "stateMutability": "nonpayable",
      "type": "function"
    },
    {
      "constant": false,
      "inputs": [
        {
          "internalType": "uint256",
          "name": "_type",
          "type": "uint256"
        },
        {
          "internalType": "address[]",
          "name": "_to",
          "type": "address[]"
        },
        {
          "internalType": "string",
          "name": "_uri",
          "type": "string"
        },
        {
          "internalType": "string",
          "name": "_attributesJSON",
          "type": "string"
        }
      ],
      "name": "craft",
      "outputs": [
        {
          "internalType": "uint256",
          "name": "_id",
          "type": "uint256"
        }
      ],
      "payable": false,
      "stateMutability": "nonpayable",
      "type": "function"
    },
    {
      "constant": false,
      "inputs": [
        {
          "internalType": "uint256",
          "name": "_id",
          "type": "uint256"
        },
        {
          "internalType": "address[]",
          "name": "_to",
          "type": "address[]"
        },
        {
          "internalType": "uint256[]",
          "name": "_quantities",
          "type": "uint256[]"
        }
      ],
      "name": "mint",
      "outputs": [],
      "payable": false,
      "stateMutability": "nonpayable",
      "type": "function"
    },
    {
      "constant": false,
      "inputs": [
        {
          "internalType": "bytes32",
          "name": "_queryId",
          "type": "bytes32"
        },
        {
          "internalType": "uint256",
          "name": "_rng",
          "type": "uint256"
        }
      ],
      "name": "__callback",
      "outputs": [],
      "payable": false,
      "stateMutability": "nonpayable",
      "type": "function"
    },
    {
      "constant": false,
      "inputs": [
        {
          "internalType": "address",
          "name": "_tokenOwner",
          "type": "address"
        },
        {
          "internalType": "contract Decentracraft",
          "name": "_decentracraft",
          "type": "address"
        },
        {
          "internalType": "uint256",
          "name": "_id",
          "type": "uint256"
        },
        {
          "internalType": "uint256",
          "name": "_amount",
          "type": "uint256"
        }
      ],
      "name": "burn",
      "outputs": [],
      "payable": false,
      "stateMutability": "nonpayable",
      "type": "function"
    }
  ],
  "bytecode": "0x6080604052336000806101000a81548173ffffffffffffffffffffffffffffffffffffffff021916908373ffffffffffffffffffffffffffffffffffffffff160217905550612c5e806100536000396000f3fe60806040526004361061012a5760003560e01c80637cb556d3116100ab578063cc10e4011161006f578063cc10e401146103d7578063cfa84fc114610414578063d25e1f141461043d578063d7020d0a1461047a578063d8676f13146104a3578063f8f5205c146104e05761012a565b80637cb556d3146102e05780638da5cb5b1461030957806393d3a7b614610334578063aae9d7ed14610371578063b64cbf851461039a5761012a565b8063345bbcba116100f2578063345bbcba146101fd5780633ccfd60b1461023a578063551d8fff1461025157806357a303e11461027a57806367c4f05a146102b75761012a565b806302e4af011461012c5780630858569f146101575780631100752b1461018057806312065fe0146101a957806313af4035146101d4575b005b34801561013857600080fd5b5061014161051d565b60405161014e919061273c565b60405180910390f35b34801561016357600080fd5b5061017e60048036036101799190810190612221565b61070b565b005b34801561018c57600080fd5b506101a760048036036101a29190810190612051565b610960565b005b3480156101b557600080fd5b506101be610e13565b6040516101cb919061282a565b60405180910390f35b3480156101e057600080fd5b506101fb60048036036101f69190810190612028565b610e1b565b005b34801561020957600080fd5b50610224600480360361021f9190810190612180565b610eb4565b60405161023191906127bd565b60405180910390f35b34801561024657600080fd5b5061024f610eff565b005b34801561025d57600080fd5b5061027860048036036102739190810190612028565b610f9e565b005b34801561028657600080fd5b506102a1600480360361029c9190810190612028565b6112bc565b6040516102ae91906126cf565b60405180910390f35b3480156102c357600080fd5b506102de60048036036102d991908101906120e1565b6112ef565b005b3480156102ec57600080fd5b5061030760048036036103029190810190612051565b6113f2565b005b34801561031557600080fd5b5061031e6114ca565b60405161032b91906126cf565b60405180910390f35b34801561034057600080fd5b5061035b6004803603610356919081019061208d565b6114ef565b6040516103689190612780565b60405180910390f35b34801561037d57600080fd5b50610398600480360361039391908101906121e5565b6115d2565b005b3480156103a657600080fd5b506103c160048036036103bc91908101906120e1565b6117ef565b6040516103ce9190612721565b60405180910390f35b3480156103e357600080fd5b506103fe60048036036103f99190810190612270565b611934565b60405161040b919061282a565b60405180910390f35b34801561042057600080fd5b5061043b6004803603610436919081019061231a565b611a2d565b005b34801561044957600080fd5b50610464600480360361045f9190810190612399565b611b00565b604051610471919061282a565b60405180910390f35b34801561048657600080fd5b506104a1600480360361049c919081019061211d565b611bfc565b005b3480156104af57600080fd5b506104ca60048036036104c59190810190612028565b611d19565b6040516104d791906127bd565b60405180910390f35b3480156104ec57600080fd5b50610507600480360361050291908101906122c8565b611d4c565b60405161051491906127a2565b60405180910390f35b600080600460003373ffffffffffffffffffffffffffffffffffffffff1673ffffffffffffffffffffffffffffffffffffffff16815260200190815260200160002060009054906101000a900473ffffffffffffffffffffffffffffffffffffffff1673ffffffffffffffffffffffffffffffffffffffff166302e4af016040518163ffffffff1660e01b8152600401602060405180830381600087803b1580156105c757600080fd5b505af11580156105db573d6000803e3d6000fd5b505050506040513d601f19601f820116820180604052506105ff91908101906121bc565b9050336005600083815260200190815260200160002060006101000a81548173ffffffffffffffffffffffffffffffffffffffff021916908373ffffffffffffffffffffffffffffffffffffffff160217905550600460003373ffffffffffffffffffffffffffffffffffffffff1673ffffffffffffffffffffffffffffffffffffffff16815260200190815260200160002060009054906101000a900473ffffffffffffffffffffffffffffffffffffffff166006600083815260200190815260200160002060006101000a81548173ffffffffffffffffffffffffffffffffffffffff021916908373ffffffffffffffffffffffffffffffffffffffff1602179055508091505090565b6000809054906101000a900473ffffffffffffffffffffffffffffffffffffffff1673ffffffffffffffffffffffffffffffffffffffff163373ffffffffffffffffffffffffffffffffffffffff16141561095b57600073ffffffffffffffffffffffffffffffffffffffff16600260008573ffffffffffffffffffffffffffffffffffffffff1673ffffffffffffffffffffffffffffffffffffffff16815260200190815260200160002060009054906101000a900473ffffffffffffffffffffffffffffffffffffffff1673ffffffffffffffffffffffffffffffffffffffff16146107f857600080fd5b60018390806001815401808255809150509060018203906000526020600020016000909192909190916101000a81548173ffffffffffffffffffffffffffffffffffffffff021916908373ffffffffffffffffffffffffffffffffffffffff1602179055505081600260008573ffffffffffffffffffffffffffffffffffffffff1673ffffffffffffffffffffffffffffffffffffffff16815260200190815260200160002060006101000a81548173ffffffffffffffffffffffffffffffffffffffff021916908373ffffffffffffffffffffffffffffffffffffffff16021790555080600460008573ffffffffffffffffffffffffffffffffffffffff1673ffffffffffffffffffffffffffffffffffffffff16815260200190815260200160002060006101000a81548173ffffffffffffffffffffffffffffffffffffffff021916908373ffffffffffffffffffffffffffffffffffffffff1602179055505b505050565b6000809054906101000a900473ffffffffffffffffffffffffffffffffffffffff1673ffffffffffffffffffffffffffffffffffffffff163373ffffffffffffffffffffffffffffffffffffffff161415610e0f5760008090505b600180549050811015610b21578273ffffffffffffffffffffffffffffffffffffffff16600182815481106109ec57fe5b9060005260206000200160009054906101000a900473ffffffffffffffffffffffffffffffffffffffff1673ffffffffffffffffffffffffffffffffffffffff161415610b145760018181548110610a4057fe5b9060005260206000200160009054906101000a900473ffffffffffffffffffffffffffffffffffffffff1673ffffffffffffffffffffffffffffffffffffffff166313af4035836040518263ffffffff1660e01b8152600401610aa391906126cf565b600060405180830381600087803b158015610abd57600080fd5b505af1158015610ad1573d6000803e3d6000fd5b5050505060018181548110610ae257fe5b9060005260206000200160006101000a81549073ffffffffffffffffffffffffffffffffffffffff0219169055610b21565b80806001019150506109bb565b50600260008373ffffffffffffffffffffffffffffffffffffffff1673ffffffffffffffffffffffffffffffffffffffff16815260200190815260200160002060009054906101000a900473ffffffffffffffffffffffffffffffffffffffff1673ffffffffffffffffffffffffffffffffffffffff166313af4035826040518263ffffffff1660e01b8152600401610bba91906126cf565b600060405180830381600087803b158015610bd457600080fd5b505af1158015610be8573d6000803e3d6000fd5b50505050600260008373ffffffffffffffffffffffffffffffffffffffff1673ffffffffffffffffffffffffffffffffffffffff16815260200190815260200160002060006101000a81549073ffffffffffffffffffffffffffffffffffffffff0219169055600073ffffffffffffffffffffffffffffffffffffffff16600460008473ffffffffffffffffffffffffffffffffffffffff1673ffffffffffffffffffffffffffffffffffffffff16815260200190815260200160002060009054906101000a900473ffffffffffffffffffffffffffffffffffffffff1673ffffffffffffffffffffffffffffffffffffffff1614610dac57600460008373ffffffffffffffffffffffffffffffffffffffff1673ffffffffffffffffffffffffffffffffffffffff16815260200190815260200160002060009054906101000a900473ffffffffffffffffffffffffffffffffffffffff1673ffffffffffffffffffffffffffffffffffffffff166313af4035826040518263ffffffff1660e01b8152600401610d7991906126cf565b600060405180830381600087803b158015610d9357600080fd5b505af1158015610da7573d6000803e3d6000fd5b505050505b600460008373ffffffffffffffffffffffffffffffffffffffff1673ffffffffffffffffffffffffffffffffffffffff16815260200190815260200160002060006101000a81549073ffffffffffffffffffffffffffffffffffffffff02191690555b5050565b600047905090565b6000809054906101000a900473ffffffffffffffffffffffffffffffffffffffff1673ffffffffffffffffffffffffffffffffffffffff163373ffffffffffffffffffffffffffffffffffffffff161415610eb157806000806101000a81548173ffffffffffffffffffffffffffffffffffffffff021916908373ffffffffffffffffffffffffffffffffffffffff1602179055505b50565b60036020528160005260406000208181548110610ecd57fe5b906000526020600020016000915091509054906101000a900473ffffffffffffffffffffffffffffffffffffffff1681565b6000809054906101000a900473ffffffffffffffffffffffffffffffffffffffff1673ffffffffffffffffffffffffffffffffffffffff163373ffffffffffffffffffffffffffffffffffffffff161415610f9c573373ffffffffffffffffffffffffffffffffffffffff166108fc479081150290604051600060405180830381858888f19350505050158015610f9a573d6000803e3d6000fd5b505b565b6000809054906101000a900473ffffffffffffffffffffffffffffffffffffffff1673ffffffffffffffffffffffffffffffffffffffff163373ffffffffffffffffffffffffffffffffffffffff1614156112b95760008090505b6001805490508110156112b7576001818154811061101357fe5b9060005260206000200160009054906101000a900473ffffffffffffffffffffffffffffffffffffffff1673ffffffffffffffffffffffffffffffffffffffff166313af4035836040518263ffffffff1660e01b815260040161107691906126cf565b600060405180830381600087803b15801561109057600080fd5b505af11580156110a4573d6000803e3d6000fd5b5050505060026000600183815481106110b957fe5b9060005260206000200160009054906101000a900473ffffffffffffffffffffffffffffffffffffffff1673ffffffffffffffffffffffffffffffffffffffff1673ffffffffffffffffffffffffffffffffffffffff16815260200190815260200160002060009054906101000a900473ffffffffffffffffffffffffffffffffffffffff1673ffffffffffffffffffffffffffffffffffffffff166313af4035836040518263ffffffff1660e01b815260040161117791906126cf565b600060405180830381600087803b15801561119157600080fd5b505af11580156111a5573d6000803e3d6000fd5b5050505060046000600183815481106111ba57fe5b9060005260206000200160009054906101000a900473ffffffffffffffffffffffffffffffffffffffff1673ffffffffffffffffffffffffffffffffffffffff1673ffffffffffffffffffffffffffffffffffffffff16815260200190815260200160002060009054906101000a900473ffffffffffffffffffffffffffffffffffffffff1673ffffffffffffffffffffffffffffffffffffffff166313af4035836040518263ffffffff1660e01b815260040161127891906126cf565b600060405180830381600087803b15801561129257600080fd5b505af11580156112a6573d6000803e3d6000fd5b505050508080600101915050610ff9565b505b50565b60046020528060005260406000206000915054906101000a900473ffffffffffffffffffffffffffffffffffffffff1681565b6000809054906101000a900473ffffffffffffffffffffffffffffffffffffffff1673ffffffffffffffffffffffffffffffffffffffff163373ffffffffffffffffffffffffffffffffffffffff1614156113ee576000600360008473ffffffffffffffffffffffffffffffffffffffff1673ffffffffffffffffffffffffffffffffffffffff1681526020019081526020016000209050808290806001815401808255809150509060018203906000526020600020016000909192909190916101000a81548173ffffffffffffffffffffffffffffffffffffffff021916908373ffffffffffffffffffffffffffffffffffffffff16021790555050505b5050565b6000809054906101000a900473ffffffffffffffffffffffffffffffffffffffff1673ffffffffffffffffffffffffffffffffffffffff163373ffffffffffffffffffffffffffffffffffffffff1614156114c65780600460008473ffffffffffffffffffffffffffffffffffffffff1673ffffffffffffffffffffffffffffffffffffffff16815260200190815260200160002060006101000a81548173ffffffffffffffffffffffffffffffffffffffff021916908373ffffffffffffffffffffffffffffffffffffffff1602179055505b5050565b6000809054906101000a900473ffffffffffffffffffffffffffffffffffffffff1681565b60606000809054906101000a900473ffffffffffffffffffffffffffffffffffffffff1673ffffffffffffffffffffffffffffffffffffffff163373ffffffffffffffffffffffffffffffffffffffff1614156115cc57600060608473ffffffffffffffffffffffffffffffffffffffff168460405161156f91906126b8565b6000604051808303816000865af19150503d80600081146115ac576040519150601f19603f3d011682016040523d82523d6000602084013e6115b1565b606091505b509150915060008214156115c6573d60208201fd5b80925050505b92915050565b7f96561394bac381230de4649200e8831afcab1f451881bbade9ef209f6dd304806040516115ff9061280a565b60405180910390a16006600083815260200190815260200160002060009054906101000a900473ffffffffffffffffffffffffffffffffffffffff1673ffffffffffffffffffffffffffffffffffffffff163373ffffffffffffffffffffffffffffffffffffffff161461167257600080fd5b600073ffffffffffffffffffffffffffffffffffffffff166005600084815260200190815260200160002060009054906101000a900473ffffffffffffffffffffffffffffffffffffffff1673ffffffffffffffffffffffffffffffffffffffff1614156116df57600080fd5b6005600083815260200190815260200160002060009054906101000a900473ffffffffffffffffffffffffffffffffffffffff1673ffffffffffffffffffffffffffffffffffffffff1663aae9d7ed83836040518363ffffffff1660e01b815260040161174d929190612757565b600060405180830381600087803b15801561176757600080fd5b505af115801561177b573d6000803e3d6000fd5b505050506005600083815260200190815260200160002060006101000a81549073ffffffffffffffffffffffffffffffffffffffff02191690556006600083815260200190815260200160002060006101000a81549073ffffffffffffffffffffffffffffffffffffffff02191690555050565b60006060600360008573ffffffffffffffffffffffffffffffffffffffff1673ffffffffffffffffffffffffffffffffffffffff1681526020019081526020016000208054806020026020016040519081016040528092919081815260200182805480156118b257602002820191906000526020600020905b8160009054906101000a900473ffffffffffffffffffffffffffffffffffffffff1673ffffffffffffffffffffffffffffffffffffffff1681526020019060010190808311611868575b5050505050905060008090505b8151811015611927578373ffffffffffffffffffffffffffffffffffffffff168282815181106118eb57fe5b602002602001015173ffffffffffffffffffffffffffffffffffffffff16141561191a5760019250505061192e565b80806001019150506118bf565b5060009150505b92915050565b6000600260003373ffffffffffffffffffffffffffffffffffffffff1673ffffffffffffffffffffffffffffffffffffffff16815260200190815260200160002060009054906101000a900473ffffffffffffffffffffffffffffffffffffffff1673ffffffffffffffffffffffffffffffffffffffff1663cc10e4018585856040518463ffffffff1660e01b81526004016119d2939291906127d8565b602060405180830381600087803b1580156119ec57600080fd5b505af1158015611a00573d6000803e3d6000fd5b505050506040513d601f19601f82011682018060405250611a2491908101906122f1565b90509392505050565b600260003373ffffffffffffffffffffffffffffffffffffffff1673ffffffffffffffffffffffffffffffffffffffff16815260200190815260200160002060009054906101000a900473ffffffffffffffffffffffffffffffffffffffff1673ffffffffffffffffffffffffffffffffffffffff166378b272218484846040518463ffffffff1660e01b8152600401611ac993929190612845565b600060405180830381600087803b158015611ae357600080fd5b505af1158015611af7573d6000803e3d6000fd5b50505050505050565b6000600260003373ffffffffffffffffffffffffffffffffffffffff1673ffffffffffffffffffffffffffffffffffffffff16815260200190815260200160002060009054906101000a900473ffffffffffffffffffffffffffffffffffffffff1673ffffffffffffffffffffffffffffffffffffffff1663cbd74958868686866040518563ffffffff1660e01b8152600401611ba0949392919061288a565b602060405180830381600087803b158015611bba57600080fd5b505af1158015611bce573d6000803e3d6000fd5b505050506040513d601f19601f82011682018060405250611bf291908101906122f1565b9050949350505050565b8273ffffffffffffffffffffffffffffffffffffffff16600260003373ffffffffffffffffffffffffffffffffffffffff1673ffffffffffffffffffffffffffffffffffffffff16815260200190815260200160002060009054906101000a900473ffffffffffffffffffffffffffffffffffffffff1673ffffffffffffffffffffffffffffffffffffffff161480611c9b5750611c9a33846117ef565b5b611ca457600080fd5b8273ffffffffffffffffffffffffffffffffffffffff1663f5298aca8584846040518463ffffffff1660e01b8152600401611ce1939291906126ea565b600060405180830381600087803b158015611cfb57600080fd5b505af1158015611d0f573d6000803e3d6000fd5b5050505050505050565b60026020528060005260406000206000915054906101000a900473ffffffffffffffffffffffffffffffffffffffff1681565b60018181548110611d5957fe5b906000526020600020016000915054906101000a900473ffffffffffffffffffffffffffffffffffffffff1681565b600081359050611d9781612b91565b92915050565b600082601f830112611dae57600080fd5b8135611dc1611dbc82612911565b6128e4565b91508181835260208401935060208101905083856020840282011115611de657600080fd5b60005b83811015611e165781611dfc8882611d88565b845260208401935060208301925050600181019050611de9565b5050505092915050565b600082601f830112611e3157600080fd5b8135611e44611e3f82612939565b6128e4565b91508181835260208401935060208101905083856020840282011115611e6957600080fd5b60005b83811015611e995781611e7f8882611ffe565b845260208401935060208301925050600181019050611e6c565b5050505092915050565b600081359050611eb281612ba8565b92915050565b600081359050611ec781612bbf565b92915050565b600081519050611edc81612bbf565b92915050565b600082601f830112611ef357600080fd5b8135611f06611f0182612961565b6128e4565b91508082526020830160208301858383011115611f2257600080fd5b611f2d838284612b3e565b50505092915050565b600081359050611f4581612bd6565b92915050565b600081359050611f5a81612bed565b92915050565b60008083601f840112611f7257600080fd5b8235905067ffffffffffffffff811115611f8b57600080fd5b602083019150836001820283011115611fa357600080fd5b9250929050565b600082601f830112611fbb57600080fd5b8135611fce611fc98261298d565b6128e4565b91508082526020830160208301858383011115611fea57600080fd5b611ff5838284612b3e565b50505092915050565b60008135905061200d81612c04565b92915050565b60008151905061202281612c04565b92915050565b60006020828403121561203a57600080fd5b600061204884828501611d88565b91505092915050565b6000806040838503121561206457600080fd5b600061207285828601611d88565b925050602061208385828601611d88565b9150509250929050565b600080604083850312156120a057600080fd5b60006120ae85828601611d88565b925050602083013567ffffffffffffffff8111156120cb57600080fd5b6120d785828601611ee2565b9150509250929050565b600080604083850312156120f457600080fd5b600061210285828601611d88565b925050602061211385828601611f4b565b9150509250929050565b6000806000806080858703121561213357600080fd5b600061214187828801611d88565b945050602061215287828801611f4b565b935050604061216387828801611ffe565b925050606061217487828801611ffe565b91505092959194509250565b6000806040838503121561219357600080fd5b60006121a185828601611d88565b92505060206121b285828601611ffe565b9150509250929050565b6000602082840312156121ce57600080fd5b60006121dc84828501611ecd565b91505092915050565b600080604083850312156121f857600080fd5b600061220685828601611eb8565b925050602061221785828601611ffe565b9150509250929050565b60008060006060848603121561223657600080fd5b600061224486828701611f36565b935050602061225586828701611f4b565b925050604061226686828701611d88565b9150509250925092565b60008060006040848603121561228557600080fd5b600084013567ffffffffffffffff81111561229f57600080fd5b6122ab86828701611f60565b935093505060206122be86828701611ea3565b9150509250925092565b6000602082840312156122da57600080fd5b60006122e884828501611ffe565b91505092915050565b60006020828403121561230357600080fd5b600061231184828501612013565b91505092915050565b60008060006060848603121561232f57600080fd5b600061233d86828701611ffe565b935050602084013567ffffffffffffffff81111561235a57600080fd5b61236686828701611d9d565b925050604084013567ffffffffffffffff81111561238357600080fd5b61238f86828701611e20565b9150509250925092565b600080600080608085870312156123af57600080fd5b60006123bd87828801611ffe565b945050602085013567ffffffffffffffff8111156123da57600080fd5b6123e687828801611d9d565b935050604085013567ffffffffffffffff81111561240357600080fd5b61240f87828801611faa565b925050606085013567ffffffffffffffff81111561242c57600080fd5b61243887828801611faa565b91505092959194509250565b60006124508383612474565b60208301905092915050565b6000612468838361269a565b60208301905092915050565b61247d81612a6e565b82525050565b61248c81612a6e565b82525050565b600061249d826129d9565b6124a78185612a1f565b93506124b2836129b9565b8060005b838110156124e35781516124ca8882612444565b97506124d583612a05565b9250506001810190506124b6565b5085935050505092915050565b60006124fb826129e4565b6125058185612a30565b9350612510836129c9565b8060005b83811015612541578151612528888261245c565b975061253383612a12565b925050600181019050612514565b5085935050505092915050565b61255781612a92565b82525050565b61256681612a9e565b82525050565b6000612577826129ef565b6125818185612a41565b9350612591818560208601612b4d565b61259a81612b80565b840191505092915050565b60006125b0826129ef565b6125ba8185612a52565b93506125ca818560208601612b4d565b80840191505092915050565b6125df81612af6565b82525050565b6125ee81612b1a565b82525050565b60006126008385612a5d565b935061260d838584612b3e565b61261683612b80565b840190509392505050565b600061262c826129fa565b6126368185612a5d565b9350612646818560208601612b4d565b61264f81612b80565b840191505092915050565b6000612667600a83612a5d565b91507f5f5f63616c6c6261636b000000000000000000000000000000000000000000006000830152602082019050919050565b6126a381612aec565b82525050565b6126b281612aec565b82525050565b60006126c482846125a5565b915081905092915050565b60006020820190506126e46000830184612483565b92915050565b60006060820190506126ff6000830186612483565b61270c60208301856126a9565b61271960408301846126a9565b949350505050565b6000602082019050612736600083018461254e565b92915050565b6000602082019050612751600083018461255d565b92915050565b600060408201905061276c600083018561255d565b61277960208301846126a9565b9392505050565b6000602082019050818103600083015261279a818461256c565b905092915050565b60006020820190506127b760008301846125d6565b92915050565b60006020820190506127d260008301846125e5565b92915050565b600060408201905081810360008301526127f38185876125f4565b9050612802602083018461254e565b949350505050565b600060208201905081810360008301526128238161265a565b9050919050565b600060208201905061283f60008301846126a9565b92915050565b600060608201905061285a60008301866126a9565b818103602083015261286c8185612492565b9050818103604083015261288081846124f0565b9050949350505050565b600060808201905061289f60008301876126a9565b81810360208301526128b18186612492565b905081810360408301526128c58185612621565b905081810360608301526128d98184612621565b905095945050505050565b6000604051905081810181811067ffffffffffffffff8211171561290757600080fd5b8060405250919050565b600067ffffffffffffffff82111561292857600080fd5b602082029050602081019050919050565b600067ffffffffffffffff82111561295057600080fd5b602082029050602081019050919050565b600067ffffffffffffffff82111561297857600080fd5b601f19601f8301169050602081019050919050565b600067ffffffffffffffff8211156129a457600080fd5b601f19601f8301169050602081019050919050565b6000819050602082019050919050565b6000819050602082019050919050565b600081519050919050565b600081519050919050565b600081519050919050565b600081519050919050565b6000602082019050919050565b6000602082019050919050565b600082825260208201905092915050565b600082825260208201905092915050565b600082825260208201905092915050565b600081905092915050565b600082825260208201905092915050565b6000612a7982612acc565b9050919050565b6000612a8b82612acc565b9050919050565b60008115159050919050565b6000819050919050565b6000612ab382612a6e565b9050919050565b6000612ac582612a80565b9050919050565b600073ffffffffffffffffffffffffffffffffffffffff82169050919050565b6000819050919050565b6000612b0182612b08565b9050919050565b6000612b1382612acc565b9050919050565b6000612b2582612b2c565b9050919050565b6000612b3782612acc565b9050919050565b82818337600083830152505050565b60005b83811015612b6b578082015181840152602081019050612b50565b83811115612b7a576000848401525b50505050565b6000601f19601f8301169050919050565b612b9a81612a6e565b8114612ba557600080fd5b50565b612bb181612a92565b8114612bbc57600080fd5b50565b612bc881612a9e565b8114612bd357600080fd5b50565b612bdf81612aa8565b8114612bea57600080fd5b50565b612bf681612aba565b8114612c0157600080fd5b50565b612c0d81612aec565b8114612c1857600080fd5b5056fea365627a7a72315820a674e20480e19f38ddaaa5823c1257abfbc709ce8c6c55525eb9c7eae3597d8b6c6578706572696d656e74616cf564736f6c634300050f0040",
  "source": "pragma solidity >=0.5.11;\npragma experimental ABIEncoderV2;\n\nimport \"./Decentracraft.sol\";\nimport \"./DecentracraftCrafter.sol\";\nimport \"./Utils/Ownable.sol\";\nimport \"./Utils/IRNGReceiver.sol\";\nimport \"./Utils/IRandomGenerator.sol\";\n\n/**\n    @dev Decentracraftworld manager\n    Controls minting process\n*/\ncontract DecentracraftWorld is Ownable, IRNGReceiver {\n\n    DecentracraftCrafter[] public craftersList;\n    mapping(address => Decentracraft) public tokenCrafters;\n    mapping(address => Decentracraft[]) public tokenBurners; \n    mapping(address => address) public craftersRNG;\n\n    mapping (bytes32 => DecentracraftCrafter) randomQueryCrafterMap;\n    mapping (bytes32 => address) randomQueryGeneratorMap;\n\n    function getBalance() public view returns (uint256) {\n        return address(this).balance;\n    }\n\n    function withdraw() public ownerOnly {\n        msg.sender.transfer(address(this).balance);\n    }\n\n    function () external payable {\n    }\n\n    event LogMessage(string message);\n    event LogMessage(uint256 message);\n\n    constructor () public payable  { \n    }\n\n    function callTo(address callee, bytes memory data) public ownerOnly returns (bytes memory) {\n        (bool success, bytes memory returnData) = callee.call(data);\n        assembly {\n            if eq(success, 0) {\n                revert(add(returnData, 0x20), returndatasize)\n            }\n        }\n        return returnData;\n    }\n\n    function updateRNG(address _crafter, address _rng) public ownerOnly {\n        craftersRNG[_crafter]   = _rng;\n    }\n\n    function updateDCCWorldAddress(address _dccWorldAddress) public ownerOnly {\n        for (uint index = 0; index < craftersList.length; index++) {\n            craftersList[index].setOwner(_dccWorldAddress);    \n            tokenCrafters[address(craftersList[index])].setOwner(_dccWorldAddress);  \n            Ownable(craftersRNG[address(craftersList[index])]).setOwner(_dccWorldAddress);                 \n        }\n    }\n\n    function addTokenCrafter(DecentracraftCrafter _crafter, Decentracraft _token, address _rng) external ownerOnly {\n        require(address(tokenCrafters[address(_crafter)]) == address(0));\n\n        craftersList.push(_crafter);\n        tokenCrafters[address(_crafter)] = _token;\n        craftersRNG[address(_crafter)]   = _rng;\n    }\n\n    function removeTokenCrafter(address _crafter, address _newOwner) external ownerOnly {  \n        \n        for (uint index = 0; index < craftersList.length; index++) {\n            if (address(craftersList[index]) == _crafter) {\n                craftersList[index].setOwner(_newOwner);    \n                delete craftersList[index];\n                break;\n            }\n        }\n        tokenCrafters[_crafter].setOwner(_newOwner); \n        delete tokenCrafters[_crafter];\n\n        if(craftersRNG[_crafter] != address(0)){\n            Ownable(craftersRNG[_crafter]).setOwner(_newOwner);\n        }  \n        delete craftersRNG[_crafter];\n    }\n\n    function allowToBurn(address _crafter, Decentracraft _decentracraft) external ownerOnly {\n        Decentracraft[] storage allowedtokens = tokenBurners[_crafter];\n        allowedtokens.push(_decentracraft);\n    }\n\n    function allowedToBurn(address _crafter, Decentracraft _decentracraft) public view returns(bool _allowed){\n        Decentracraft[] memory allowedtokens = tokenBurners[_crafter];\n        for (uint index = 0; index < allowedtokens.length; index++) {\n            if(allowedtokens[index] == _decentracraft){\n                return true;\n            }\n        }\n        return false;\n    }\n\n    function create(string calldata _uri, bool   _isNF) external returns(uint256 _type) {\n        return tokenCrafters[msg.sender].create(_uri, _isNF);\n    }\n\n    function generateRandom() external returns(bytes32 _queryId){\n        bytes32 queryId = IRandomGenerator(craftersRNG[msg.sender]).generateRandom();\n        randomQueryCrafterMap[queryId] = DecentracraftCrafter(msg.sender);\n        randomQueryGeneratorMap[queryId] = craftersRNG[msg.sender];\n        return queryId;\n    }\n\n    function craft(uint256 _type, address[] memory _to, string memory _uri, string memory _attributesJSON) public returns(uint256 _id) {\n        return tokenCrafters[msg.sender].mintNonFungible(_type, _to, _uri, _attributesJSON);\n    }\n\n    function mint(uint256 _id, address[] memory _to, uint256[] memory _quantities) public {\n        tokenCrafters[msg.sender].mintFungible(_id, _to, _quantities);\n    }\n\n    function __callback(bytes32 _queryId, uint256 _rng) public {\n        emit LogMessage(\"__callback\");\n        require(msg.sender == randomQueryGeneratorMap[_queryId]);\n        require(address(randomQueryCrafterMap[_queryId]) != address(0));        \n\n        randomQueryCrafterMap[_queryId].__callback(_queryId, _rng);\n        delete randomQueryCrafterMap[_queryId];\n        delete randomQueryGeneratorMap[_queryId];\n    } \n\n    function burn(address _tokenOwner, Decentracraft _decentracraft, uint256 _id, uint256 _amount) public {\n        require(tokenCrafters[msg.sender] == _decentracraft || allowedToBurn(msg.sender, _decentracraft));\n        _decentracraft.burn(_tokenOwner, _id, _amount);\n    }\n}\n",
  "sourcePath": "/mnt/c/Kiko/MyProjects/Blockchain/Decentraland/decentracraft-contracts/contracts/DecentracraftWorld.sol",
  "compiler": {
    "name": "solc",
    "version": "0.5.15+commit.6a57276f.Emscripten.clang"
  },
  "schemaVersion": "3.3.2",
  "updatedAt": "2021-02-02T06:57:25.048Z",
  "networkType": "ethereum",
  "devdoc": {
    "details": "Decentracraftworld manager Controls minting process",
    "methods": {}
  },
  "userdoc": {
    "methods": {}
  }
}