{
  "contractName": "EPDebtCrafter",
  "abi": [
    {
      "inputs": [
        {
          "internalType": "address payable",
          "name": "_epDebtNFT",
          "type": "address"
        }
      ],
      "payable": false,
      "stateMutability": "nonpayable",
      "type": "constructor"
    },
    {
      "constant": true,
      "inputs": [],
      "name": "epDebtNFT",
      "outputs": [
        {
          "internalType": "contract EPDebtNFT",
          "name": "",
          "type": "address"
        }
      ],
      "payable": false,
      "stateMutability": "view",
      "type": "function"
    },
    {
      "constant": true,
      "inputs": [],
      "name": "owner",
      "outputs": [
        {
          "internalType": "address",
          "name": "",
          "type": "address"
        }
      ],
      "payable": false,
      "stateMutability": "view",
      "type": "function"
    },
    {
      "constant": false,
      "inputs": [
        {
          "internalType": "address",
          "name": "_owner",
          "type": "address"
        }
      ],
      "name": "setOwner",
      "outputs": [],
      "payable": false,
      "stateMutability": "nonpayable",
      "type": "function"
    },
    {
      "constant": false,
      "inputs": [
        {
          "internalType": "bytes32",
          "name": "_queryId",
          "type": "bytes32"
        },
        {
          "internalType": "uint256",
          "name": "_rng",
          "type": "uint256"
        }
      ],
      "name": "__callback",
      "outputs": [],
      "payable": false,
      "stateMutability": "nonpayable",
      "type": "function"
    },
    {
      "constant": false,
      "inputs": [
        {
          "internalType": "address",
          "name": "_operator",
          "type": "address"
        },
        {
          "internalType": "address",
          "name": "_from",
          "type": "address"
        },
        {
          "internalType": "uint256",
          "name": "_id",
          "type": "uint256"
        },
        {
          "internalType": "uint256",
          "name": "_value",
          "type": "uint256"
        },
        {
          "internalType": "bytes",
          "name": "_data",
          "type": "bytes"
        }
      ],
      "name": "onERC1155Received",
      "outputs": [
        {
          "internalType": "bytes4",
          "name": "",
          "type": "bytes4"
        }
      ],
      "payable": false,
      "stateMutability": "nonpayable",
      "type": "function"
    },
    {
      "constant": false,
      "inputs": [
        {
          "internalType": "address",
          "name": "_operator",
          "type": "address"
        },
        {
          "internalType": "address",
          "name": "_from",
          "type": "address"
        },
        {
          "internalType": "uint256[]",
          "name": "_ids",
          "type": "uint256[]"
        },
        {
          "internalType": "uint256[]",
          "name": "_values",
          "type": "uint256[]"
        },
        {
          "internalType": "bytes",
          "name": "_data",
          "type": "bytes"
        }
      ],
      "name": "onERC1155BatchReceived",
      "outputs": [
        {
          "internalType": "bytes4",
          "name": "",
          "type": "bytes4"
        }
      ],
      "payable": false,
      "stateMutability": "nonpayable",
      "type": "function"
    },
    {
      "constant": false,
      "inputs": [
        {
          "internalType": "address",
          "name": "_borrowedAsset",
          "type": "address"
        },
        {
          "internalType": "uint256",
          "name": "_borrowedAmount",
          "type": "uint256"
        },
        {
          "internalType": "uint256",
          "name": "_borrowedAssetType",
          "type": "uint256"
        },
        {
          "internalType": "address",
          "name": "_paymentAsset",
          "type": "address"
        },
        {
          "internalType": "uint256",
          "name": "_paymentAssetType",
          "type": "uint256"
        },
        {
          "internalType": "uint256[]",
          "name": "_amounts",
          "type": "uint256[]"
        },
        {
          "internalType": "uint256[]",
          "name": "_deadlines",
          "type": "uint256[]"
        }
      ],
      "name": "createDebt",
      "outputs": [],
      "payable": false,
      "stateMutability": "nonpayable",
      "type": "function"
    },
    {
      "constant": false,
      "inputs": [
        {
          "internalType": "uint256",
          "name": "_id",
          "type": "uint256"
        }
      ],
      "name": "fundLoan",
      "outputs": [],
      "payable": true,
      "stateMutability": "payable",
      "type": "function"
    },
    {
      "constant": false,
      "inputs": [
        {
          "internalType": "uint256",
          "name": "_id",
          "type": "uint256"
        }
      ],
      "name": "payNextInstallment",
      "outputs": [],
      "payable": true,
      "stateMutability": "payable",
      "type": "function"
    },
    {
      "constant": false,
      "inputs": [
        {
          "internalType": "uint256",
          "name": "_id",
          "type": "uint256"
        }
      ],
      "name": "terminateLoan",
      "outputs": [],
      "payable": true,
      "stateMutability": "payable",
      "type": "function"
    }
  ],
  "bytecode": "0x608060405234801561001057600080fd5b50604051611b38380380611b388339818101604052602081101561003357600080fd5b5051600080546001600160a01b03199081163317909155600180546001600160a01b0390931692909116919091179055611ac6806100726000396000f3fe6080604052600436106100915760003560e01c80638da5cb5b116100595780638da5cb5b14610153578063aae9d7ed14610168578063bc197c8114610198578063e91975d3146102e9578063f23a6e611461044257610091565b806309a438871461009657806313af4035146100c75780634ce9337d146100fc5780637fb9fe3d14610119578063846b909a14610136575b600080fd5b3480156100a257600080fd5b506100ab6104e2565b604080516001600160a01b039092168252519081900360200190f35b3480156100d357600080fd5b506100fa600480360360208110156100ea57600080fd5b50356001600160a01b03166104f1565b005b6100fa6004803603602081101561011257600080fd5b5035610523565b6100fa6004803603602081101561012f57600080fd5b5035610bbd565b6100fa6004803603602081101561014c57600080fd5b5035611039565b34801561015f57600080fd5b506100ab611377565b34801561017457600080fd5b506100fa6004803603604081101561018b57600080fd5b5080359060200135611386565b3480156101a457600080fd5b506102cc600480360360a08110156101bb57600080fd5b6001600160a01b038235811692602081013590911691810190606081016040820135600160201b8111156101ee57600080fd5b82018360208201111561020057600080fd5b803590602001918460208302840111600160201b8311171561022157600080fd5b919390929091602081019035600160201b81111561023e57600080fd5b82018360208201111561025057600080fd5b803590602001918460208302840111600160201b8311171561027157600080fd5b919390929091602081019035600160201b81111561028e57600080fd5b8201836020820111156102a057600080fd5b803590602001918460018302840111600160201b831117156102c157600080fd5b50909250905061138a565b604080516001600160e01b03199092168252519081900360200190f35b3480156102f557600080fd5b506100fa600480360360e081101561030c57600080fd5b6001600160a01b0382358116926020810135926040820135926060830135169160808101359181019060c0810160a0820135600160201b81111561034f57600080fd5b82018360208201111561036157600080fd5b803590602001918460208302840111600160201b8311171561038257600080fd5b9190808060200260200160405190810160405280939291908181526020018383602002808284376000920191909152509295949360208101935035915050600160201b8111156103d157600080fd5b8201836020820111156103e357600080fd5b803590602001918460208302840111600160201b8311171561040457600080fd5b91908080602002602001604051908101604052809392919081815260200183836020028082843760009201919091525092955061139e945050505050565b34801561044e57600080fd5b506102cc600480360360a081101561046557600080fd5b6001600160a01b03823581169260208101359091169160408201359160608101359181019060a081016080820135600160201b8111156104a457600080fd5b8201836020820111156104b657600080fd5b803590602001918460018302840111600160201b831117156104d757600080fd5b50909250905061171e565b6001546001600160a01b031681565b6000546001600160a01b031633141561052057600080546001600160a01b0319166001600160a01b0383161790555b50565b600154604080516331a9108f60e11b815260048101849052905130926001600160a01b031691636352211e916024808301926020929190829003018186803b15801561056e57600080fd5b505afa158015610582573d6000803e3d6000fd5b505050506040513d602081101561059857600080fd5b50516001600160a01b031614156105ed576040805162461bcd60e51b81526020600482015260146024820152732637b0b7103737ba10333ab73232b2103cb2ba1760611b604482015290519081900360640190fd5b60015460408051630b922faf60e41b81526004810184905290516000926001600160a01b03169163b922faf0916024808301926020929190829003018186803b15801561063957600080fd5b505afa15801561064d573d6000803e3d6000fd5b505050506040513d602081101561066357600080fd5b50516001546040805162f7b85f60e01b81526004810186905290519293506000926001600160a01b039092169162f7b85f91602480820192602092909190829003018186803b1580156106b557600080fd5b505afa1580156106c9573d6000803e3d6000fd5b505050506040513d60208110156106df57600080fd5b505160015460408051630f7690bf60e01b81526004810187905290519293506000926001600160a01b0390921691630f7690bf91602480820192602092909190829003018186803b15801561073357600080fd5b505afa158015610747573d6000803e3d6000fd5b505050506040513d602081101561075d57600080fd5b5051905060005b81811015610bb657600154604080516309b4486560e11b815260048101889052602481018490529051600092839283926001600160a01b039092169163136890ca91604480820192606092909190829003018186803b1580156107c657600080fd5b505afa1580156107da573d6000803e3d6000fd5b505050506040513d60608110156107f057600080fd5b5080516020820151604090920151909450909250905080610bab57600154604080516331a9108f60e11b8152600481018b905290516108909289928b9233926001600160a01b031691636352211e916024808301926020929190829003018186803b15801561085e57600080fd5b505afa158015610872573d6000803e3d6000fd5b505050506040513d602081101561088857600080fd5b505187611730565b60015460408051638480e99f60e01b8152600481018b90526024810187905290516001600160a01b0390921691638480e99f9160448082019260009290919082900301818387803b1580156108e457600080fd5b505af11580156108f8573d6000803e3d6000fd5b5050505084846001011415610ba35760015460408051634d1687ff60e01b8152600481018b905290516000926001600160a01b031691634d1687ff916024808301926020929190829003018186803b15801561095357600080fd5b505afa158015610967573d6000803e3d6000fd5b505050506040513d602081101561097d57600080fd5b505160015460408051632172632960e11b8152600481018d905290519293506000926001600160a01b03909216916342e4c65291602480820192602092909190829003018186803b1580156109d157600080fd5b505afa1580156109e5573d6000803e3d6000fd5b505050506040513d60208110156109fb57600080fd5b50516001546040805163755c0beb60e01b8152600481018e905290519293506000926001600160a01b039092169163755c0beb91602480820192602092909190829003018186803b158015610a4f57600080fd5b505afa158015610a63573d6000803e3d6000fd5b505050506040513d6020811015610a7957600080fd5b505160015460408051638500d91960e01b8152600481018f905290519293506000926001600160a01b0390921691638500d91991602480820192602092909190829003018186803b158015610acd57600080fd5b505afa158015610ae1573d6000803e3d6000fd5b505050506040513d6020811015610af757600080fd5b50519050610b088285308487611730565b600160009054906101000a90046001600160a01b03166001600160a01b031663f5298aca338e60016040518463ffffffff1660e01b815260040180846001600160a01b03166001600160a01b031681526020018381526020018281526020019350505050600060405180830381600087803b158015610b8657600080fd5b505af1158015610b9a573d6000803e3d6000fd5b50505050505050505b505050610bb6565b505050600101610764565b5050505050565b600154604080516331a9108f60e11b815260048101849052905133926001600160a01b031691636352211e916024808301926020929190829003018186803b158015610c0857600080fd5b505afa158015610c1c573d6000803e3d6000fd5b505050506040513d6020811015610c3257600080fd5b50516001600160a01b031614610c795760405162461bcd60e51b8152600401808060200182810382526023815260200180611a456023913960400191505060405180910390fd5b60015460408051630f7690bf60e01b81526004810184905290516000926001600160a01b031691630f7690bf916024808301926020929190829003018186803b158015610cc557600080fd5b505afa158015610cd9573d6000803e3d6000fd5b505050506040513d6020811015610cef57600080fd5b505160015460408051635e15f0df60e11b81526004810186905290519293506000926001600160a01b039092169163bc2be1be91602480820192602092909190829003018186803b158015610d4357600080fd5b505afa158015610d57573d6000803e3d6000fd5b505050506040513d6020811015610d6d57600080fd5b5051905060005b8281101561103357600154604080516309b4486560e11b815260048101879052602481018490529051600092839283926001600160a01b039092169163136890ca91604480820192606092909190829003018186803b158015610dd657600080fd5b505afa158015610dea573d6000803e3d6000fd5b505050506040513d6060811015610e0057600080fd5b5080516020820151604090920151909450909250905080611028574285830111801561101f5760015460408051634d1687ff60e01b8152600481018b905290516000926001600160a01b031691634d1687ff916024808301926020929190829003018186803b158015610e7257600080fd5b505afa158015610e86573d6000803e3d6000fd5b505050506040513d6020811015610e9c57600080fd5b505160015460408051632172632960e11b8152600481018d905290519293506000926001600160a01b03909216916342e4c65291602480820192602092909190829003018186803b158015610ef057600080fd5b505afa158015610f04573d6000803e3d6000fd5b505050506040513d6020811015610f1a57600080fd5b50516001546040805163755c0beb60e01b8152600481018e905290519293506000926001600160a01b039092169163755c0beb91602480820192602092909190829003018186803b158015610f6e57600080fd5b505afa158015610f82573d6000803e3d6000fd5b505050506040513d6020811015610f9857600080fd5b50519050610fa98184303386611730565b6001805460408051637a94c56560e11b8152336004820152602481018f90526044810193909352516001600160a01b039091169163f5298aca91606480830192600092919082900301818387803b15801561100357600080fd5b505af1158015611017573d6000803e3d6000fd5b505050505050505b50505050611033565b505050600101610d74565b50505050565b600154604080516331a9108f60e11b815260048101849052905130926001600160a01b031691636352211e916024808301926020929190829003018186803b15801561108457600080fd5b505afa158015611098573d6000803e3d6000fd5b505050506040513d60208110156110ae57600080fd5b50516001600160a01b031614611102576040805162461bcd60e51b81526020600482015260146024820152732637b0b71030b63932b0b23c90333ab73232b21760611b604482015290519081900360640190fd5b60015460408051634d1687ff60e01b81526004810184905290516000926001600160a01b031691634d1687ff916024808301926020929190829003018186803b15801561114e57600080fd5b505afa158015611162573d6000803e3d6000fd5b505050506040513d602081101561117857600080fd5b505160015460408051632172632960e11b81526004810186905290519293506000926001600160a01b03909216916342e4c65291602480820192602092909190829003018186803b1580156111cc57600080fd5b505afa1580156111e0573d6000803e3d6000fd5b505050506040513d60208110156111f657600080fd5b50516001546040805163755c0beb60e01b81526004810187905290519293506000926001600160a01b039092169163755c0beb91602480820192602092909190829003018186803b15801561124a57600080fd5b505afa15801561125e573d6000803e3d6000fd5b505050506040513d602081101561127457600080fd5b505190506112858184333086611730565b60015460408051630505b3fd60e11b81526004810187905290516001600160a01b0390921691630a0b67fa9160248082019260009290919082900301818387803b1580156112d257600080fd5b505af11580156112e6573d6000803e3d6000fd5b50506001805460408051637921219560e11b8152306004820152336024820152604481018a9052606481019390935260a06084840152600060a4840181905290516001600160a01b03909216945063f242432a935060e48084019391929182900301818387803b15801561135957600080fd5b505af115801561136d573d6000803e3d6000fd5b5050505050505050565b6000546001600160a01b031681565b5050565b63bc197c8160e01b98975050505050505050565b80518251146113de5760405162461bcd60e51b8152600401808060200182810382526021815260200180611a246021913960400191505060405180910390fd5b6000546040805160018082528183019092526001600160a01b039092169160609160208083019080388339019050509050308160008151811061141d57fe5b6001600160a01b039283166020918202929092018101919091526040805163cc10e40160e01b815260016024820152600481018290526000604482018190529151919386169263cc10e4019260848084019382900301818787803b15801561148457600080fd5b505af1158015611498573d6000803e3d6000fd5b505050506040513d60208110156114ae57600080fd5b505160405163349787c560e21b8152600481018281526080602483019081528551608484015285519394506000936001600160a01b0388169363d25e1f149387938993919290916044820191606481019160a490910190602087810191028083838e5b83811015611529578181015183820152602001611511565b5050505090500184810383526000815260200160200184810382526000815260200160200195505050505050602060405180830381600087803b15801561156f57600080fd5b505af1158015611583573d6000803e3d6000fd5b505050506040513d602081101561159957600080fd5b81019080805190602001909291905050509050600160009054906101000a90046001600160a01b03166001600160a01b031663d81ffd4482338e8e8e8e8e8e8e6040518a63ffffffff1660e01b8152600401808a8152602001896001600160a01b03166001600160a01b03168152602001886001600160a01b03166001600160a01b03168152602001878152602001868152602001856001600160a01b03166001600160a01b031681526020018481526020018060200180602001838103835285818151815260200191508051906020019060200280838360005b8381101561168c578181015183820152602001611674565b50505050905001838103825284818151815260200191508051906020019060200280838360005b838110156116cb5781810151838201526020016116b3565b505050509050019b505050505050505050505050600060405180830381600087803b1580156116f957600080fd5b505af115801561170d573d6000803e3d6000fd5b505050505050505050505050505050565b63f23a6e6160e01b9695505050505050565b84610bb657610bb66001600160a01b03851684848463ffffffff61175016565b604080516001600160a01b0385811660248301528416604482015260648082018490528251808303909101815260849091019091526020810180516001600160e01b03166323b872dd60e01b17905261103390859060606117fa826040518060400160405280602081526020017f5361666545524332303a206c6f772d6c6576656c2063616c6c206661696c6564815250856001600160a01b031661185b9092919063ffffffff16565b8051909150156118565780806020019051602081101561181957600080fd5b50516118565760405162461bcd60e51b815260040180806020018281038252602a815260200180611a68602a913960400191505060405180910390fd5b505050565b606061186a8484600085611872565b949350505050565b606061187d85611a1d565b6118ce576040805162461bcd60e51b815260206004820152601d60248201527f416464726573733a2063616c6c20746f206e6f6e2d636f6e7472616374000000604482015290519081900360640190fd5b60006060866001600160a01b031685876040518082805190602001908083835b6020831061190d5780518252601f1990920191602091820191016118ee565b6001836020036101000a03801982511681845116808217855250505050505090500191505060006040518083038185875af1925050503d806000811461196f576040519150601f19603f3d011682016040523d82523d6000602084013e611974565b606091505b5091509150811561198857915061186a9050565b8051156119985780518082602001fd5b8360405162461bcd60e51b81526004018080602001828103825283818151815260200191508051906020019080838360005b838110156119e25781810151838201526020016119ca565b50505050905090810190601f168015611a0f5780820380516001836020036101000a031916815260200191505b509250505060405180910390fd5b3b15159056fe416d6f756e747320616e6420446561646c696e657320646f6e74206d617463682e4f6e6c79206c6f616e206f776e65722063616e2074656d72696e617465206c6f616e2e5361666545524332303a204552433230206f7065726174696f6e20646964206e6f742073756363656564a265627a7a723158206256cec1f515c4c27925bb0bb292e7c347952f14aeac63f604b77054991cfc7164736f6c634300050f0032",
  "source": "// SPDX-License-Identifier: MIT\r\npragma solidity 0.5.15;\r\n\r\nimport \"../../../decentracraft-contracts/contracts/DecentracraftWorld.sol\";\r\nimport \"../../../decentracraft-contracts/contracts/DecentracraftCrafter.sol\";\r\nimport \"../../../decentracraft-contracts/contracts/IERC1155TokenReceiver.sol\";\r\nimport \"./EPDebtNFT.sol\";\r\n// import \"../lib/SafeERC20.sol\";\r\nimport \"../../../decentracraft-contracts/contracts/SafeERC20.sol\";\r\n\r\nlibrary Math {\r\n    /**\r\n     * @dev Returns the largest of two numbers.\r\n     */\r\n    function max(uint256 a, uint256 b) internal pure returns (uint256) {\r\n        return a >= b ? a : b;\r\n    }\r\n\r\n    /**\r\n     * @dev Returns the smallest of two numbers.\r\n     */\r\n    function min(uint256 a, uint256 b) internal pure returns (uint256) {\r\n        return a < b ? a : b;\r\n    }\r\n\r\n    /**\r\n     * @dev Returns the average of two numbers. The result is rounded towards\r\n     * zero.\r\n     */\r\n    function average(uint256 a, uint256 b) internal pure returns (uint256) {\r\n        // (a + b) / 2 can overflow, so we distribute\r\n        return (a / 2) + (b / 2) + ((a % 2 + b % 2) / 2);\r\n    }\r\n}\r\n\r\n\r\n\r\ncontract EPDebtCrafter is DecentracraftCrafter, ERC1155TokenReceiver {\r\n    using SafeERC20 for IERC20;\r\n\r\n    EPDebtNFT public epDebtNFT;\r\n\r\n    constructor(address payable _epDebtNFT) public {\r\n        epDebtNFT = EPDebtNFT(_epDebtNFT);\r\n    }\r\n\r\n    function __callback(bytes32 _queryId, uint256 _rng) public ownerOnly{        \r\n    } \r\n\r\n    function onERC1155Received(address _operator, address _from, uint256 _id, uint256 _value, bytes calldata _data) external returns(bytes4){\r\n        return 0xf23a6e61; // bytes4(keccak256(\"onERC1155Received(address,address,uint256,uint256,bytes)\"))\r\n    }\r\n\r\n    function onERC1155BatchReceived(address _operator, address _from, uint256[] calldata _ids, uint256[] calldata _values, bytes calldata _data) external returns(bytes4){\r\n        return 0xbc197c81; // bytes4(keccak256(\"onERC1155BatchReceived(address,address,uint256[],uint256[],bytes)\"))\r\n    }\r\n\r\n    function transfer(uint _tokenType, address _token, address _from, address _to, uint256 _value) private {\r\n        if(_tokenType == 0){            \r\n            IERC20(_token).safeTransferFrom(_from, _to, _value);\r\n        }\r\n    }\r\n\r\n    function createDebt(address _borrowedAsset, uint256 _borrowedAmount, uint _borrowedAssetType, \r\n                            address _paymentAsset, uint _paymentAssetType, uint256[] memory _amounts, uint256[] memory _deadlines) public {\r\n        require(_amounts.length == _deadlines.length, \"Amounts and Deadlines dont match.\"); \r\n\r\n        DecentracraftWorld dccworld = DecentracraftWorld(address(uint160(owner)));\r\n\r\n        address[] memory playersaddresses= new address[](1);\r\n        playersaddresses[0] = address(this);     \r\n\r\n        uint256 nfttype = dccworld.create(\"\", true);\r\n        uint256 nftid = dccworld.craft(nfttype, playersaddresses, \"\", \"\");\r\n        epDebtNFT.setLoanInfo(nftid, msg.sender, _borrowedAsset, _borrowedAmount, _borrowedAssetType, \r\n                            _paymentAsset, _paymentAssetType, _amounts, _deadlines);\r\n    }\r\n\r\n    function fundLoan(uint256 _id) public payable {\r\n        require(epDebtNFT.ownerOf(_id) == address(this), \"Loan already funded.\"); \r\n\r\n        address borrowedasset = epDebtNFT.getBorrowedAsset(_id);\r\n        uint256 borrowedamount = epDebtNFT.getBorrowedAmount(_id);\r\n        uint borrowedassettype = epDebtNFT.getBorrowedAssetType(_id);\r\n        \r\n        //IERC20(borrowedasset).safeTransferFrom(msg.sender, address(this), borrowedamount);\r\n        transfer(borrowedassettype, borrowedasset, msg.sender, address(this), borrowedamount);\r\n\r\n        epDebtNFT.loanFunded(_id);\r\n\r\n        epDebtNFT.safeTransferFrom(address(this), msg.sender, _id, 1, \"\");\r\n    }\r\n\r\n    function payNextInstallment(uint256 _id) public payable {\r\n        require(epDebtNFT.ownerOf(_id) != address(this), \"Loan not funded yet.\"); \r\n\r\n        address paymentasset = epDebtNFT.getPaymentAsset(_id);\r\n        uint paymentassettype = epDebtNFT.getPaymentAssetType(_id);\r\n        uint installmentscount = epDebtNFT.getInstallmentsCount(_id);\r\n        \r\n        for(uint i = 0; i < installmentscount; i++){\r\n            (uint256 amount, uint256 deadline, bool paid) = epDebtNFT.getInstallment(_id, i);\r\n            if(!paid){\r\n                //IERC20(paymentasset).safeTransferFrom(msg.sender, epDebtNFT.ownerOf(_id), amount);\r\n                transfer(paymentassettype, paymentasset, msg.sender, epDebtNFT.ownerOf(_id), amount);\r\n                epDebtNFT.installmentPaid(_id, i);\r\n\r\n                //If last installment, fulfill loan\r\n                if(i+1 == installmentscount){\r\n                    address borrowedasset = epDebtNFT.getBorrowedAsset(_id);\r\n                    uint256 borrowedamount = epDebtNFT.getBorrowedAmount(_id);\r\n                    uint borrowedassettype = epDebtNFT.getBorrowedAssetType(_id);\r\n                    address borrower = epDebtNFT.getBorrower(_id);\r\n\r\n                    //IERC20(borrowedasset).safeTransferFrom(address(this), borrower, borrowedamount);\r\n                    transfer(borrowedassettype, borrowedasset, address(this), borrower, borrowedamount);\r\n\r\n                    epDebtNFT.burn(msg.sender, _id, 1);\r\n                }\r\n                break;\r\n            }\r\n        }\r\n    }\r\n\r\n    function terminateLoan(uint256 _id) public payable {\r\n        require(epDebtNFT.ownerOf(_id) == msg.sender, \"Only loan owner can temrinate loan.\"); \r\n\r\n        uint installmentscount = epDebtNFT.getInstallmentsCount(_id);\r\n        uint starttime = epDebtNFT.getStartTime(_id);        \r\n        \r\n        for(uint i = 0; i < installmentscount; i++){\r\n            (uint256 amount, uint256 deadline, bool paid) = epDebtNFT.getInstallment(_id, i);\r\n            if(!paid){\r\n                bool deadline_passed = (starttime + deadline) > block.timestamp;\r\n                if(deadline_passed){\r\n                    address borrowedasset = epDebtNFT.getBorrowedAsset(_id);\r\n                    uint256 borrowedamount = epDebtNFT.getBorrowedAmount(_id);\r\n                    uint borrowedassettype = epDebtNFT.getBorrowedAssetType(_id);\r\n                    //IERC20(borrowedasset).safeTransferFrom(address(this), msg.sender, borrowedamount);\r\n                    transfer(borrowedassettype, borrowedasset,address(this),  msg.sender, borrowedamount);\r\n                    epDebtNFT.burn(msg.sender, _id, 1);\r\n                }\r\n                break;\r\n            }\r\n        }\r\n    }\r\n\r\n}\r\n",
  "sourcePath": "/mnt/c/Kiko/MyProjects/Blockchain/Decentraland/etherpay/contracts/token/EPDebtCrafter.sol",
  "compiler": {
    "name": "solc",
    "version": "0.5.15+commit.6a57276f.Emscripten.clang"
  },
  "schemaVersion": "3.3.2",
  "updatedAt": "2021-02-02T06:57:25.082Z",
  "networkType": "ethereum",
  "devdoc": {
    "methods": {}
  },
  "userdoc": {
    "methods": {}
  }
}