{
  "contractName": "EPDebtNFT",
  "abi": [
    {
      "inputs": [],
      "payable": false,
      "stateMutability": "nonpayable",
      "type": "constructor"
    },
    {
      "anonymous": false,
      "inputs": [
        {
          "indexed": true,
          "internalType": "address",
          "name": "_owner",
          "type": "address"
        },
        {
          "indexed": true,
          "internalType": "address",
          "name": "_operator",
          "type": "address"
        },
        {
          "indexed": false,
          "internalType": "bool",
          "name": "_approved",
          "type": "bool"
        }
      ],
      "name": "ApprovalForAll",
      "type": "event"
    },
    {
      "anonymous": false,
      "inputs": [
        {
          "indexed": false,
          "internalType": "uint256",
          "name": "_id",
          "type": "uint256"
        }
      ],
      "name": "IDCreated",
      "type": "event"
    },
    {
      "anonymous": false,
      "inputs": [
        {
          "indexed": false,
          "internalType": "address",
          "name": "bouncer",
          "type": "address"
        },
        {
          "indexed": false,
          "internalType": "bool",
          "name": "enabled",
          "type": "bool"
        }
      ],
      "name": "Minter",
      "type": "event"
    },
    {
      "anonymous": false,
      "inputs": [
        {
          "indexed": true,
          "internalType": "address",
          "name": "_operator",
          "type": "address"
        },
        {
          "indexed": true,
          "internalType": "address",
          "name": "_from",
          "type": "address"
        },
        {
          "indexed": true,
          "internalType": "address",
          "name": "_to",
          "type": "address"
        },
        {
          "indexed": false,
          "internalType": "uint256[]",
          "name": "_ids",
          "type": "uint256[]"
        },
        {
          "indexed": false,
          "internalType": "uint256[]",
          "name": "_values",
          "type": "uint256[]"
        }
      ],
      "name": "TransferBatch",
      "type": "event"
    },
    {
      "anonymous": false,
      "inputs": [
        {
          "indexed": true,
          "internalType": "address",
          "name": "_operator",
          "type": "address"
        },
        {
          "indexed": true,
          "internalType": "address",
          "name": "_from",
          "type": "address"
        },
        {
          "indexed": true,
          "internalType": "address",
          "name": "_to",
          "type": "address"
        },
        {
          "indexed": false,
          "internalType": "uint256",
          "name": "_id",
          "type": "uint256"
        },
        {
          "indexed": false,
          "internalType": "uint256",
          "name": "_value",
          "type": "uint256"
        }
      ],
      "name": "TransferSingle",
      "type": "event"
    },
    {
      "anonymous": false,
      "inputs": [
        {
          "indexed": false,
          "internalType": "string",
          "name": "_value",
          "type": "string"
        },
        {
          "indexed": true,
          "internalType": "uint256",
          "name": "_id",
          "type": "uint256"
        }
      ],
      "name": "URI",
      "type": "event"
    },
    {
      "payable": true,
      "stateMutability": "payable",
      "type": "fallback"
    },
    {
      "constant": true,
      "inputs": [
        {
          "internalType": "address",
          "name": "_owner",
          "type": "address"
        },
        {
          "internalType": "uint256",
          "name": "_id",
          "type": "uint256"
        }
      ],
      "name": "balanceOf",
      "outputs": [
        {
          "internalType": "uint256",
          "name": "",
          "type": "uint256"
        }
      ],
      "payable": false,
      "stateMutability": "view",
      "type": "function"
    },
    {
      "constant": true,
      "inputs": [
        {
          "internalType": "address[]",
          "name": "_owners",
          "type": "address[]"
        },
        {
          "internalType": "uint256[]",
          "name": "_ids",
          "type": "uint256[]"
        }
      ],
      "name": "balanceOfBatch",
      "outputs": [
        {
          "internalType": "uint256[]",
          "name": "",
          "type": "uint256[]"
        }
      ],
      "payable": false,
      "stateMutability": "view",
      "type": "function"
    },
    {
      "constant": false,
      "inputs": [
        {
          "internalType": "address",
          "name": "account",
          "type": "address"
        },
        {
          "internalType": "uint256[]",
          "name": "ids",
          "type": "uint256[]"
        },
        {
          "internalType": "uint256[]",
          "name": "amounts",
          "type": "uint256[]"
        }
      ],
      "name": "burnBatch",
      "outputs": [],
      "payable": false,
      "stateMutability": "nonpayable",
      "type": "function"
    },
    {
      "constant": true,
      "inputs": [],
      "name": "contractURI",
      "outputs": [
        {
          "internalType": "string",
          "name": "",
          "type": "string"
        }
      ],
      "payable": false,
      "stateMutability": "view",
      "type": "function"
    },
    {
      "constant": true,
      "inputs": [],
      "name": "contracturi",
      "outputs": [
        {
          "internalType": "string",
          "name": "",
          "type": "string"
        }
      ],
      "payable": false,
      "stateMutability": "view",
      "type": "function"
    },
    {
      "constant": true,
      "inputs": [],
      "name": "crafter",
      "outputs": [
        {
          "internalType": "address",
          "name": "",
          "type": "address"
        }
      ],
      "payable": false,
      "stateMutability": "view",
      "type": "function"
    },
    {
      "constant": false,
      "inputs": [
        {
          "internalType": "string",
          "name": "_uri",
          "type": "string"
        },
        {
          "internalType": "bool",
          "name": "_isNF",
          "type": "bool"
        }
      ],
      "name": "create",
      "outputs": [
        {
          "internalType": "uint256",
          "name": "_type",
          "type": "uint256"
        }
      ],
      "payable": false,
      "stateMutability": "nonpayable",
      "type": "function"
    },
    {
      "constant": true,
      "inputs": [],
      "name": "getItemIDsLength",
      "outputs": [
        {
          "internalType": "uint256",
          "name": "",
          "type": "uint256"
        }
      ],
      "payable": false,
      "stateMutability": "view",
      "type": "function"
    },
    {
      "constant": true,
      "inputs": [
        {
          "internalType": "uint256",
          "name": "_id",
          "type": "uint256"
        }
      ],
      "name": "getNonFungibleBaseType",
      "outputs": [
        {
          "internalType": "uint256",
          "name": "",
          "type": "uint256"
        }
      ],
      "payable": false,
      "stateMutability": "pure",
      "type": "function"
    },
    {
      "constant": true,
      "inputs": [
        {
          "internalType": "uint256",
          "name": "_id",
          "type": "uint256"
        }
      ],
      "name": "getNonFungibleIndex",
      "outputs": [
        {
          "internalType": "uint256",
          "name": "",
          "type": "uint256"
        }
      ],
      "payable": false,
      "stateMutability": "pure",
      "type": "function"
    },
    {
      "constant": true,
      "inputs": [
        {
          "internalType": "address",
          "name": "_owner",
          "type": "address"
        },
        {
          "internalType": "address",
          "name": "_operator",
          "type": "address"
        }
      ],
      "name": "isApprovedForAll",
      "outputs": [
        {
          "internalType": "bool",
          "name": "",
          "type": "bool"
        }
      ],
      "payable": false,
      "stateMutability": "view",
      "type": "function"
    },
    {
      "constant": true,
      "inputs": [
        {
          "internalType": "uint256",
          "name": "_id",
          "type": "uint256"
        }
      ],
      "name": "isFungible",
      "outputs": [
        {
          "internalType": "bool",
          "name": "",
          "type": "bool"
        }
      ],
      "payable": false,
      "stateMutability": "pure",
      "type": "function"
    },
    {
      "constant": true,
      "inputs": [
        {
          "internalType": "address",
          "name": "who",
          "type": "address"
        }
      ],
      "name": "isMinter",
      "outputs": [
        {
          "internalType": "bool",
          "name": "",
          "type": "bool"
        }
      ],
      "payable": false,
      "stateMutability": "view",
      "type": "function"
    },
    {
      "constant": true,
      "inputs": [
        {
          "internalType": "uint256",
          "name": "_id",
          "type": "uint256"
        }
      ],
      "name": "isNonFungible",
      "outputs": [
        {
          "internalType": "bool",
          "name": "",
          "type": "bool"
        }
      ],
      "payable": false,
      "stateMutability": "pure",
      "type": "function"
    },
    {
      "constant": true,
      "inputs": [
        {
          "internalType": "uint256",
          "name": "_id",
          "type": "uint256"
        }
      ],
      "name": "isNonFungibleBaseType",
      "outputs": [
        {
          "internalType": "bool",
          "name": "",
          "type": "bool"
        }
      ],
      "payable": false,
      "stateMutability": "pure",
      "type": "function"
    },
    {
      "constant": true,
      "inputs": [
        {
          "internalType": "uint256",
          "name": "_id",
          "type": "uint256"
        }
      ],
      "name": "isNonFungibleItem",
      "outputs": [
        {
          "internalType": "bool",
          "name": "",
          "type": "bool"
        }
      ],
      "payable": false,
      "stateMutability": "pure",
      "type": "function"
    },
    {
      "constant": true,
      "inputs": [
        {
          "internalType": "uint256",
          "name": "",
          "type": "uint256"
        }
      ],
      "name": "itemIDs",
      "outputs": [
        {
          "internalType": "uint256",
          "name": "",
          "type": "uint256"
        }
      ],
      "payable": false,
      "stateMutability": "view",
      "type": "function"
    },
    {
      "constant": true,
      "inputs": [
        {
          "internalType": "uint256",
          "name": "",
          "type": "uint256"
        }
      ],
      "name": "loansInfo",
      "outputs": [
        {
          "internalType": "uint256",
          "name": "startTime",
          "type": "uint256"
        },
        {
          "internalType": "uint256",
          "name": "installmentsCount",
          "type": "uint256"
        },
        {
          "internalType": "address",
          "name": "borrower",
          "type": "address"
        },
        {
          "internalType": "address",
          "name": "borrowedAsset",
          "type": "address"
        },
        {
          "internalType": "uint256",
          "name": "borrowedAmount",
          "type": "uint256"
        },
        {
          "internalType": "uint256",
          "name": "borrowedAssetType",
          "type": "uint256"
        },
        {
          "internalType": "bool",
          "name": "loanFunded",
          "type": "bool"
        },
        {
          "internalType": "address",
          "name": "paymentAsset",
          "type": "address"
        },
        {
          "internalType": "uint256",
          "name": "paymentAssetType",
          "type": "uint256"
        }
      ],
      "payable": false,
      "stateMutability": "view",
      "type": "function"
    },
    {
      "constant": true,
      "inputs": [
        {
          "internalType": "uint256",
          "name": "",
          "type": "uint256"
        }
      ],
      "name": "maxIndex",
      "outputs": [
        {
          "internalType": "uint256",
          "name": "",
          "type": "uint256"
        }
      ],
      "payable": false,
      "stateMutability": "view",
      "type": "function"
    },
    {
      "constant": false,
      "inputs": [
        {
          "internalType": "uint256",
          "name": "_id",
          "type": "uint256"
        },
        {
          "internalType": "address[]",
          "name": "_to",
          "type": "address[]"
        },
        {
          "internalType": "uint256[]",
          "name": "_quantities",
          "type": "uint256[]"
        }
      ],
      "name": "mintFungible",
      "outputs": [],
      "payable": false,
      "stateMutability": "nonpayable",
      "type": "function"
    },
    {
      "constant": false,
      "inputs": [
        {
          "internalType": "uint256",
          "name": "_type",
          "type": "uint256"
        },
        {
          "internalType": "address[]",
          "name": "_to",
          "type": "address[]"
        },
        {
          "internalType": "string",
          "name": "_uri",
          "type": "string"
        },
        {
          "internalType": "string",
          "name": "_attributesJSON",
          "type": "string"
        }
      ],
      "name": "mintNonFungible",
      "outputs": [
        {
          "internalType": "uint256",
          "name": "_id",
          "type": "uint256"
        }
      ],
      "payable": true,
      "stateMutability": "payable",
      "type": "function"
    },
    {
      "constant": true,
      "inputs": [],
      "name": "name",
      "outputs": [
        {
          "internalType": "string",
          "name": "",
          "type": "string"
        }
      ],
      "payable": false,
      "stateMutability": "view",
      "type": "function"
    },
    {
      "constant": true,
      "inputs": [
        {
          "internalType": "uint256",
          "name": "",
          "type": "uint256"
        }
      ],
      "name": "nfOwners",
      "outputs": [
        {
          "internalType": "address",
          "name": "",
          "type": "address"
        }
      ],
      "payable": false,
      "stateMutability": "view",
      "type": "function"
    },
    {
      "constant": true,
      "inputs": [],
      "name": "owner",
      "outputs": [
        {
          "internalType": "address",
          "name": "",
          "type": "address"
        }
      ],
      "payable": false,
      "stateMutability": "view",
      "type": "function"
    },
    {
      "constant": true,
      "inputs": [
        {
          "internalType": "uint256",
          "name": "_id",
          "type": "uint256"
        }
      ],
      "name": "ownerOf",
      "outputs": [
        {
          "internalType": "address",
          "name": "",
          "type": "address"
        }
      ],
      "payable": false,
      "stateMutability": "view",
      "type": "function"
    },
    {
      "constant": false,
      "inputs": [
        {
          "internalType": "address",
          "name": "_from",
          "type": "address"
        },
        {
          "internalType": "address",
          "name": "_to",
          "type": "address"
        },
        {
          "internalType": "uint256[]",
          "name": "_ids",
          "type": "uint256[]"
        },
        {
          "internalType": "uint256[]",
          "name": "_values",
          "type": "uint256[]"
        },
        {
          "internalType": "bytes",
          "name": "_data",
          "type": "bytes"
        }
      ],
      "name": "safeBatchTransferFrom",
      "outputs": [],
      "payable": false,
      "stateMutability": "nonpayable",
      "type": "function"
    },
    {
      "constant": false,
      "inputs": [
        {
          "internalType": "address",
          "name": "_from",
          "type": "address"
        },
        {
          "internalType": "address",
          "name": "_to",
          "type": "address"
        },
        {
          "internalType": "uint256",
          "name": "_id",
          "type": "uint256"
        },
        {
          "internalType": "uint256",
          "name": "_value",
          "type": "uint256"
        },
        {
          "internalType": "bytes",
          "name": "_data",
          "type": "bytes"
        }
      ],
      "name": "safeTransferFrom",
      "outputs": [],
      "payable": false,
      "stateMutability": "nonpayable",
      "type": "function"
    },
    {
      "constant": false,
      "inputs": [
        {
          "internalType": "address",
          "name": "_operator",
          "type": "address"
        },
        {
          "internalType": "bool",
          "name": "_approved",
          "type": "bool"
        }
      ],
      "name": "setApprovalForAll",
      "outputs": [],
      "payable": false,
      "stateMutability": "nonpayable",
      "type": "function"
    },
    {
      "constant": false,
      "inputs": [
        {
          "internalType": "string",
          "name": "_contracturi",
          "type": "string"
        }
      ],
      "name": "setContractURI",
      "outputs": [],
      "payable": false,
      "stateMutability": "nonpayable",
      "type": "function"
    },
    {
      "constant": false,
      "inputs": [
        {
          "internalType": "uint256",
          "name": "_id",
          "type": "uint256"
        },
        {
          "internalType": "string",
          "name": "_jsonHash",
          "type": "string"
        }
      ],
      "name": "setDCIJSONHash",
      "outputs": [],
      "payable": false,
      "stateMutability": "nonpayable",
      "type": "function"
    },
    {
      "constant": false,
      "inputs": [
        {
          "internalType": "address",
          "name": "minter",
          "type": "address"
        },
        {
          "internalType": "bool",
          "name": "enabled",
          "type": "bool"
        }
      ],
      "name": "setMinter",
      "outputs": [],
      "payable": false,
      "stateMutability": "nonpayable",
      "type": "function"
    },
    {
      "constant": false,
      "inputs": [
        {
          "internalType": "address",
          "name": "_owner",
          "type": "address"
        }
      ],
      "name": "setOwner",
      "outputs": [],
      "payable": false,
      "stateMutability": "nonpayable",
      "type": "function"
    },
    {
      "constant": false,
      "inputs": [
        {
          "internalType": "string",
          "name": "_tokenbaseuri",
          "type": "string"
        }
      ],
      "name": "setTokenBaseURI",
      "outputs": [],
      "payable": false,
      "stateMutability": "nonpayable",
      "type": "function"
    },
    {
      "constant": true,
      "inputs": [
        {
          "internalType": "bytes4",
          "name": "_interfaceId",
          "type": "bytes4"
        }
      ],
      "name": "supportsInterface",
      "outputs": [
        {
          "internalType": "bool",
          "name": "",
          "type": "bool"
        }
      ],
      "payable": false,
      "stateMutability": "view",
      "type": "function"
    },
    {
      "constant": true,
      "inputs": [],
      "name": "symbol",
      "outputs": [
        {
          "internalType": "string",
          "name": "",
          "type": "string"
        }
      ],
      "payable": false,
      "stateMutability": "view",
      "type": "function"
    },
    {
      "constant": true,
      "inputs": [],
      "name": "tokenbaseuri",
      "outputs": [
        {
          "internalType": "string",
          "name": "",
          "type": "string"
        }
      ],
      "payable": false,
      "stateMutability": "view",
      "type": "function"
    },
    {
      "constant": true,
      "inputs": [
        {
          "internalType": "uint256",
          "name": "_id",
          "type": "uint256"
        }
      ],
      "name": "uri",
      "outputs": [
        {
          "internalType": "string",
          "name": "",
          "type": "string"
        }
      ],
      "payable": false,
      "stateMutability": "view",
      "type": "function"
    },
    {
      "constant": true,
      "inputs": [
        {
          "internalType": "uint256",
          "name": "",
          "type": "uint256"
        }
      ],
      "name": "uriMap",
      "outputs": [
        {
          "internalType": "string",
          "name": "",
          "type": "string"
        }
      ],
      "payable": false,
      "stateMutability": "view",
      "type": "function"
    },
    {
      "constant": false,
      "inputs": [],
      "name": "withdraw",
      "outputs": [],
      "payable": false,
      "stateMutability": "nonpayable",
      "type": "function"
    },
    {
      "constant": false,
      "inputs": [
        {
          "internalType": "address",
          "name": "account",
          "type": "address"
        },
        {
          "internalType": "uint256",
          "name": "id",
          "type": "uint256"
        },
        {
          "internalType": "uint256",
          "name": "amount",
          "type": "uint256"
        }
      ],
      "name": "burn",
      "outputs": [],
      "payable": false,
      "stateMutability": "nonpayable",
      "type": "function"
    },
    {
      "constant": false,
      "inputs": [
        {
          "internalType": "address",
          "name": "_crafter",
          "type": "address"
        }
      ],
      "name": "setCrafter",
      "outputs": [],
      "payable": false,
      "stateMutability": "nonpayable",
      "type": "function"
    },
    {
      "constant": false,
      "inputs": [
        {
          "internalType": "uint256",
          "name": "_id",
          "type": "uint256"
        },
        {
          "internalType": "address",
          "name": "_borrower",
          "type": "address"
        },
        {
          "internalType": "address",
          "name": "_borrowedAsset",
          "type": "address"
        },
        {
          "internalType": "uint256",
          "name": "_borrowedAmount",
          "type": "uint256"
        },
        {
          "internalType": "uint256",
          "name": "_borrowedAssetType",
          "type": "uint256"
        },
        {
          "internalType": "address",
          "name": "_paymentAsset",
          "type": "address"
        },
        {
          "internalType": "uint256",
          "name": "_paymentAssetType",
          "type": "uint256"
        },
        {
          "internalType": "uint256[]",
          "name": "_amounts",
          "type": "uint256[]"
        },
        {
          "internalType": "uint256[]",
          "name": "_deadlines",
          "type": "uint256[]"
        }
      ],
      "name": "setLoanInfo",
      "outputs": [],
      "payable": false,
      "stateMutability": "nonpayable",
      "type": "function"
    },
    {
      "constant": false,
      "inputs": [
        {
          "internalType": "uint256",
          "name": "_id",
          "type": "uint256"
        }
      ],
      "name": "loanFunded",
      "outputs": [],
      "payable": false,
      "stateMutability": "nonpayable",
      "type": "function"
    },
    {
      "constant": false,
      "inputs": [
        {
          "internalType": "uint256",
          "name": "_id",
          "type": "uint256"
        },
        {
          "internalType": "uint256",
          "name": "_installmentIndex",
          "type": "uint256"
        }
      ],
      "name": "installmentPaid",
      "outputs": [],
      "payable": false,
      "stateMutability": "nonpayable",
      "type": "function"
    },
    {
      "constant": true,
      "inputs": [
        {
          "internalType": "uint256",
          "name": "_id",
          "type": "uint256"
        },
        {
          "internalType": "uint256",
          "name": "_installmentIndex",
          "type": "uint256"
        }
      ],
      "name": "getInstallment",
      "outputs": [
        {
          "internalType": "uint256",
          "name": "amount",
          "type": "uint256"
        },
        {
          "internalType": "uint256",
          "name": "deadline",
          "type": "uint256"
        },
        {
          "internalType": "bool",
          "name": "paid",
          "type": "bool"
        }
      ],
      "payable": false,
      "stateMutability": "view",
      "type": "function"
    },
    {
      "constant": true,
      "inputs": [
        {
          "internalType": "uint256",
          "name": "_id",
          "type": "uint256"
        }
      ],
      "name": "getStartTime",
      "outputs": [
        {
          "internalType": "uint256",
          "name": "",
          "type": "uint256"
        }
      ],
      "payable": false,
      "stateMutability": "view",
      "type": "function"
    },
    {
      "constant": true,
      "inputs": [
        {
          "internalType": "uint256",
          "name": "_id",
          "type": "uint256"
        }
      ],
      "name": "getInstallmentsCount",
      "outputs": [
        {
          "internalType": "uint256",
          "name": "",
          "type": "uint256"
        }
      ],
      "payable": false,
      "stateMutability": "view",
      "type": "function"
    },
    {
      "constant": true,
      "inputs": [
        {
          "internalType": "uint256",
          "name": "_id",
          "type": "uint256"
        }
      ],
      "name": "getBorrower",
      "outputs": [
        {
          "internalType": "address",
          "name": "",
          "type": "address"
        }
      ],
      "payable": false,
      "stateMutability": "view",
      "type": "function"
    },
    {
      "constant": true,
      "inputs": [
        {
          "internalType": "uint256",
          "name": "_id",
          "type": "uint256"
        }
      ],
      "name": "getBorrowedAsset",
      "outputs": [
        {
          "internalType": "address",
          "name": "",
          "type": "address"
        }
      ],
      "payable": false,
      "stateMutability": "view",
      "type": "function"
    },
    {
      "constant": true,
      "inputs": [
        {
          "internalType": "uint256",
          "name": "_id",
          "type": "uint256"
        }
      ],
      "name": "getBorrowedAmount",
      "outputs": [
        {
          "internalType": "uint256",
          "name": "",
          "type": "uint256"
        }
      ],
      "payable": false,
      "stateMutability": "view",
      "type": "function"
    },
    {
      "constant": true,
      "inputs": [
        {
          "internalType": "uint256",
          "name": "_id",
          "type": "uint256"
        }
      ],
      "name": "getLoanFunded",
      "outputs": [
        {
          "internalType": "bool",
          "name": "",
          "type": "bool"
        }
      ],
      "payable": false,
      "stateMutability": "view",
      "type": "function"
    },
    {
      "constant": true,
      "inputs": [
        {
          "internalType": "uint256",
          "name": "_id",
          "type": "uint256"
        }
      ],
      "name": "getPaymentAsset",
      "outputs": [
        {
          "internalType": "address",
          "name": "",
          "type": "address"
        }
      ],
      "payable": false,
      "stateMutability": "view",
      "type": "function"
    },
    {
      "constant": true,
      "inputs": [
        {
          "internalType": "uint256",
          "name": "_id",
          "type": "uint256"
        }
      ],
      "name": "getPaymentAssetType",
      "outputs": [
        {
          "internalType": "uint256",
          "name": "",
          "type": "uint256"
        }
      ],
      "payable": false,
      "stateMutability": "view",
      "type": "function"
    },
    {
      "constant": true,
      "inputs": [
        {
          "internalType": "uint256",
          "name": "_id",
          "type": "uint256"
        }
      ],
      "name": "getBorrowedAssetType",
      "outputs": [
        {
          "internalType": "uint256",
          "name": "",
          "type": "uint256"
        }
      ],
      "payable": false,
      "stateMutability": "view",
      "type": "function"
    }
  ],
  "bytecode": "0x60806040523480156200001157600080fd5b50600080546001600160a01b0319163317905560408051808201909152601180825270115d1a195c94185e481119589d08139195607a1b60209092019182526200005e91600691620000f6565b5060408051808201909152600580825264115411109560da1b60209092019182526200008d91600791620000f6565b5060405180606001604052806033815260200162004077603391398051620000be91600891602090910190620000f6565b50604051806060016040528060288152602001620040aa602891398051620000ef91600991602090910190620000f6565b506200019b565b828054600181600116156101000203166002900490600052602060002090601f016020900481019282601f106200013957805160ff191683800117855562000169565b8280016001018555821562000169579182015b82811115620001695782518255916020019190600101906200014c565b50620001779291506200017b565b5090565b6200019891905b8082111562000177576000815560010162000182565b90565b613ecc80620001ab6000396000f3fe6080604052600436106103335760003560e01c80638480e99f116101ab578063b59230c5116100f7578063d81ffd4411610095578063e8a3d4851161006f578063e8a3d4851461155d578063e985e9c514611572578063f242432a146115ad578063f5298aca1461164d57610333565b8063d81ffd441461139e578063dd2eb9f314611509578063e44591f01461153357610333565b8063bee674ee116100d1578063bee674ee1461107d578063cbd74958146110fe578063cc10e401146112b0578063cf456ae71461136357610333565b8063b59230c514610f71578063b922faf014611029578063bc2be1be1461105357610333565b806395d89b4111610164578063a22cb4651161013e578063a22cb46514610eaf578063a836f30714610eea578063aa271e1a14610f14578063adebf6f214610f4757610333565b806395d89b4114610e5b57806399419e7e14610e705780639cca1c6414610e8557610333565b80638480e99f14610c605780638500d91914610c905780638da5cb5b14610cba5780638ef79e9114610ccf578063938e3d7b14610d8057806395d817bc14610e3157610333565b806333baa7e4116102855780635e81b958116102235780636f969c2d116101fd5780636f969c2d14610aab5780637269a32714610ad5578063755c0beb14610aff57806378b2722114610b2957610333565b80635e81b958146109175780636352211e146109415780636b20c4541461096b57610333565b806342e4c6521161025f57806342e4c652146107935780634d1687ff146107bd5780634e1273f4146107e7578063534571291461090257610333565b806333baa7e4146107215780633ccfd60b146107545780633dbf7b491461076957610333565b80630e89341c116102f257806313af4035116102cc57806313af40351461057457806321185fdf146105a75780632413a3fc146105bc5780632eb2c2d6146105ed57610333565b80630e89341c146104d05780630f7690bf146104fa578063136890ca1461052457610333565b8062f7b85f14610335578062fdd58e1461037157806301ffc9a7146103aa57806306fdde03146103f257806308d7d4691461047c5780630a0b67fa146104a6575b005b34801561034157600080fd5b5061035f6004803603602081101561035857600080fd5b503561168c565b60408051918252519081900360200190f35b34801561037d57600080fd5b5061035f6004803603604081101561039457600080fd5b506001600160a01b0381351690602001356116a4565b3480156103b657600080fd5b506103de600480360360208110156103cd57600080fd5b50356001600160e01b031916611714565b604080519115158252519081900360200190f35b3480156103fe57600080fd5b5061040761175a565b6040805160208082528351818301528351919283929083019185019080838360005b83811015610441578181015183820152602001610429565b50505050905090810190601f16801561046e5780820380516001836020036101000a031916815260200191505b509250505060405180910390f35b34801561048857600080fd5b5061035f6004803603602081101561049f57600080fd5b50356117e8565b3480156104b257600080fd5b50610333600480360360208110156104c957600080fd5b50356117fa565b3480156104dc57600080fd5b50610407600480360360208110156104f357600080fd5b5035611833565b34801561050657600080fd5b5061035f6004803603602081101561051d57600080fd5b503561191c565b34801561053057600080fd5b506105546004803603604081101561054757600080fd5b5080359060200135611931565b604080519384526020840192909252151582820152519081900360600190f35b34801561058057600080fd5b506103336004803603602081101561059757600080fd5b50356001600160a01b031661198e565b3480156105b357600080fd5b5061035f6119c0565b3480156105c857600080fd5b506105d16119c7565b604080516001600160a01b039092168252519081900360200190f35b3480156105f957600080fd5b50610333600480360360a081101561061057600080fd5b6001600160a01b038235811692602081013590911691810190606081016040820135600160201b81111561064357600080fd5b82018360208201111561065557600080fd5b803590602001918460208302840111600160201b8311171561067657600080fd5b919390929091602081019035600160201b81111561069357600080fd5b8201836020820111156106a557600080fd5b803590602001918460208302840111600160201b831117156106c657600080fd5b919390929091602081019035600160201b8111156106e357600080fd5b8201836020820111156106f557600080fd5b803590602001918460018302840111600160201b8311171561071657600080fd5b5090925090506119d6565b34801561072d57600080fd5b506103336004803603602081101561074457600080fd5b50356001600160a01b0316611df3565b34801561076057600080fd5b50610333611e26565b34801561077557600080fd5b506103de6004803603602081101561078c57600080fd5b5035611e67565b34801561079f57600080fd5b5061035f600480360360208110156107b657600080fd5b5035611e7f565b3480156107c957600080fd5b506105d1600480360360208110156107e057600080fd5b5035611e94565b3480156107f357600080fd5b506108b26004803603604081101561080a57600080fd5b810190602081018135600160201b81111561082457600080fd5b82018360208201111561083657600080fd5b803590602001918460208302840111600160201b8311171561085757600080fd5b919390929091602081019035600160201b81111561087457600080fd5b82018360208201111561088657600080fd5b803590602001918460208302840111600160201b831117156108a757600080fd5b509092509050611eb2565b60408051602080825283518183015283519192839290830191858101910280838360005b838110156108ee5781810151838201526020016108d6565b505050509050019250505060405180910390f35b34801561090e57600080fd5b50610407611fff565b34801561092357600080fd5b506103de6004803603602081101561093a57600080fd5b503561205a565b34801561094d57600080fd5b506105d16004803603602081101561096457600080fd5b503561207b565b34801561097757600080fd5b506103336004803603606081101561098e57600080fd5b6001600160a01b038235169190810190604081016020820135600160201b8111156109b857600080fd5b8201836020820111156109ca57600080fd5b803590602001918460208302840111600160201b831117156109eb57600080fd5b9190808060200260200160405190810160405280939291908181526020018383602002808284376000920191909152509295949360208101935035915050600160201b811115610a3a57600080fd5b820183602082011115610a4c57600080fd5b803590602001918460208302840111600160201b83111715610a6d57600080fd5b919080806020026020016040519081016040528093929190818152602001838360200280828437600092019190915250929550612096945050505050565b348015610ab757600080fd5b5061035f60048036036020811015610ace57600080fd5b5035612112565b348015610ae157600080fd5b506103de60048036036020811015610af857600080fd5b5035612128565b348015610b0b57600080fd5b5061035f60048036036020811015610b2257600080fd5b5035612148565b348015610b3557600080fd5b5061033360048036036060811015610b4c57600080fd5b81359190810190604081016020820135600160201b811115610b6d57600080fd5b820183602082011115610b7f57600080fd5b803590602001918460208302840111600160201b83111715610ba057600080fd5b9190808060200260200160405190810160405280939291908181526020018383602002808284376000920191909152509295949360208101935035915050600160201b811115610bef57600080fd5b820183602082011115610c0157600080fd5b803590602001918460208302840111600160201b83111715610c2257600080fd5b91908080602002602001604051908101604052809392919081815260200183836020028082843760009201919091525092955061215d945050505050565b348015610c6c57600080fd5b5061033360048036036040811015610c8357600080fd5b50803590602001356122b0565b348015610c9c57600080fd5b506105d160048036036020811015610cb357600080fd5b50356122f4565b348015610cc657600080fd5b506105d1612312565b348015610cdb57600080fd5b5061033360048036036020811015610cf257600080fd5b810190602081018135600160201b811115610d0c57600080fd5b820183602082011115610d1e57600080fd5b803590602001918460018302840111600160201b83111715610d3f57600080fd5b91908080601f016020809104026020016040519081016040528093929190818152602001838380828437600092019190915250929550612321945050505050565b348015610d8c57600080fd5b5061033360048036036020811015610da357600080fd5b810190602081018135600160201b811115610dbd57600080fd5b820183602082011115610dcf57600080fd5b803590602001918460018302840111600160201b83111715610df057600080fd5b91908080601f01602080910402602001604051908101604052809392919081815260200183838082843760009201919091525092955061234b945050505050565b348015610e3d57600080fd5b506105d160048036036020811015610e5457600080fd5b5035612371565b348015610e6757600080fd5b5061040761238c565b348015610e7c57600080fd5b506104076123e7565b348015610e9157600080fd5b5061035f60048036036020811015610ea857600080fd5b5035612442565b348015610ebb57600080fd5b5061033360048036036040811015610ed257600080fd5b506001600160a01b038135169060200135151561244e565b348015610ef657600080fd5b5061035f60048036036020811015610f0d57600080fd5b50356124bc565b348015610f2057600080fd5b506103de60048036036020811015610f3757600080fd5b50356001600160a01b03166124da565b348015610f5357600080fd5b506103de60048036036020811015610f6a57600080fd5b50356124f8565b348015610f7d57600080fd5b5061033360048036036040811015610f9457600080fd5b81359190810190604081016020820135600160201b811115610fb557600080fd5b820183602082011115610fc757600080fd5b803590602001918460018302840111600160201b83111715610fe857600080fd5b91908080601f016020809104026020016040519081016040528093929190818152602001838380828437600092019190915250929550612347945050505050565b34801561103557600080fd5b506105d16004803603602081101561104c57600080fd5b5035612502565b34801561105f57600080fd5b5061035f6004803603602081101561107657600080fd5b5035612525565b34801561108957600080fd5b506110a7600480360360208110156110a057600080fd5b5035612537565b60408051998a5260208a01989098526001600160a01b03968716898901529486166060890152608088019390935260a0870191909152151560c086015290911660e084015261010083015251908190036101200190f35b61035f6004803603608081101561111457600080fd5b81359190810190604081016020820135600160201b81111561113557600080fd5b82018360208201111561114757600080fd5b803590602001918460208302840111600160201b8311171561116857600080fd5b9190808060200260200160405190810160405280939291908181526020018383602002808284376000920191909152509295949360208101935035915050600160201b8111156111b757600080fd5b8201836020820111156111c957600080fd5b803590602001918460018302840111600160201b831117156111ea57600080fd5b91908080601f0160208091040260200160405190810160405280939291908181526020018383808284376000920191909152509295949360208101935035915050600160201b81111561123c57600080fd5b82018360208201111561124e57600080fd5b803590602001918460018302840111600160201b8311171561126f57600080fd5b91908080601f016020809104026020016040519081016040528093929190818152602001838380828437600092019190915250929550612592945050505050565b3480156112bc57600080fd5b5061035f600480360360408110156112d357600080fd5b810190602081018135600160201b8111156112ed57600080fd5b8201836020820111156112ff57600080fd5b803590602001918460018302840111600160201b8311171561132057600080fd5b91908080601f01602080910402602001604051908101604052809392919081815260200183838082843760009201919091525092955050505035151590506128d7565b34801561136f57600080fd5b506103336004803603604081101561138657600080fd5b506001600160a01b0381351690602001351515612b39565b3480156113aa57600080fd5b5061033360048036036101208110156113c257600080fd5b8135916001600160a01b036020820135811692604083013582169260608101359260808201359260a08301359091169160c081013591810190610100810160e0820135600160201b81111561141657600080fd5b82018360208201111561142857600080fd5b803590602001918460208302840111600160201b8311171561144957600080fd5b9190808060200260200160405190810160405280939291908181526020018383602002808284376000920191909152509295949360208101935035915050600160201b81111561149857600080fd5b8201836020820111156114aa57600080fd5b803590602001918460208302840111600160201b831117156114cb57600080fd5b919080806020026020016040519081016040528093929190818152602001838360200280828437600092019190915250929550612bb0945050505050565b34801561151557600080fd5b506104076004803603602081101561152c57600080fd5b5035612dc9565b34801561153f57600080fd5b506103de6004803603602081101561155657600080fd5b5035612e31565b34801561156957600080fd5b50610407612e3d565b34801561157e57600080fd5b506103de6004803603604081101561159557600080fd5b506001600160a01b0381358116916020013516612ed3565b3480156115b957600080fd5b50610333600480360360a08110156115d057600080fd5b6001600160a01b03823581169260208101359091169160408201359160608101359181019060a081016080820135600160201b81111561160f57600080fd5b82018360208201111561162157600080fd5b803590602001918460018302840111600160201b8311171561164257600080fd5b509092509050612f01565b34801561165957600080fd5b506103336004803603606081101561167057600080fd5b506001600160a01b038135169060208101359060400135613172565b6000818152600e60205260409020600801545b919050565b60006116af8261205a565b156116e9576000828152600560205260409020546001600160a01b038481169116146116dc5760006116df565b60015b60ff16905061170e565b5060008181526001602090815260408083206001600160a01b03861684529091529020545b92915050565b60006001600160e01b031982166301ffc9a760e01b148061174557506001600160e01b03198216636cdb3d1360e11b145b156117525750600161169f565b506000919050565b6006805460408051602060026001851615610100026000190190941693909304601f810184900484028201840190925281815292918301828280156117e05780601f106117b5576101008083540402835291602001916117e0565b820191906000526020600020905b8154815290600101906020018083116117c357829003601f168201915b505050505081565b600d6020526000908152604090205481565b600f546001600160a01b0316331461181157600080fd5b6000908152600e6020526040902060078101805460ff19166001179055429055565b60606009600a600084815260200190815260200160002060405160200180838054600181600116156101000203166002900480156118a85780601f106118865761010080835404028352918201916118a8565b820191906000526020600020905b815481529060010190602001808311611894575b5050828054600181600116156101000203166002900480156119015780601f106118df576101008083540402835291820191611901565b820191906000526020600020905b8154815290600101906020018083116118ed575b505060408051601f1981840301815291905295945050505050565b6000908152600e602052604090206001015490565b600080600061193e613bd2565b505050600092835250600e602090815260408084209284526002928301825292839020835160608101855281548082526001830154938201849052919093015460ff161515929093018290529192565b6000546001600160a01b03163314156119bd57600080546001600160a01b0319166001600160a01b0383161790555b50565b6003545b90565b600f546001600160a01b031681565b6001600160a01b038716611a31576040805162461bcd60e51b815260206004820152601b60248201527f63616e6e6f742073656e6420746f207a65726f20616464726573730000000000604482015290519081900360640190fd5b848314611a85576040805162461bcd60e51b815260206004820152601760248201527f4172726179206c656e677468206d757374206d61746368000000000000000000604482015290519081900360640190fd5b6001600160a01b038816331480611ac457506001600160a01b038816600090815260026020908152604080832033845290915290205460ff1615156001145b611aff5760405162461bcd60e51b815260040180806020018281038252602f815260200180613da7602f913960400191505060405180910390fd5b60005b85811015611c7c576000878783818110611b1857fe5b9050602002013590506000868684818110611b2f57fe5b905060200201359050611b4182612e31565b15611b98576000828152600560205260409020546001600160a01b038c8116911614611b6c57600080fd5b600082815260056020526040902080546001600160a01b0319166001600160a01b038c16179055611c72565b60008281526001602090815260408083206001600160a01b038f168452909152902054611bcb908263ffffffff6131f016565b6001600084815260200190815260200160002060008d6001600160a01b03166001600160a01b0316815260200190815260200160002081905550611c4e6001600084815260200190815260200160002060008c6001600160a01b03166001600160a01b03168152602001908152602001600020548261320290919063ffffffff16565b60008381526001602090815260408083206001600160a01b038f1684529091529020555b5050600101611b02565b50866001600160a01b0316886001600160a01b0316336001600160a01b03167f4a39dc06d4c0dbc64b70af90fd698a233a518aa5d07e595d983b8c0526c8f7fb898989896040518080602001806020018381038352878782818152602001925060200280828437600083820152601f01601f19169091018481038352858152602090810191508690860280828437600083820152604051601f909101601f19169092018290039850909650505050505050a4611d40876001600160a01b031661320f565b15611de957611de933898989898080602002602001604051908101604052809392919081815260200183836020028082843760009201919091525050604080516020808d0282810182019093528c82529093508c92508b91829185019084908082843760009201919091525050604080516020601f8c018190048102820181019092528a815292508a915089908190840183828082843760009201919091525061321592505050565b5050505050505050565b6000546001600160a01b03163314156119bd57600f80546001600160a01b0383166001600160a01b031990911617905550565b6000546001600160a01b0316331415611e655760405133904780156108fc02916000818181858888f193505050501580156119bd573d6000803e3d6000fd5b565b6000908152600e602052604090206007015460ff1690565b6000908152600e602052604090206005015490565b6000908152600e60205260409020600401546001600160a01b031690565b6060838214611ec057600080fd5b604080518581526020808702820101909152606090858015611eec578160200160208202803883390190505b50905060005b85811015611ff3576000858583818110611f0857fe5b905060200201359050611f1a8161205a565b15611f8557878783818110611f2b57fe5b600084815260056020908152604090912054910292909201356001600160a01b039081169216919091149050611f62576000611f65565b60015b60ff16838381518110611f7457fe5b602002602001018181525050611fea565b600081815260016020526040812090898985818110611fa057fe5b905060200201356001600160a01b03166001600160a01b03166001600160a01b0316815260200190815260200160002054838381518110611fdd57fe5b6020026020010181815250505b50600101611ef2565b5090505b949350505050565b6009805460408051602060026001851615610100026000190190941693909304601f810184900484028201840190925281815292918301828280156117e05780601f106117b5576101008083540402835291602001916117e0565b6000600160ff1b80831614801561170e5750506001600160801b0316151590565b6000908152600560205260409020546001600160a01b031690565b6001600160a01b0383163314806120b257506120b28333612ed3565b806120c757506000546001600160a01b031633145b6121025760405162461bcd60e51b8152600401808060200182810382526029815260200180613d3b6029913960400191505060405180910390fd5b61210d838383613401565b505050565b6fffffffffffffffffffffffffffffffff191690565b6000600160ff1b80831614801561170e5750506001600160801b03161590565b6000908152600e602052604090206006015490565b6000546001600160a01b031633148061218a5750336000908152600b602052604090205460ff1615156001145b1561210d57612198836124f8565b6121a157600080fd5b6121aa836136a0565b60005b82518110156122aa5760008382815181106121c457fe5b6020026020010151905060008383815181106121dc57fe5b60209081029190910181015160008881526001835260408082206001600160a01b0387168352909352919091205490915061221e90829063ffffffff61320216565b60008781526001602090815260408083206001600160a01b0387168085529083528184209490945580518a815291820185905280513392600080516020613cf783398151915292908290030190a461227e826001600160a01b031661320f565b156122a0576122a0333384898560405180602001604052806000815250613703565b50506001016121ad565b50505050565b600f546001600160a01b031633146122c757600080fd5b6000918252600e60209081526040808420928452600292830190915290912001805460ff19166001179055565b6000908152600e60205260409020600301546001600160a01b031690565b6000546001600160a01b031681565b6000546001600160a01b03163314156119bd578051612347906009906020840190613bf5565b5050565b6000546001600160a01b03163314156119bd578051612347906008906020840190613bf5565b6005602052600090815260409020546001600160a01b031681565b6007805460408051602060026001851615610100026000190190941693909304601f810184900484028201840190925281815292918301828280156117e05780601f106117b5576101008083540402835291602001916117e0565b6008805460408051602060026001851615610100026000190190941693909304601f810184900484028201840190925281815292918301828280156117e05780601f106117b5576101008083540402835291602001916117e0565b6001600160801b031690565b3360008181526002602090815260408083206001600160a01b03871680855290835292819020805460ff1916861515908117909155815190815290519293927f17307eab39ab6107e8899845ad3d59bd9653f200f220920489ca2b5937696c31929181900390910190a35050565b600381815481106124c957fe5b600091825260209091200154905081565b6001600160a01b03166000908152600b602052604090205460ff1690565b600160ff1b161590565b6000908152600e602052604090206007015461010090046001600160a01b031690565b6000908152600e602052604090205490565b600e6020526000908152604090208054600182015460038301546004840154600585015460068601546007870154600890970154959694956001600160a01b0394851695938516949293919260ff8316926101009004169089565b600080546001600160a01b03163314806125c05750336000908152600b602052604090205460ff1615156001145b15611ff7576125ce85612e31565b6125d757600080fd5b6000858152600d6020526040902054845160018201916125fd919063ffffffff61320216565b6000878152600d60205260408120919091555b85518110156128cd57600086828151811061262757fe5b6020026020010151905081830188179350806001600160a01b031660006001600160a01b0316336001600160a01b0316600080516020613cf7833981519152876001604051808381526020018281526020019250505060405180910390a461268e846136a0565b600084815260056020526040902080546001600160a01b0319166001600160a01b03831617905585516127e65760606126c685613873565b6040516020018082805190602001908083835b602083106126f85780518252601f1990920191602091820191016126d9565b51815160209384036101000a600019018019909216911617905264173539b7b760d91b9190930190815260408051808303601a190181526005909201815260008b8152600a855220815191965061275795509350918501919050613bf5565b5084600080516020613d64833981519152826040518080602001828103825283818151815260200191508051906020019080838360005b838110156127a657818101518382015260200161278e565b50505050905090810190601f1680156127d35780820380516001836020036101000a031916815260200191505b509250505060405180910390a25061288f565b6000888152600a60209081526040909120875161280592890190613bf5565b5083600080516020613d64833981519152876040518080602001828103825283818151815260200191508051906020019080838360005b8381101561285457818101518382015260200161283c565b50505050905090810190601f1680156128815780820380516001836020036101000a031916815260200191505b509250505060405180910390a25b6128a1816001600160a01b031661320f565b156128c4576128c433338387600160405180602001604052806000815250613703565b50600101612610565b5050949350505050565b600080546001600160a01b03163314806129055750336000908152600b602052604090205460ff1615156001145b1561170e5750600c80546001019081905560801b811561292657600160ff1b175b8251612a5757606061293782613873565b6040516020018082805190602001908083835b602083106129695780518252601f19909201916020918201910161294a565b51815160209384036101000a600019018019909216911617905264173539b7b760d91b9190930190815260408051808303601a19018152600590920181526000888152600a85522081519196506129c895509350918501919050613bf5565b5081600080516020613d64833981519152826040518080602001828103825283818151815260200191508051906020019080838360005b83811015612a175781810151838201526020016129ff565b50505050905090810190601f168015612a445780820380516001836020036101000a031916815260200191505b509250505060405180910390a250612b00565b6000818152600a602090815260409091208451612a7692860190613bf5565b5080600080516020613d64833981519152846040518080602001828103825283818151815260200191508051906020019080838360005b83811015612ac5578181015183820152602001612aad565b50505050905090810190601f168015612af25780820380516001836020036101000a031916815260200191505b509250505060405180910390a25b6040805182815290517fb4e2b98c0733b4b9e2236bda1094d1e612189ffd14a07695e03fea76565d1de29181900360200190a192915050565b6000546001600160a01b0316331415612347576001600160a01b0382166000818152600b6020908152604091829020805460ff191685151590811790915582519384529083015280517fff452b3b9159b024a9098f0058c63eccd90d36b3584608202800d662f962bb609281900390910190a15050565b600f546001600160a01b03163314612bc757600080fd5b612bcf613c73565b60405180610120016040528060008152602001845181526020018a6001600160a01b03168152602001896001600160a01b03168152602001888152602001878152602001600015158152602001866001600160a01b0316815260200185815250905080600e60008c8152602001908152602001600020600082015181600001556020820151816001015560408201518160030160006101000a8154816001600160a01b0302191690836001600160a01b0316021790555060608201518160040160006101000a8154816001600160a01b0302191690836001600160a01b031602179055506080820151816005015560a0820151816006015560c08201518160070160006101000a81548160ff02191690831515021790555060e08201518160070160016101000a8154816001600160a01b0302191690836001600160a01b03160217905550610100820151816008015590505060008090505b8351811015612dbc576040518060600160405280858381518110612d4857fe5b60200260200101518152602001848381518110612d6157fe5b602090810291909101810151825260009181018290528d8252600e81526040808320858452600290810183529281902084518155918401516001808401919091559301519101805460ff191691151591909117905501612d28565b5050505050505050505050565b600a6020908152600091825260409182902080548351601f6002600019610100600186161502019093169290920491820184900484028101840190945280845290918301828280156117e05780601f106117b5576101008083540402835291602001916117e0565b600160ff1b9081161490565b60088054604080516020601f6002600019610100600188161502019095169490940493840181900481028201810190925282815260609390929091830182828015612ec95780601f10612e9e57610100808354040283529160200191612ec9565b820191906000526020600020905b815481529060010190602001808311612eac57829003601f168201915b5050505050905090565b6001600160a01b03918216600090815260026020908152604080832093909416825291909152205460ff1690565b6001600160a01b038516612f5c576040805162461bcd60e51b815260206004820152601b60248201527f63616e6e6f742073656e6420746f207a65726f20616464726573730000000000604482015290519081900360640190fd5b6001600160a01b038616331480612f9b57506001600160a01b038616600090815260026020908152604080832033845290915290205460ff1615156001145b612fd65760405162461bcd60e51b815260040180806020018281038252602f815260200180613da7602f913960400191505060405180910390fd5b612fdf84612e31565b15613036576000848152600560205260409020546001600160a01b0387811691161461300a57600080fd5b600084815260056020526040902080546001600160a01b0319166001600160a01b0387161790556130c4565b60008481526001602090815260408083206001600160a01b038a168452909152902054613069908463ffffffff6131f016565b60008581526001602090815260408083206001600160a01b038b811685529252808320939093558716815220546130a09084613202565b60008581526001602090815260408083206001600160a01b038a1684529091529020555b846001600160a01b0316866001600160a01b0316336001600160a01b0316600080516020613cf78339815191528787604051808381526020018281526020019250505060405180910390a4613121856001600160a01b031661320f565b1561316a5761316a338787878787878080601f01602080910402602001604051908101604052809392919081815260200183838082843760009201919091525061370392505050565b505050505050565b6000546001600160a01b031633141561210d57613190838383613934565b506000908152600e60205260408120818155600181018290556003810180546001600160a01b0319908116909155600482018054909116905560058101829055600681018290556007810180546001600160a81b03191690556008015550565b6000828211156131fc57fe5b50900390565b8181018281101561170e57fe5b3b151590565b63bc197c8160e01b6001600160e01b031916846001600160a01b031663bc197c8188888787876040518663ffffffff1660e01b815260040180866001600160a01b03166001600160a01b03168152602001856001600160a01b03166001600160a01b03168152602001806020018060200180602001848103845287818151815260200191508051906020019060200280838360005b838110156132c25781810151838201526020016132aa565b50505050905001848103835286818151815260200191508051906020019060200280838360005b838110156133015781810151838201526020016132e9565b50505050905001848103825285818151815260200191508051906020019080838360005b8381101561333d578181015183820152602001613325565b50505050905090810190601f16801561336a5780820380516001836020036101000a031916815260200191505b5098505050505050505050602060405180830381600087803b15801561338f57600080fd5b505af11580156133a3573d6000803e3d6000fd5b505050506040513d60208110156133b957600080fd5b50516001600160e01b0319161461316a5760405162461bcd60e51b815260040180806020018281038252603e815260200180613df9603e913960400191505060405180910390fd5b6001600160a01b0383166134465760405162461bcd60e51b8152600401808060200182810382526023815260200180613dd66023913960400191505060405180910390fd5b80518251146134865760405162461bcd60e51b8152600401808060200182810382526028815260200180613e376028913960400191505060405180910390fd5b3360005b83518110156135bf5760008482815181106134a157fe5b602002602001015190506134b48161205a565b15613532576000818152600560205260409020546001600160a01b038781169116146135115760405162461bcd60e51b8152600401808060200182810382526023815260200180613d846023913960400191505060405180910390fd5b600081815260056020526040902080546001600160a01b03191690556135b6565b61359284838151811061354157fe5b6020026020010151604051806060016040528060248152602001613d176024913960008481526001602090815260408083206001600160a01b038d168452909152902054919063ffffffff6139ab16565b60008281526001602090815260408083206001600160a01b038b1684529091529020555b5060010161348a565b5060006001600160a01b0316846001600160a01b0316826001600160a01b03167f4a39dc06d4c0dbc64b70af90fd698a233a518aa5d07e595d983b8c0526c8f7fb8686604051808060200180602001838103835285818151815260200191508051906020019060200280838360005b8381101561364657818101518382015260200161362e565b50505050905001838103825284818151815260200191508051906020019060200280838360005b8381101561368557818101518382015260200161366d565b5050505090500194505050505060405180910390a450505050565b60008181526004602052604090205460ff166119bd576000818152600460205260408120805460ff191660019081179091556003805491820181559091527fc2575a0e9e593c00f959f8c92f12db2869c3395a3b0502d05e2516446f71f85b0155565b63f23a6e6160e01b6001600160e01b031916846001600160a01b031663f23a6e6188888787876040518663ffffffff1660e01b815260040180866001600160a01b03166001600160a01b03168152602001856001600160a01b03166001600160a01b0316815260200184815260200183815260200180602001828103825283818151815260200191508051906020019080838360005b838110156137b1578181015183820152602001613799565b50505050905090810190601f1680156137de5780820380516001836020036101000a031916815260200191505b509650505050505050602060405180830381600087803b15801561380157600080fd5b505af1158015613815573d6000803e3d6000fd5b505050506040513d602081101561382b57600080fd5b50516001600160e01b0319161461316a5760405162461bcd60e51b8152600401808060200182810382526039815260200180613e5f6039913960400191505060405180910390fd5b60608161389857506040805180820190915260018152600360fc1b602082015261169f565b8160005b81156138b057600101600a8204915061389c565b6060816040519080825280601f01601f1916602001820160405280156138dd576020820181803883390190505b50905060001982015b851561392b57600a860660300160f81b8282806001900393508151811061390957fe5b60200101906001600160f81b031916908160001a905350600a860495506138e6565b50949350505050565b6001600160a01b03831633148061395057506139508333612ed3565b8061396557506000546001600160a01b031633145b6139a05760405162461bcd60e51b8152600401808060200182810382526029815260200180613d3b6029913960400191505060405180910390fd5b61210d838383613a42565b60008184841115613a3a5760405162461bcd60e51b81526004018080602001828103825283818151815260200191508051906020019080838360005b838110156139ff5781810151838201526020016139e7565b50505050905090810190601f168015613a2c5780820380516001836020036101000a031916815260200191505b509250505060405180910390fd5b505050900390565b6001600160a01b038316613a875760405162461bcd60e51b8152600401808060200182810382526023815260200180613dd66023913960400191505060405180910390fd5b33613a918361205a565b15613b0f576000838152600560205260409020546001600160a01b03858116911614613aee5760405162461bcd60e51b8152600401808060200182810382526023815260200180613d846023913960400191505060405180910390fd5b600083815260056020526040902080546001600160a01b0319169055613b80565b613b5c82604051806060016040528060248152602001613d176024913960008681526001602090815260408083206001600160a01b038b168452909152902054919063ffffffff6139ab16565b60008481526001602090815260408083206001600160a01b03891684529091529020555b60006001600160a01b0316846001600160a01b0316826001600160a01b0316600080516020613cf78339815191528686604051808381526020018281526020019250505060405180910390a450505050565b604051806060016040528060008152602001600081526020016000151581525090565b828054600181600116156101000203166002900490600052602060002090601f016020900481019282601f10613c3657805160ff1916838001178555613c63565b82800160010185558215613c63579182015b82811115613c63578251825591602001919060010190613c48565b50613c6f929150613cdc565b5090565b604051806101200160405280600081526020016000815260200160006001600160a01b0316815260200160006001600160a01b03168152602001600081526020016000815260200160001515815260200160006001600160a01b03168152602001600081525090565b6119c491905b80821115613c6f5760008155600101613ce256fec3d58168c5ae7397731d063d5bbf3d657854427343f4c083240f7aacaa2d0f62455243313135353a206275726e20616d6f756e7420657863656564732062616c616e6365455243313135353a2063616c6c6572206973206e6f74206f776e6572206e6f7220617070726f7665646bb7ff708619ba0610cba295a58592e0451dee2622938c8755667688daf3529b4163636f756e74206973206e6f7420746865206f776e6572206f6620746865204e46544e656564206f70657261746f7220617070726f76616c20666f7220337264207061727479207472616e73666572732e455243313135353a206275726e2066726f6d20746865207a65726f2061646472657373636f6e74726163742072657475726e656420616e20756e6b6e6f776e2076616c75652066726f6d206f6e4552433131353542617463685265636569766564455243313135353a2069647320616e6420616d6f756e7473206c656e677468206d69736d61746368636f6e74726163742072657475726e656420616e20756e6b6e6f776e2076616c75652066726f6d206f6e455243313135355265636569766564a265627a7a723158206de9ac082dca96e69b23952708f5eb03e4361aabed66c258370d93146ff21a0f64736f6c634300050f003268747470733a2f2f6e66742d696d6167652d736572766963652e6865726f6b756170702e636f6d2f73747261696e2e6a736f6e68747470733a2f2f6e66742d696d6167652d736572766963652e6865726f6b756170702e636f6d2f",
  "source": "// SPDX-License-Identifier: MIT\r\npragma solidity 0.5.15;\r\n\r\nimport \"../../../decentracraft-contracts/contracts/Decentracraft.sol\";\r\n\r\n\r\ncontract EPDebtNFT is Decentracraft {\r\n\r\n    struct Installment{\r\n        uint256 amount;\r\n        uint256 deadline;\r\n        bool paid;\r\n    }\r\n\r\n    struct LoanInfo{\r\n        uint256 startTime;\r\n        uint installmentsCount;\r\n        mapping (uint => Installment) installments;\r\n        address borrower;\r\n        address borrowedAsset;\r\n        uint256 borrowedAmount;\r\n        uint borrowedAssetType;\r\n        bool loanFunded;\r\n        address paymentAsset;\r\n        uint paymentAssetType;\r\n    }\r\n\r\n    mapping (uint256 => LoanInfo) public loansInfo;\r\n\r\n    address public crafter;\r\n\r\n    constructor() public {\r\n        name = \"EtherPay Debt NFT\";\r\n        symbol = \"EPDBT\";\r\n        contracturi = \"https://nft-image-service.herokuapp.com/strain.json\";\r\n        tokenbaseuri = \"https://nft-image-service.herokuapp.com/\";\r\n    }\r\n\r\n    function burn(address account, uint256 id, uint256 amount) public ownerOnly {\r\n        super.burn(account, id, amount);\r\n        delete loansInfo[id];\r\n    }\r\n\r\n    function setCrafter(address _crafter) public ownerOnly {\r\n        crafter = _crafter;\r\n    }\r\n\r\n    function setLoanInfo(uint256 _id, address _borrower, address _borrowedAsset, uint256 _borrowedAmount, uint _borrowedAssetType\r\n                , address _paymentAsset, uint _paymentAssetType,  uint256[] memory _amounts, uint256[] memory _deadlines) public {\r\n        require(msg.sender == crafter);\r\n\r\n        LoanInfo memory loan = LoanInfo(0, _amounts.length, _borrower, _borrowedAsset, _borrowedAmount, _borrowedAssetType\r\n                                    , false, _paymentAsset, _paymentAssetType);\r\n        loansInfo[_id] = loan;\r\n        for(uint i = 0; i < _amounts.length; i++){\r\n            loansInfo[_id].installments[i] = Installment(_amounts[i], _deadlines[i], false);\r\n        }\r\n    }\r\n\r\n    function loanFunded(uint256 _id) public {\r\n        require(msg.sender == crafter);\r\n        loansInfo[_id].loanFunded = true;\r\n        loansInfo[_id].startTime  = block.timestamp;\r\n    }\r\n\r\n    function installmentPaid(uint256 _id, uint _installmentIndex) public {\r\n        require(msg.sender == crafter);\r\n        loansInfo[_id].installments[_installmentIndex].paid = true;\r\n    }\r\n\r\n    function getInstallment(uint256 _id, uint _installmentIndex) public view returns(uint256 amount, uint256 deadline, bool paid){\r\n        Installment memory installment = loansInfo[_id].installments[_installmentIndex];\r\n        return (installment.amount, installment.deadline, installment.paid);\r\n    }\r\n\r\n    function getStartTime(uint256 _id) public view returns(uint256){\r\n        return loansInfo[_id].startTime;\r\n    }\r\n\r\n    function getInstallmentsCount(uint256 _id) public view returns(uint){\r\n        return loansInfo[_id].installmentsCount;\r\n    }\r\n\r\n    function getBorrower(uint256 _id) public view returns(address){\r\n        return loansInfo[_id].borrower;\r\n    }\r\n\r\n    function getBorrowedAsset(uint256 _id) public view returns(address){\r\n        return loansInfo[_id].borrowedAsset;\r\n    }\r\n\r\n    function getBorrowedAmount(uint256 _id) public view returns(uint256){\r\n        return loansInfo[_id].borrowedAmount;\r\n    }\r\n\r\n    function getLoanFunded(uint256 _id) public view returns(bool){\r\n        return loansInfo[_id].loanFunded;\r\n    }\r\n\r\n    function getPaymentAsset(uint256 _id) public view returns(address){\r\n        return loansInfo[_id].paymentAsset;\r\n    }\r\n\r\n    function getPaymentAssetType(uint256 _id) public view returns(uint){\r\n        return loansInfo[_id].paymentAssetType;\r\n    }\r\n\r\n    function getBorrowedAssetType(uint256 _id) public view returns(uint){\r\n        return loansInfo[_id].borrowedAssetType;\r\n    }\r\n\r\n}\r\n",
  "sourcePath": "/mnt/c/Kiko/MyProjects/Blockchain/Decentraland/etherpay/contracts/token/EPDebtNFT.sol",
  "compiler": {
    "name": "solc",
    "version": "0.5.15+commit.6a57276f.Emscripten.clang"
  },
  "schemaVersion": "3.3.2",
  "updatedAt": "2021-02-02T06:57:25.066Z",
  "networkType": "ethereum",
  "devdoc": {
    "methods": {
      "isApprovedForAll(address,address)": {
        "params": {
          "_operator": "Address of authorized operator",
          "_owner": "The owner of the Tokens"
        },
        "return": "True if the operator is approved, false if not"
      },
      "isMinter(address)": {
        "params": {
          "who": "The address to query."
        },
        "return": "whether the address has minting rights."
      },
      "setApprovalForAll(address,bool)": {
        "details": "MUST emit the ApprovalForAll event on success.",
        "params": {
          "_approved": "True if the operator is approved, false to revoke approval",
          "_operator": "Address to add to the set of authorized operators"
        }
      },
      "setMinter(address,bool)": {
        "params": {
          "enabled": "set whether the address is enabled or disabled as a minter.",
          "minter": "address that will be given/removed minting rights."
        }
      }
    }
  },
  "userdoc": {
    "methods": {
      "isApprovedForAll(address,address)": {
        "notice": "Queries the approval status of an operator for a given owner."
      },
      "isMinter(address)": {
        "notice": "check whether address `who` is given minter rights."
      },
      "setApprovalForAll(address,bool)": {
        "notice": "Enable or disable approval for a third party (\"operator\") to manage all of the caller's tokens."
      },
      "setMinter(address,bool)": {
        "notice": "Enable or disable the ability of `minter` to mint tokens (minting rights)."
      }
    }
  }
}