{
  "contractName": "ERC1155MixedFungible",
  "abi": [
    {
      "anonymous": false,
      "inputs": [
        {
          "indexed": true,
          "internalType": "address",
          "name": "_owner",
          "type": "address"
        },
        {
          "indexed": true,
          "internalType": "address",
          "name": "_operator",
          "type": "address"
        },
        {
          "indexed": false,
          "internalType": "bool",
          "name": "_approved",
          "type": "bool"
        }
      ],
      "name": "ApprovalForAll",
      "type": "event"
    },
    {
      "anonymous": false,
      "inputs": [
        {
          "indexed": true,
          "internalType": "address",
          "name": "_operator",
          "type": "address"
        },
        {
          "indexed": true,
          "internalType": "address",
          "name": "_from",
          "type": "address"
        },
        {
          "indexed": true,
          "internalType": "address",
          "name": "_to",
          "type": "address"
        },
        {
          "indexed": false,
          "internalType": "uint256[]",
          "name": "_ids",
          "type": "uint256[]"
        },
        {
          "indexed": false,
          "internalType": "uint256[]",
          "name": "_values",
          "type": "uint256[]"
        }
      ],
      "name": "TransferBatch",
      "type": "event"
    },
    {
      "anonymous": false,
      "inputs": [
        {
          "indexed": true,
          "internalType": "address",
          "name": "_operator",
          "type": "address"
        },
        {
          "indexed": true,
          "internalType": "address",
          "name": "_from",
          "type": "address"
        },
        {
          "indexed": true,
          "internalType": "address",
          "name": "_to",
          "type": "address"
        },
        {
          "indexed": false,
          "internalType": "uint256",
          "name": "_id",
          "type": "uint256"
        },
        {
          "indexed": false,
          "internalType": "uint256",
          "name": "_value",
          "type": "uint256"
        }
      ],
      "name": "TransferSingle",
      "type": "event"
    },
    {
      "anonymous": false,
      "inputs": [
        {
          "indexed": false,
          "internalType": "string",
          "name": "_value",
          "type": "string"
        },
        {
          "indexed": true,
          "internalType": "uint256",
          "name": "_id",
          "type": "uint256"
        }
      ],
      "name": "URI",
      "type": "event"
    },
    {
      "constant": false,
      "inputs": [
        {
          "internalType": "address",
          "name": "account",
          "type": "address"
        },
        {
          "internalType": "uint256",
          "name": "id",
          "type": "uint256"
        },
        {
          "internalType": "uint256",
          "name": "amount",
          "type": "uint256"
        }
      ],
      "name": "burn",
      "outputs": [],
      "payable": false,
      "stateMutability": "nonpayable",
      "type": "function"
    },
    {
      "constant": false,
      "inputs": [
        {
          "internalType": "address",
          "name": "account",
          "type": "address"
        },
        {
          "internalType": "uint256[]",
          "name": "ids",
          "type": "uint256[]"
        },
        {
          "internalType": "uint256[]",
          "name": "amounts",
          "type": "uint256[]"
        }
      ],
      "name": "burnBatch",
      "outputs": [],
      "payable": false,
      "stateMutability": "nonpayable",
      "type": "function"
    },
    {
      "constant": true,
      "inputs": [],
      "name": "getItemIDsLength",
      "outputs": [
        {
          "internalType": "uint256",
          "name": "",
          "type": "uint256"
        }
      ],
      "payable": false,
      "stateMutability": "view",
      "type": "function"
    },
    {
      "constant": true,
      "inputs": [
        {
          "internalType": "address",
          "name": "_owner",
          "type": "address"
        },
        {
          "internalType": "address",
          "name": "_operator",
          "type": "address"
        }
      ],
      "name": "isApprovedForAll",
      "outputs": [
        {
          "internalType": "bool",
          "name": "",
          "type": "bool"
        }
      ],
      "payable": false,
      "stateMutability": "view",
      "type": "function"
    },
    {
      "constant": true,
      "inputs": [
        {
          "internalType": "uint256",
          "name": "",
          "type": "uint256"
        }
      ],
      "name": "itemIDs",
      "outputs": [
        {
          "internalType": "uint256",
          "name": "",
          "type": "uint256"
        }
      ],
      "payable": false,
      "stateMutability": "view",
      "type": "function"
    },
    {
      "constant": true,
      "inputs": [
        {
          "internalType": "uint256",
          "name": "",
          "type": "uint256"
        }
      ],
      "name": "nfOwners",
      "outputs": [
        {
          "internalType": "address",
          "name": "",
          "type": "address"
        }
      ],
      "payable": false,
      "stateMutability": "view",
      "type": "function"
    },
    {
      "constant": true,
      "inputs": [],
      "name": "owner",
      "outputs": [
        {
          "internalType": "address",
          "name": "",
          "type": "address"
        }
      ],
      "payable": false,
      "stateMutability": "view",
      "type": "function"
    },
    {
      "constant": false,
      "inputs": [
        {
          "internalType": "address",
          "name": "_operator",
          "type": "address"
        },
        {
          "internalType": "bool",
          "name": "_approved",
          "type": "bool"
        }
      ],
      "name": "setApprovalForAll",
      "outputs": [],
      "payable": false,
      "stateMutability": "nonpayable",
      "type": "function"
    },
    {
      "constant": false,
      "inputs": [
        {
          "internalType": "address",
          "name": "_owner",
          "type": "address"
        }
      ],
      "name": "setOwner",
      "outputs": [],
      "payable": false,
      "stateMutability": "nonpayable",
      "type": "function"
    },
    {
      "constant": true,
      "inputs": [
        {
          "internalType": "bytes4",
          "name": "_interfaceId",
          "type": "bytes4"
        }
      ],
      "name": "supportsInterface",
      "outputs": [
        {
          "internalType": "bool",
          "name": "",
          "type": "bool"
        }
      ],
      "payable": false,
      "stateMutability": "view",
      "type": "function"
    },
    {
      "constant": true,
      "inputs": [
        {
          "internalType": "uint256",
          "name": "_id",
          "type": "uint256"
        }
      ],
      "name": "isNonFungible",
      "outputs": [
        {
          "internalType": "bool",
          "name": "",
          "type": "bool"
        }
      ],
      "payable": false,
      "stateMutability": "pure",
      "type": "function"
    },
    {
      "constant": true,
      "inputs": [
        {
          "internalType": "uint256",
          "name": "_id",
          "type": "uint256"
        }
      ],
      "name": "isFungible",
      "outputs": [
        {
          "internalType": "bool",
          "name": "",
          "type": "bool"
        }
      ],
      "payable": false,
      "stateMutability": "pure",
      "type": "function"
    },
    {
      "constant": true,
      "inputs": [
        {
          "internalType": "uint256",
          "name": "_id",
          "type": "uint256"
        }
      ],
      "name": "getNonFungibleIndex",
      "outputs": [
        {
          "internalType": "uint256",
          "name": "",
          "type": "uint256"
        }
      ],
      "payable": false,
      "stateMutability": "pure",
      "type": "function"
    },
    {
      "constant": true,
      "inputs": [
        {
          "internalType": "uint256",
          "name": "_id",
          "type": "uint256"
        }
      ],
      "name": "getNonFungibleBaseType",
      "outputs": [
        {
          "internalType": "uint256",
          "name": "",
          "type": "uint256"
        }
      ],
      "payable": false,
      "stateMutability": "pure",
      "type": "function"
    },
    {
      "constant": true,
      "inputs": [
        {
          "internalType": "uint256",
          "name": "_id",
          "type": "uint256"
        }
      ],
      "name": "isNonFungibleBaseType",
      "outputs": [
        {
          "internalType": "bool",
          "name": "",
          "type": "bool"
        }
      ],
      "payable": false,
      "stateMutability": "pure",
      "type": "function"
    },
    {
      "constant": true,
      "inputs": [
        {
          "internalType": "uint256",
          "name": "_id",
          "type": "uint256"
        }
      ],
      "name": "isNonFungibleItem",
      "outputs": [
        {
          "internalType": "bool",
          "name": "",
          "type": "bool"
        }
      ],
      "payable": false,
      "stateMutability": "pure",
      "type": "function"
    },
    {
      "constant": true,
      "inputs": [
        {
          "internalType": "uint256",
          "name": "_id",
          "type": "uint256"
        }
      ],
      "name": "ownerOf",
      "outputs": [
        {
          "internalType": "address",
          "name": "",
          "type": "address"
        }
      ],
      "payable": false,
      "stateMutability": "view",
      "type": "function"
    },
    {
      "constant": false,
      "inputs": [
        {
          "internalType": "address",
          "name": "_from",
          "type": "address"
        },
        {
          "internalType": "address",
          "name": "_to",
          "type": "address"
        },
        {
          "internalType": "uint256",
          "name": "_id",
          "type": "uint256"
        },
        {
          "internalType": "uint256",
          "name": "_value",
          "type": "uint256"
        },
        {
          "internalType": "bytes",
          "name": "_data",
          "type": "bytes"
        }
      ],
      "name": "safeTransferFrom",
      "outputs": [],
      "payable": false,
      "stateMutability": "nonpayable",
      "type": "function"
    },
    {
      "constant": false,
      "inputs": [
        {
          "internalType": "address",
          "name": "_from",
          "type": "address"
        },
        {
          "internalType": "address",
          "name": "_to",
          "type": "address"
        },
        {
          "internalType": "uint256[]",
          "name": "_ids",
          "type": "uint256[]"
        },
        {
          "internalType": "uint256[]",
          "name": "_values",
          "type": "uint256[]"
        },
        {
          "internalType": "bytes",
          "name": "_data",
          "type": "bytes"
        }
      ],
      "name": "safeBatchTransferFrom",
      "outputs": [],
      "payable": false,
      "stateMutability": "nonpayable",
      "type": "function"
    },
    {
      "constant": true,
      "inputs": [
        {
          "internalType": "address",
          "name": "_owner",
          "type": "address"
        },
        {
          "internalType": "uint256",
          "name": "_id",
          "type": "uint256"
        }
      ],
      "name": "balanceOf",
      "outputs": [
        {
          "internalType": "uint256",
          "name": "",
          "type": "uint256"
        }
      ],
      "payable": false,
      "stateMutability": "view",
      "type": "function"
    },
    {
      "constant": true,
      "inputs": [
        {
          "internalType": "address[]",
          "name": "_owners",
          "type": "address[]"
        },
        {
          "internalType": "uint256[]",
          "name": "_ids",
          "type": "uint256[]"
        }
      ],
      "name": "balanceOfBatch",
      "outputs": [
        {
          "internalType": "uint256[]",
          "name": "",
          "type": "uint256[]"
        }
      ],
      "payable": false,
      "stateMutability": "view",
      "type": "function"
    }
  ],
  "bytecode": "0x6080604052600080546001600160a01b03191633179055611cca806100256000396000f3fe608060405234801561001057600080fd5b50600436106101365760003560e01c80637269a327116100b8578063a836f3071161007c578063a836f3071461064c578063adebf6f214610669578063e44591f014610686578063e985e9c5146106a3578063f242432a146106d1578063f5298aca1461076457610136565b80637269a327146105bf5780638da5cb5b146105dc57806395d817bc146105e45780639cca1c6414610601578063a22cb4651461061e57610136565b80634e1273f4116100ff5780634e1273f41461030b5780635e81b958146104195780636352211e146104365780636b20c4541461046f5780636f969c2d146105a257610136565b8062fdd58e1461013b57806301ffc9a71461017957806313af4035146101b457806321185fdf146101dc5780632eb2c2d6146101e4575b600080fd5b6101676004803603604081101561015157600080fd5b506001600160a01b038135169060200135610796565b60408051918252519081900360200190f35b6101a06004803603602081101561018f57600080fd5b50356001600160e01b031916610806565b604080519115158252519081900360200190f35b6101da600480360360208110156101ca57600080fd5b50356001600160a01b031661084d565b005b61016761087f565b6101da600480360360a08110156101fa57600080fd5b6001600160a01b038235811692602081013590911691810190606081016040820135600160201b81111561022d57600080fd5b82018360208201111561023f57600080fd5b803590602001918460208302840111600160201b8311171561026057600080fd5b919390929091602081019035600160201b81111561027d57600080fd5b82018360208201111561028f57600080fd5b803590602001918460208302840111600160201b831117156102b057600080fd5b919390929091602081019035600160201b8111156102cd57600080fd5b8201836020820111156102df57600080fd5b803590602001918460018302840111600160201b8311171561030057600080fd5b509092509050610885565b6103c96004803603604081101561032157600080fd5b810190602081018135600160201b81111561033b57600080fd5b82018360208201111561034d57600080fd5b803590602001918460208302840111600160201b8311171561036e57600080fd5b919390929091602081019035600160201b81111561038b57600080fd5b82018360208201111561039d57600080fd5b803590602001918460208302840111600160201b831117156103be57600080fd5b509092509050610ca2565b60408051602080825283518183015283519192839290830191858101910280838360005b838110156104055781810151838201526020016103ed565b505050509050019250505060405180910390f35b6101a06004803603602081101561042f57600080fd5b5035610ded565b6104536004803603602081101561044c57600080fd5b5035610e0e565b604080516001600160a01b039092168252519081900360200190f35b6101da6004803603606081101561048557600080fd5b6001600160a01b038235169190810190604081016020820135600160201b8111156104af57600080fd5b8201836020820111156104c157600080fd5b803590602001918460208302840111600160201b831117156104e257600080fd5b9190808060200260200160405190810160405280939291908181526020018383602002808284376000920191909152509295949360208101935035915050600160201b81111561053157600080fd5b82018360208201111561054357600080fd5b803590602001918460208302840111600160201b8311171561056457600080fd5b919080806020026020016040519081016040528093929190818152602001838360200280828437600092019190915250929550610e29945050505050565b610167600480360360208110156105b857600080fd5b5035610ea5565b6101a0600480360360208110156105d557600080fd5b5035610ebb565b610453610edb565b610453600480360360208110156105fa57600080fd5b5035610eea565b6101676004803603602081101561061757600080fd5b5035610f05565b6101da6004803603604081101561063457600080fd5b506001600160a01b0381351690602001351515610f11565b6101676004803603602081101561066257600080fd5b5035610f7f565b6101a06004803603602081101561067f57600080fd5b5035610f9d565b6101a06004803603602081101561069c57600080fd5b5035610fa7565b6101a0600480360360408110156106b957600080fd5b506001600160a01b0381358116916020013516610fb3565b6101da600480360360a08110156106e757600080fd5b6001600160a01b03823581169260208101359091169160408201359160608101359181019060a081016080820135600160201b81111561072657600080fd5b82018360208201111561073857600080fd5b803590602001918460018302840111600160201b8311171561075957600080fd5b509092509050610fe1565b6101da6004803603606081101561077a57600080fd5b506001600160a01b038135169060208101359060400135611264565b60006107a182610ded565b156107db576000828152600560205260409020546001600160a01b038481169116146107ce5760006107d1565b60015b60ff169050610800565b5060008181526001602090815260408083206001600160a01b03861684529091529020545b92915050565b60006001600160e01b031982166301ffc9a760e01b148061083757506001600160e01b03198216636cdb3d1360e11b145b1561084457506001610848565b5060005b919050565b6000546001600160a01b031633141561087c57600080546001600160a01b0319166001600160a01b0383161790555b50565b60035490565b6001600160a01b0387166108e0576040805162461bcd60e51b815260206004820152601b60248201527f63616e6e6f742073656e6420746f207a65726f20616464726573730000000000604482015290519081900360640190fd5b848314610934576040805162461bcd60e51b815260206004820152601760248201527f4172726179206c656e677468206d757374206d61746368000000000000000000604482015290519081900360640190fd5b6001600160a01b03881633148061097357506001600160a01b038816600090815260026020908152604080832033845290915290205460ff1615156001145b6109ae5760405162461bcd60e51b815260040180806020018281038252602f815260200180611ba5602f913960400191505060405180910390fd5b60005b85811015610b2b5760008787838181106109c757fe5b90506020020135905060008686848181106109de57fe5b9050602002013590506109f082610fa7565b15610a47576000828152600560205260409020546001600160a01b038c8116911614610a1b57600080fd5b600082815260056020526040902080546001600160a01b0319166001600160a01b038c16179055610b21565b60008281526001602090815260408083206001600160a01b038f168452909152902054610a7a908263ffffffff6112db16565b6001600084815260200190815260200160002060008d6001600160a01b03166001600160a01b0316815260200190815260200160002081905550610afd6001600084815260200190815260200160002060008c6001600160a01b03166001600160a01b0316815260200190815260200160002054826112ed90919063ffffffff16565b60008381526001602090815260408083206001600160a01b038f1684529091529020555b50506001016109b1565b50866001600160a01b0316886001600160a01b0316336001600160a01b03167f4a39dc06d4c0dbc64b70af90fd698a233a518aa5d07e595d983b8c0526c8f7fb898989896040518080602001806020018381038352878782818152602001925060200280828437600083820152601f01601f19169091018481038352858152602090810191508690860280828437600083820152604051601f909101601f19169092018290039850909650505050505050a4610bef876001600160a01b03166112fa565b15610c9857610c9833898989898080602002602001604051908101604052809392919081815260200183836020028082843760009201919091525050604080516020808d0282810182019093528c82529093508c92508b91829185019084908082843760009201919091525050604080516020601f8c018190048102820181019092528a815292508a915089908190840183828082843760009201919091525061130092505050565b5050505050505050565b6060838214610cb057600080fd5b604080518581526020808702820101909152606090858015610cdc578160200160208202803883390190505b50905060005b85811015610de3576000858583818110610cf857fe5b905060200201359050610d0a81610ded565b15610d7557878783818110610d1b57fe5b600084815260056020908152604090912054910292909201356001600160a01b039081169216919091149050610d52576000610d55565b60015b60ff16838381518110610d6457fe5b602002602001018181525050610dda565b600081815260016020526040812090898985818110610d9057fe5b905060200201356001600160a01b03166001600160a01b03166001600160a01b0316815260200190815260200160002054838381518110610dcd57fe5b6020026020010181815250505b50600101610ce2565b5095945050505050565b6000600160ff1b8083161480156108005750506001600160801b0316151590565b6000908152600560205260409020546001600160a01b031690565b6001600160a01b038316331480610e455750610e458333610fb3565b80610e5a57506000546001600160a01b031633145b610e955760405162461bcd60e51b8152600401808060200182810382526029815260200180611b596029913960400191505060405180910390fd5b610ea08383836114ec565b505050565b6fffffffffffffffffffffffffffffffff191690565b6000600160ff1b8083161480156108005750506001600160801b03161590565b6000546001600160a01b031681565b6005602052600090815260409020546001600160a01b031681565b6001600160801b031690565b3360008181526002602090815260408083206001600160a01b03871680855290835292819020805460ff1916861515908117909155815190815290519293927f17307eab39ab6107e8899845ad3d59bd9653f200f220920489ca2b5937696c31929181900390910190a35050565b60038181548110610f8c57fe5b600091825260209091200154905081565b600160ff1b161590565b600160ff1b9081161490565b6001600160a01b03918216600090815260026020908152604080832093909416825291909152205460ff1690565b6001600160a01b03851661103c576040805162461bcd60e51b815260206004820152601b60248201527f63616e6e6f742073656e6420746f207a65726f20616464726573730000000000604482015290519081900360640190fd5b6001600160a01b03861633148061107b57506001600160a01b038616600090815260026020908152604080832033845290915290205460ff1615156001145b6110b65760405162461bcd60e51b815260040180806020018281038252602f815260200180611ba5602f913960400191505060405180910390fd5b6110bf84610fa7565b15611116576000848152600560205260409020546001600160a01b038781169116146110ea57600080fd5b600084815260056020526040902080546001600160a01b0319166001600160a01b0387161790556111a4565b60008481526001602090815260408083206001600160a01b038a168452909152902054611149908463ffffffff6112db16565b60008581526001602090815260408083206001600160a01b038b8116855292528083209390935587168152205461118090846112ed565b60008581526001602090815260408083206001600160a01b038a1684529091529020555b846001600160a01b0316866001600160a01b0316336001600160a01b03167fc3d58168c5ae7397731d063d5bbf3d657854427343f4c083240f7aacaa2d0f628787604051808381526020018281526020019250505060405180910390a4611213856001600160a01b03166112fa565b1561125c5761125c338787878787878080601f01602080910402602001604051908101604052809392919081815260200183838082843760009201919091525061178b92505050565b505050505050565b6001600160a01b03831633148061128057506112808333610fb3565b8061129557506000546001600160a01b031633145b6112d05760405162461bcd60e51b8152600401808060200182810382526029815260200180611b596029913960400191505060405180910390fd5b610ea08383836118fb565b6000828211156112e757fe5b50900390565b8181018281101561080057fe5b3b151590565b63bc197c8160e01b6001600160e01b031916846001600160a01b031663bc197c8188888787876040518663ffffffff1660e01b815260040180866001600160a01b03166001600160a01b03168152602001856001600160a01b03166001600160a01b03168152602001806020018060200180602001848103845287818151815260200191508051906020019060200280838360005b838110156113ad578181015183820152602001611395565b50505050905001848103835286818151815260200191508051906020019060200280838360005b838110156113ec5781810151838201526020016113d4565b50505050905001848103825285818151815260200191508051906020019080838360005b83811015611428578181015183820152602001611410565b50505050905090810190601f1680156114555780820380516001836020036101000a031916815260200191505b5098505050505050505050602060405180830381600087803b15801561147a57600080fd5b505af115801561148e573d6000803e3d6000fd5b505050506040513d60208110156114a457600080fd5b50516001600160e01b0319161461125c5760405162461bcd60e51b815260040180806020018281038252603e815260200180611bf7603e913960400191505060405180910390fd5b6001600160a01b0383166115315760405162461bcd60e51b8152600401808060200182810382526023815260200180611bd46023913960400191505060405180910390fd5b80518251146115715760405162461bcd60e51b8152600401808060200182810382526028815260200180611c356028913960400191505060405180910390fd5b3360005b83518110156116aa57600084828151811061158c57fe5b6020026020010151905061159f81610ded565b1561161d576000818152600560205260409020546001600160a01b038781169116146115fc5760405162461bcd60e51b8152600401808060200182810382526023815260200180611b826023913960400191505060405180910390fd5b600081815260056020526040902080546001600160a01b03191690556116a1565b61167d84838151811061162c57fe5b6020026020010151604051806060016040528060248152602001611b356024913960008481526001602090815260408083206001600160a01b038d168452909152902054919063ffffffff611a9d16565b60008281526001602090815260408083206001600160a01b038b1684529091529020555b50600101611575565b5060006001600160a01b0316846001600160a01b0316826001600160a01b03167f4a39dc06d4c0dbc64b70af90fd698a233a518aa5d07e595d983b8c0526c8f7fb8686604051808060200180602001838103835285818151815260200191508051906020019060200280838360005b83811015611731578181015183820152602001611719565b50505050905001838103825284818151815260200191508051906020019060200280838360005b83811015611770578181015183820152602001611758565b5050505090500194505050505060405180910390a450505050565b63f23a6e6160e01b6001600160e01b031916846001600160a01b031663f23a6e6188888787876040518663ffffffff1660e01b815260040180866001600160a01b03166001600160a01b03168152602001856001600160a01b03166001600160a01b0316815260200184815260200183815260200180602001828103825283818151815260200191508051906020019080838360005b83811015611839578181015183820152602001611821565b50505050905090810190601f1680156118665780820380516001836020036101000a031916815260200191505b509650505050505050602060405180830381600087803b15801561188957600080fd5b505af115801561189d573d6000803e3d6000fd5b505050506040513d60208110156118b357600080fd5b50516001600160e01b0319161461125c5760405162461bcd60e51b8152600401808060200182810382526039815260200180611c5d6039913960400191505060405180910390fd5b6001600160a01b0383166119405760405162461bcd60e51b8152600401808060200182810382526023815260200180611bd46023913960400191505060405180910390fd5b3361194a83610ded565b156119c8576000838152600560205260409020546001600160a01b038581169116146119a75760405162461bcd60e51b8152600401808060200182810382526023815260200180611b826023913960400191505060405180910390fd5b600083815260056020526040902080546001600160a01b0319169055611a39565b611a1582604051806060016040528060248152602001611b356024913960008681526001602090815260408083206001600160a01b038b168452909152902054919063ffffffff611a9d16565b60008481526001602090815260408083206001600160a01b03891684529091529020555b60006001600160a01b0316846001600160a01b0316826001600160a01b03167fc3d58168c5ae7397731d063d5bbf3d657854427343f4c083240f7aacaa2d0f628686604051808381526020018281526020019250505060405180910390a450505050565b60008184841115611b2c5760405162461bcd60e51b81526004018080602001828103825283818151815260200191508051906020019080838360005b83811015611af1578181015183820152602001611ad9565b50505050905090810190601f168015611b1e5780820380516001836020036101000a031916815260200191505b509250505060405180910390fd5b50505090039056fe455243313135353a206275726e20616d6f756e7420657863656564732062616c616e6365455243313135353a2063616c6c6572206973206e6f74206f776e6572206e6f7220617070726f7665644163636f756e74206973206e6f7420746865206f776e6572206f6620746865204e46544e656564206f70657261746f7220617070726f76616c20666f7220337264207061727479207472616e73666572732e455243313135353a206275726e2066726f6d20746865207a65726f2061646472657373636f6e74726163742072657475726e656420616e20756e6b6e6f776e2076616c75652066726f6d206f6e4552433131353542617463685265636569766564455243313135353a2069647320616e6420616d6f756e7473206c656e677468206d69736d61746368636f6e74726163742072657475726e656420616e20756e6b6e6f776e2076616c75652066726f6d206f6e455243313135355265636569766564a265627a7a72315820dc3ead4a60731971dfc305e984c895f12179e35a5e7e111baac00d97840e54e964736f6c634300050f0032",
  "source": "pragma solidity ^0.5.11;\n\nimport \"./ERC1155.sol\";\n\n/**\n    @dev Extension to ERC1155 for Mixed Fungible and Non-Fungible Items support\n    The main benefit is sharing of common type information, just like you do when\n    creating a fungible id.\n*/\ncontract ERC1155MixedFungible is ERC1155 {\n\n    // Use a split bit implementation.\n    // Store the type in the upper 128 bits..\n    uint256 constant TYPE_MASK = uint256(uint128(~0)) << 128;\n\n    // ..and the non-fungible index in the lower 128\n    uint256 constant NF_INDEX_MASK = uint128(~0);\n\n    // The top bit is a flag to tell if this is a NFI.\n    uint256 constant TYPE_NF_BIT = 1 << 255;\n\n    mapping (uint256 => address) public nfOwners;\n\n    // Only to make code clearer. Should not be functions\n    function isNonFungible(uint256 _id) public pure returns(bool) {\n        return _id & TYPE_NF_BIT == TYPE_NF_BIT;\n    }\n    function isFungible(uint256 _id) public pure returns(bool) {\n        return _id & TYPE_NF_BIT == 0;\n    }\n    function getNonFungibleIndex(uint256 _id) public pure returns(uint256) {\n        return _id & NF_INDEX_MASK;\n    }\n    function getNonFungibleBaseType(uint256 _id) public pure returns(uint256) {\n        return _id & TYPE_MASK;\n    }\n    function isNonFungibleBaseType(uint256 _id) public pure returns(bool) {\n        // A base type has the NF bit but does not have an index.\n        return (_id & TYPE_NF_BIT == TYPE_NF_BIT) && (_id & NF_INDEX_MASK == 0);\n    }\n    function isNonFungibleItem(uint256 _id) public pure returns(bool) {\n        // A base type has the NF bit but does has an index.\n        return (_id & TYPE_NF_BIT == TYPE_NF_BIT) && (_id & NF_INDEX_MASK != 0);\n    }\n    function ownerOf(uint256 _id) public view returns (address) {\n        return nfOwners[_id];\n    }\n\n    // override\n    function safeTransferFrom(address _from, address _to, uint256 _id, uint256 _value, bytes calldata _data) external {\n\n        require(_to != address(0x0), \"cannot send to zero address\");\n        require(_from == msg.sender || operatorApproval[_from][msg.sender] == true, \"Need operator approval for 3rd party transfers.\");\n\n        if (isNonFungible(_id)) {\n            require(nfOwners[_id] == _from);\n            nfOwners[_id] = _to;\n            // You could keep balance of NF type in base type id like so:\n            // uint256 baseType = getNonFungibleBaseType(_id);\n            // balances[baseType][_from] = balances[baseType][_from].sub(_value);\n            // balances[baseType][_to]   = balances[baseType][_to].add(_value);\n        } else {\n            balances[_id][_from] = balances[_id][_from].sub(_value);\n            balances[_id][_to]   = balances[_id][_to].add(_value);\n        }\n\n        emit TransferSingle(msg.sender, _from, _to, _id, _value);\n\n        if (_to.isContract()) {\n            _doSafeTransferAcceptanceCheck(msg.sender, _from, _to, _id, _value, _data);\n        }\n    }\n\n    // override\n    function safeBatchTransferFrom(address _from, address _to, uint256[] calldata _ids, uint256[] calldata _values, bytes calldata _data) external {\n\n        require(_to != address(0x0), \"cannot send to zero address\");\n        require(_ids.length == _values.length, \"Array length must match\");\n\n        // Only supporting a global operator approval allows us to do only 1 check and not to touch storage to handle allowances.\n        require(_from == msg.sender || operatorApproval[_from][msg.sender] == true, \"Need operator approval for 3rd party transfers.\");\n\n        for (uint256 i = 0; i < _ids.length; ++i) {\n            // Cache value to local variable to reduce read costs.\n            uint256 id = _ids[i];\n            uint256 value = _values[i];\n\n            if (isNonFungible(id)) {\n                require(nfOwners[id] == _from);\n                nfOwners[id] = _to;\n            } else {\n                balances[id][_from] = balances[id][_from].sub(value);\n                balances[id][_to]   = value.add(balances[id][_to]);\n            }\n        }\n\n        emit TransferBatch(msg.sender, _from, _to, _ids, _values);\n\n        if (_to.isContract()) {\n            _doSafeBatchTransferAcceptanceCheck(msg.sender, _from, _to, _ids, _values, _data);\n        }\n    }\n\n    function balanceOf(address _owner, uint256 _id) external view returns (uint256) {\n        if (isNonFungibleItem(_id))\n            return nfOwners[_id] == _owner ? 1 : 0;\n        return balances[_id][_owner];\n    }\n\n    function balanceOfBatch(address[] calldata _owners, uint256[] calldata _ids) external view returns (uint256[] memory) {\n\n        require(_owners.length == _ids.length);\n\n        uint256[] memory balances_ = new uint256[](_owners.length);\n\n        for (uint256 i = 0; i < _owners.length; ++i) {\n            uint256 id = _ids[i];\n            if (isNonFungibleItem(id)) {\n                balances_[i] = nfOwners[id] == _owners[i] ? 1 : 0;\n            } else {\n            \tbalances_[i] = balances[id][_owners[i]];\n            }\n        }\n\n        return balances_;\n    }\n\n    /**\n     * @dev Destroys `amount` tokens of token type `id` from `account`\n     *\n     * Requirements:\n     *\n     * - `account` cannot be the zero address.\n     * - `account` must have at least `amount` tokens of token type `id`.\n     */\n    function _burn(address account, uint256 id, uint256 amount) internal {\n        require(account != address(0), \"ERC1155: burn from the zero address\");\n\n        address operator = msg.sender;\n\n        if (isNonFungibleItem(id)) {\n            require(account == nfOwners[id], \"Account is not the owner of the NFT\");\n            delete nfOwners[id];\n        } else {\n            balances[id][account] = balances[id][account].sub(amount, \"ERC1155: burn amount exceeds balance\");\n        }\n\n        emit TransferSingle(operator, account, address(0), id, amount);\n    }\n\n    /**\n     * @dev xref:ROOT:erc1155.adoc#batch-operations[Batched] version of {_burn}.\n     *\n     * Requirements:\n     *\n     * - `ids` and `amounts` must have the same length.\n     */\n    function _burnBatch(address account, uint256[] memory ids, uint256[] memory amounts) internal {\n        require(account != address(0), \"ERC1155: burn from the zero address\");\n        require(ids.length == amounts.length, \"ERC1155: ids and amounts length mismatch\");\n\n        address operator = msg.sender;\n\n        for (uint i = 0; i < ids.length; i++) {\n            uint256 id = ids[i];\n            if (isNonFungibleItem(id)) {\n                require(account == nfOwners[id], \"Account is not the owner of the NFT\");\n                delete nfOwners[id];\n            } else {\n                balances[id][account] = balances[id][account].sub(amounts[i], \"ERC1155: burn amount exceeds balance\");\n            }\n        }\n\n        emit TransferBatch(operator, account, address(0), ids, amounts);\n    }\n\n\n}\n",
  "sourcePath": "/mnt/c/Kiko/MyProjects/Blockchain/Decentraland/decentracraft-contracts/contracts/ERC1155MixedFungible.sol",
  "compiler": {
    "name": "solc",
    "version": "0.5.15+commit.6a57276f.Emscripten.clang"
  },
  "schemaVersion": "3.3.2",
  "updatedAt": "2021-01-22T13:22:51.955Z",
  "devdoc": {
    "details": "Extension to ERC1155 for Mixed Fungible and Non-Fungible Items support The main benefit is sharing of common type information, just like you do when creating a fungible id.",
    "methods": {
      "isApprovedForAll(address,address)": {
        "params": {
          "_operator": "Address of authorized operator",
          "_owner": "The owner of the Tokens"
        },
        "return": "True if the operator is approved, false if not"
      },
      "setApprovalForAll(address,bool)": {
        "details": "MUST emit the ApprovalForAll event on success.",
        "params": {
          "_approved": "True if the operator is approved, false to revoke approval",
          "_operator": "Address to add to the set of authorized operators"
        }
      }
    }
  },
  "userdoc": {
    "methods": {
      "isApprovedForAll(address,address)": {
        "notice": "Queries the approval status of an operator for a given owner."
      },
      "setApprovalForAll(address,bool)": {
        "notice": "Enable or disable approval for a third party (\"operator\") to manage all of the caller's tokens."
      }
    }
  }
}