{
  "contractName": "ProvableRNG",
  "abi": [
    {
      "inputs": [],
      "payable": true,
      "stateMutability": "payable",
      "type": "constructor"
    },
    {
      "anonymous": false,
      "inputs": [
        {
          "indexed": false,
          "internalType": "string",
          "name": "description",
          "type": "string"
        }
      ],
      "name": "LogNewProvableQuery",
      "type": "event"
    },
    {
      "anonymous": false,
      "inputs": [
        {
          "indexed": false,
          "internalType": "uint256",
          "name": "randomNumber",
          "type": "uint256"
        }
      ],
      "name": "generatedRandomNumber",
      "type": "event"
    },
    {
      "payable": true,
      "stateMutability": "payable",
      "type": "fallback"
    },
    {
      "constant": true,
      "inputs": [],
      "name": "owner",
      "outputs": [
        {
          "internalType": "address",
          "name": "",
          "type": "address"
        }
      ],
      "payable": false,
      "stateMutability": "view",
      "type": "function"
    },
    {
      "constant": false,
      "inputs": [
        {
          "internalType": "address",
          "name": "_owner",
          "type": "address"
        }
      ],
      "name": "setOwner",
      "outputs": [],
      "payable": false,
      "stateMutability": "nonpayable",
      "type": "function"
    },
    {
      "constant": false,
      "inputs": [
        {
          "internalType": "uint256",
          "name": "_gas",
          "type": "uint256"
        }
      ],
      "name": "setGasForCall",
      "outputs": [],
      "payable": false,
      "stateMutability": "nonpayable",
      "type": "function"
    },
    {
      "constant": false,
      "inputs": [],
      "name": "generateRandom",
      "outputs": [
        {
          "internalType": "bytes32",
          "name": "",
          "type": "bytes32"
        }
      ],
      "payable": true,
      "stateMutability": "payable",
      "type": "function"
    },
    {
      "constant": false,
      "inputs": [
        {
          "internalType": "bytes32",
          "name": "_myid",
          "type": "bytes32"
        },
        {
          "internalType": "string",
          "name": "_result",
          "type": "string"
        }
      ],
      "name": "__callback",
      "outputs": [],
      "payable": false,
      "stateMutability": "nonpayable",
      "type": "function"
    },
    {
      "constant": false,
      "inputs": [
        {
          "internalType": "bytes32",
          "name": "_queryId",
          "type": "bytes32"
        },
        {
          "internalType": "string",
          "name": "_result",
          "type": "string"
        },
        {
          "internalType": "bytes",
          "name": "_proof",
          "type": "bytes"
        }
      ],
      "name": "__callback",
      "outputs": [],
      "payable": false,
      "stateMutability": "nonpayable",
      "type": "function"
    }
  ],
  "bytecode": "0x60806040526216e360600655600080546001600160a01b0319163317905562000035600360fc1b6001600160e01b036200003b16565b62000717565b6002546001600160a01b031615806200007157506002546200006f906001600160a01b03166001600160e01b036200024d16565b155b156200008e576200008c60006001600160e01b036200025116565b505b600260009054906101000a90046001600160a01b03166001600160a01b03166338cc48316040518163ffffffff1660e01b8152600401602060405180830381600087803b158015620000df57600080fd5b505af1158015620000f4573d6000803e3d6000fd5b505050506040513d60208110156200010b57600080fd5b50516001546001600160a01b03908116911614620001c257600260009054906101000a90046001600160a01b03166001600160a01b03166338cc48316040518163ffffffff1660e01b8152600401602060405180830381600087803b1580156200017457600080fd5b505af115801562000189573d6000803e3d6000fd5b505050506040513d6020811015620001a057600080fd5b5051600180546001600160a01b0319166001600160a01b039092169190911790555b6001546040805163688dcfd760e01b81527fff000000000000000000000000000000000000000000000000000000000000008416600482015290516001600160a01b039092169163688dcfd79160248082019260009290919082900301818387803b1580156200023157600080fd5b505af115801562000246573d6000803e3d6000fd5b5050505050565b3b90565b6000620002666001600160e01b036200026c16565b92915050565b60008062000297731d3b2638a7cc9f2cb3d298a3da7a90b67e5506ed6001600160e01b036200024d16565b11156200030357600280546001600160a01b031916731d3b2638a7cc9f2cb3d298a3da7a90b67e5506ed17905560408051808201909152600b81526a195d1a17db585a5b9b995d60aa1b6020820152620002fa906001600160e01b036200065c16565b50600162000659565b60006200032d73c03a2615d5efaf5f49f60b7bb6583eaec212fdf16001600160e01b036200024d16565b11156200039157600280546001600160a01b03191673c03a2615d5efaf5f49f60b7bb6583eaec212fdf117905560408051808201909152600c81526b6574685f726f707374656e3360a01b6020820152620002fa906001600160e01b036200065c16565b6000620003bb73b7a07bcf2ba2f2703b24c0691b5278999c59ac7e6001600160e01b036200024d16565b11156200041c57600280546001600160a01b03191673b7a07bcf2ba2f2703b24c0691b5278999c59ac7e17905560408051808201909152600981526832ba342fb5b7bb30b760b91b6020820152620002fa906001600160e01b036200065c16565b60006200044673146500cfd35b22e4a392fe0adc06de1a1368ed486001600160e01b036200024d16565b1115620004a957600280546001600160a01b03191673146500cfd35b22e4a392fe0adc06de1a1368ed4817905560408051808201909152600b81526a6574685f72696e6b65627960a81b6020820152620002fa906001600160e01b036200065c16565b6000620004d373a2998efd205fb9d4b4963afb70778d6354ad3a416001600160e01b036200024d16565b11156200053557600280546001600160a01b03191673a2998efd205fb9d4b4963afb70778d6354ad3a4117905560408051808201909152600a8152696574685f676f65726c6960b01b6020820152620002fa906001600160e01b036200065c16565b60006200055f736f485c8bf6fc43ea212e93bbf8ce046c7f1cb4756001600160e01b036200024d16565b1115620005955750600280546001600160a01b031916736f485c8bf6fc43ea212e93bbf8ce046c7f1cb475179055600162000659565b6000620005bf7320e12a1f859b3feae5fb2a0a32c18f5a65555bbf6001600160e01b036200024d16565b1115620005f55750600280546001600160a01b0319167320e12a1f859b3feae5fb2a0a32c18f5a65555bbf179055600162000659565b60006200061f7351efaf4c8b3c9afbd5ab9f4bbc82784ab6ef8faa6001600160e01b036200024d16565b1115620006555750600280546001600160a01b0319167351efaf4c8b3c9afbd5ab9f4bbc82784ab6ef8faa179055600162000659565b5060005b90565b80516200067190600390602084019062000675565b5050565b828054600181600116156101000203166002900490600052602060002090601f016020900481019282601f10620006b857805160ff1916838001178555620006e8565b82800160010185558215620006e8579182015b82811115620006e8578251825591602001919060010190620006cb565b50620006f6929150620006fa565b5090565b6200065991905b80821115620006f6576000815560010162000701565b6128cb80620007276000396000f3fe6080604052600436106100555760003560e01c806302e4af011461005757806313af40351461007157806327dc297e146100a457806338bbfa501461015d5780635ab885801461029c5780638da5cb5b146102c6575b005b61005f6102f7565b60405190815260200160405180910390f35b34801561007d57600080fd5b506100556004803603602081101561009457600080fd5b50356001600160a01b03166103a3565b3480156100b057600080fd5b50610055600480360360408110156100c757600080fd5b813591908101906040810160208201356401000000008111156100e957600080fd5b8201836020820111156100fb57600080fd5b8035906020019184600183028401116401000000008311171561011d57600080fd5b91908080601f01602080910402602001604051908101604052818152929190602084018383808284376000920191909152509295506103d5945050505050565b34801561016957600080fd5b506100556004803603606081101561018057600080fd5b813591908101906040810160208201356401000000008111156101a257600080fd5b8201836020820111156101b457600080fd5b803590602001918460018302840111640100000000831117156101d657600080fd5b91908080601f0160208091040260200160405190810160405281815292919060208401838380828437600092019190915250929594936020810193503591505064010000000081111561022857600080fd5b82018360208201111561023a57600080fd5b8035906020019184600183028401116401000000008311171561025c57600080fd5b91908080601f0160208091040260200160405190810160405281815292919060208401838380828437600092019190915250929550610410945050505050565b3480156102a857600080fd5b50610055600480360360208110156102bf57600080fd5b503561058e565b3480156102d257600080fd5b506102db6105a6565b6040516001600160a01b03909116815260200160405180910390f35b600080546001600160a01b03163314156103a057600080905060006103208260076006546105b5565b6000818152600760205290915033906040902080546001600160a01b0319166001600160a01b03929092169190911790557fc4dc360d0a9c0677a3379ae0a3d81e887f761e65fdf3d7e00859d1bcd3c4738960405180806020018281038252603d81526020018061285a603d913960400191505060405180910390a19150505b90565b6000546001600160a01b03163314156103d257600080546001600160a01b0319166001600160a01b0383161790555b50565b61040c82826000604051818152601f19601f8301168101602001604052908015610406576020820181803883390190505b50610410565b5050565b6104186109e6565b6001600160a01b0316336001600160a01b03161461043557600080fd5b610440838383610baf565b60ff16610589576000612710836040516020018082805190602001908083835b6020831061047f5780518252601f199092019160209182019101610460565b6001836020036101000a038019825116818451161790925250505091909101925060409150505160208183030381529060405280519060200120816104c057fe5b0690507fc13d60fe9dffdb6908d2d446cd18134373a51db0738ee04f296eeb9128121cbc8160405190815260200160405180910390a16000848152600760205260409020546001600160a01b031663aae9d7ed85836040516001600160e01b031960e085901b16815260048101929092526024820152604401600060405180830381600087803b15801561055357600080fd5b505af1158015610567573d6000803e3d6000fd5b50505060008581526007602052604091502080546001600160a01b0319169055505b505050565b6000546001600160a01b03163314156103d257600655565b6000546001600160a01b031681565b600080831180156105c7575060208311155b6105d057600080fd5b600a8402935060606001604051818152601f19601f8301168101602001604052908015610604576020820181803883390190505b5090508360f81b8160008151811061061857fe5b60200101906001600160f81b031916908160001a90535060606020604051818152601f19601f830116810160200160405290801561065d576020820181803883390190505b50905060606020604051818152601f19601f830116810160200160405290801561068e576020820181803883390190505b509050600061069b610c5c565b90506020835242411860014303401860208401526020825280602083015260606020604051818152601f19601f83011681016020016040529080156106e7576020820181803883390190505b50905088602082015260606008604051818152601f19601f830116810160200160405290801561071e576020820181803883390190505b5090506107318260186008846000610ded565b5061073a612743565b6040518060800160405280878152602001888152602001868152602001848152509050600061078660405160408082019052600681526572616e646f6d60d01b6020820152838c610e37565b905060606008604051818152601f19601f83011681016020016040529080156107b6576020820181803883390190505b5090506020840151600160f81b81046027830153600160f01b81046026830153600160e81b81046025830153600160e01b81046024830153600160d81b81046023830153600160d01b81046022830153600160c81b81046021830153600160c01b81046020830153506109d482826020860151600287516040518082805190602001908083835b6020831061085c5780518252601f19909201916020918201910161083d565b6001836020036101000a038019825116818451168082178552505050505050905001915050602060405180830381855afa15801561089e573d6000803e3d6000fd5b5050506040513d60208110156108b357600080fd5b8101908080519250505060408801516040516020018085805190602001908083835b602083106108f45780518252601f1990920191602091820191016108d5565b6001836020036101000a038019825116818451161790925250505091909101905084805190602001908083835b602083106109405780518252601f199092019160209182019101610921565b6001836020036101000a038019825116818451161790925250505091909101848152602001905082805190602001908083835b602083106109925780518252601f199092019160209182019101610973565b6001836020036101000a03801982511681845116179092525050509190910195506040945050505050516020818303038152906040528051906020012061104f565b509750505050505050505b9392505050565b6002546000906001600160a01b03161580610a135750600254610a11906001600160a01b0316611064565b155b15610a2457610a226000611068565b505b6002546001600160a01b03166338cc48316040518163ffffffff1660e01b8152600401602060405180830381600087803b158015610a6157600080fd5b505af1158015610a75573d6000803e3d6000fd5b505050506040513d6020811015610a8b57600080fd5b8101908080516001546001600160a01b039081169116149250610b3c915050576002546001600160a01b03166338cc48316040518163ffffffff1660e01b8152600401602060405180830381600087803b158015610ae857600080fd5b505af1158015610afc573d6000803e3d6000fd5b505050506040513d6020811015610b1257600080fd5b810190808051600180546001600160a01b0319166001600160a01b03929092169190911790555050505b6001546001600160a01b031663c281d19e6040518163ffffffff1660e01b815260040160206040518083038186803b158015610b7757600080fd5b505afa158015610b8b573d6000803e3d6000fd5b505050506040513d6020811015610ba157600080fd5b810190808051935050505090565b600081600081518110610bbe57fe5b60200101516001600160f81b031916601360fa1b141580610bfe575081600181518110610be757fe5b60200101516001600160f81b031916600560fc1b14155b80610c1e5750600182600281518110610c1357fe5b602001015160f81c14155b15610c2b575060016109df565b6000610c40838686610c3b611078565b61111a565b905080610c515760029150506109df565b506000949350505050565b6002546000906001600160a01b03161580610c895750600254610c87906001600160a01b0316611064565b155b15610c9a57610c986000611068565b505b6002546001600160a01b03166338cc48316040518163ffffffff1660e01b8152600401602060405180830381600087803b158015610cd757600080fd5b505af1158015610ceb573d6000803e3d6000fd5b505050506040513d6020811015610d0157600080fd5b8101908080516001546001600160a01b039081169116149250610db2915050576002546001600160a01b03166338cc48316040518163ffffffff1660e01b8152600401602060405180830381600087803b158015610d5e57600080fd5b505af1158015610d72573d6000803e3d6000fd5b505050506040513d6020811015610d8857600080fd5b810190808051600180546001600160a01b0319166001600160a01b03929092169190911790555050505b6001546001600160a01b031663abaa5f3e6040518163ffffffff1660e01b815260040160206040518083038186803b158015610b7757600080fd5b60608382018084511015610e0057600080fd5b60208087019084015b868860200101821015610e2a57818901518682015260209182019101610e09565b5093979650505050505050565b6002546000906001600160a01b03161580610e645750600254610e62906001600160a01b0316611064565b155b15610e7557610e736000611068565b505b6002546001600160a01b03166338cc48316040518163ffffffff1660e01b8152600401602060405180830381600087803b158015610eb257600080fd5b505af1158015610ec6573d6000803e3d6000fd5b505050506040513d6020811015610edc57600080fd5b8101908080516001546001600160a01b039081169116149250610f8d915050576002546001600160a01b03166338cc48316040518163ffffffff1660e01b8152600401602060405180830381600087803b158015610f3957600080fd5b505af1158015610f4d573d6000803e3d6000fd5b505050506040513d6020811015610f6357600080fd5b810190808051600180546001600160a01b0319166001600160a01b03929092169190911790555050505b60606004604051908082528060200260200182016040528015610fc457816020015b6060815260200190600190039081610faf5790505b509050835181600081518110610fd657fe5b6020908102919091010152836001602002015181600181518110610ff657fe5b602090810291909101015260408401518160028151811061101357fe5b602090810291909101015260608401518160038151811061103057fe5b602002602001018190525061104685828561170e565b95945050505050565b60008281526004602052819060409020555050565b3b90565b6000611072611add565b92915050565b606060038054600181600116156101000203166002900480601f0160208091040260200160405190810160405280929190818152602001828054600181600116156101000203166002900480156111105780601f106110e557610100808354040283529160200191611110565b820191906000526020600020905b8154815290600101906020018083116110f357829003601f168201915b5050505050905090565b6000808560458151811061112a57fe5b602001015160f81c606601905060606020604051818152601f19601f8301168101602001604052908015611165576020820181803883390190505b50905061117787836020846000610ded565b50600284876040516020018083805190602001908083835b602083106111ae5780518252601f19909201916020918201910161118f565b6001836020036101000a038019825116818451161790925250505091909101928352505060200190506040516020818303038152906040526040518082805190602001908083835b602083106112155780518252601f1990920191602091820191016111f6565b6001836020036101000a038019825116818451168082178552505050505050905001915050602060405180830381855afa158015611257573d6000803e3d6000fd5b5050506040513d602081101561126c57600080fd5b810190808051925060409150505160200180828152602001915050604051602081830303815290604052805190602001208180519060200120146112b557600092505050611706565b606087604a8401815181106112c657fe5b602001015160f81c600201604051818152601f19601f83011681016020016040529080156112fb576020820181803883390190505b50905061131088846049018351846000610ded565b506113c66002826040518082805190602001908083835b602083106113465780518252601f199092019160209182019101611327565b6001836020036101000a038019825116818451168082178552505050505050905001915050602060405180830381855afa158015611388573d6000803e3d6000fd5b5050506040513d602081101561139d57600080fd5b81019080805192508991508b905060288701815181106113b957fe5b602001015160f81c611e2c565b6113d65760009350505050611706565b60606029604051818152601f19601f8301168101602001604052908015611404576020820181803883390190505b50905061141989856020016029846000610ded565b50606060408051818152601f19601f8301168101602001604052908015611447576020820181803883390190505b509050600083518660200160290101604101905061146d8b604083036040856000610ded565b5060006002836040518082805190602001908083835b602083106114a25780518252601f199092019160209182019101611483565b6001836020036101000a038019825116818451168082178552505050505050905001915050602060405180830381855afa1580156114e4573d6000803e3d6000fd5b5050506040513d60208110156114f957600080fd5b810190808051935086925083915060409050516020018083805190602001908083835b6020831061153b5780518252601f19909201916020918201910161151c565b6001836020036101000a038019825116818451161790925250505091909101928352505060200190506040516020818303038152906040528051906020012060008c81526004602052604090205414156115a65760008b8152600460205260409020600090556115b6565b6000975050505050505050611706565b60606049604051818152601f19601f83011681016020016040529080156115e4576020820181803883390190505b5090506115f68d896049846000610ded565b506116966002826040518082805190602001908083835b6020831061162c5780518252601f19909201916020918201910161160d565b6001836020036101000a038019825116818451168082178552505050505050905001915050602060405180830381855afa15801561166e573d6000803e3d6000fd5b5050506040513d602081101561168357600080fd5b8101908080519250899150879050611e98565b6116ab57600098505050505050505050611706565b60008281526005602052604090205460ff166116e9576116cb8d84611ffb565b6000838152600560205260409020805460ff19169115159190911790555b60008281526005602052604090205460ff16985050505050505050505b949350505050565b6002546000906001600160a01b0316158061173b5750600254611739906001600160a01b0316611064565b155b1561174c5761174a6000611068565b505b6002546001600160a01b03166338cc48316040518163ffffffff1660e01b8152600401602060405180830381600087803b15801561178957600080fd5b505af115801561179d573d6000803e3d6000fd5b505050506040513d60208110156117b357600080fd5b8101908080516001546001600160a01b039081169116149250611864915050576002546001600160a01b03166338cc48316040518163ffffffff1660e01b8152600401602060405180830381600087803b15801561181057600080fd5b505af1158015611824573d6000803e3d6000fd5b505050506040513d602081101561183a57600080fd5b810190808051600180546001600160a01b0319166001600160a01b03929092169190911790555050505b6001546000906001600160a01b0316632ef3accc86856040518363ffffffff1660e01b81526004018080602001838152602001828103825284818151815260200191508051906020019080838360005b838110156118cc5780820151838201526020016118b4565b50505050905090810190601f1680156118f95780820380516001836020036101000a031916815260200191505b509350505050602060405180830381600087803b15801561191957600080fd5b505af115801561192d573d6000803e3d6000fd5b505050506040513d602081101561194357600080fd5b8101908080519350505050670de0b6b3a76400003a84020181111561196c5750600090506109df565b606061197785612392565b6001549091506001600160a01b031663c55c1cb68360008985896040518663ffffffff1660e01b8152600401808581526020018060200180602001848152602001838103835286818151815260200191508051906020019080838360005b838110156119ed5780820151838201526020016119d5565b50505050905090810190601f168015611a1a5780820380516001836020036101000a031916815260200191505b50838103825285818151815260200191508051906020019080838360005b83811015611a50578082015183820152602001611a38565b50505050905090810190601f168015611a7d5780820380516001836020036101000a031916815260200191505b5096505050505050506020604051808303818588803b158015611a9f57600080fd5b505af1158015611ab3573d6000803e3d6000fd5b50505050506040513d6020811015611aca57600080fd5b8101908080519998505050505050505050565b600080611afd731d3b2638a7cc9f2cb3d298a3da7a90b67e5506ed611064565b1115611b5b57600280546001600160a01b031916731d3b2638a7cc9f2cb3d298a3da7a90b67e5506ed179055611b5360405160408082019052600b81526a195d1a17db585a5b9b995d60aa1b6020820152612404565b5060016103a0565b6000611b7a73c03a2615d5efaf5f49f60b7bb6583eaec212fdf1611064565b1115611bd157600280546001600160a01b03191673c03a2615d5efaf5f49f60b7bb6583eaec212fdf1179055611b5360405160408082019052600c81526b6574685f726f707374656e3360a01b6020820152612404565b6000611bf073b7a07bcf2ba2f2703b24c0691b5278999c59ac7e611064565b1115611c4457600280546001600160a01b03191673b7a07bcf2ba2f2703b24c0691b5278999c59ac7e179055611b5360405160408082019052600981526832ba342fb5b7bb30b760b91b6020820152612404565b6000611c6373146500cfd35b22e4a392fe0adc06de1a1368ed48611064565b1115611cb957600280546001600160a01b03191673146500cfd35b22e4a392fe0adc06de1a1368ed48179055611b5360405160408082019052600b81526a6574685f72696e6b65627960a81b6020820152612404565b6000611cd873a2998efd205fb9d4b4963afb70778d6354ad3a41611064565b1115611d2d57600280546001600160a01b03191673a2998efd205fb9d4b4963afb70778d6354ad3a41179055611b5360405160408082019052600a8152696574685f676f65726c6960b01b6020820152612404565b6000611d4c736f485c8bf6fc43ea212e93bbf8ce046c7f1cb475611064565b1115611d805750600280546001600160a01b031916736f485c8bf6fc43ea212e93bbf8ce046c7f1cb47517905560016103a0565b6000611d9f7320e12a1f859b3feae5fb2a0a32c18f5a65555bbf611064565b1115611dd35750600280546001600160a01b0319167320e12a1f859b3feae5fb2a0a32c18f5a65555bbf17905560016103a0565b6000611df27351efaf4c8b3c9afbd5ab9f4bbc82784ab6ef8faa611064565b1115611e265750600280546001600160a01b0319167351efaf4c8b3c9afbd5ab9f4bbc82784ab6ef8faa17905560016103a0565b50600090565b6000600182845114611e3d57600080fd5b60005b83811015611e8f57848181518110611e5457fe5b60200101516001600160f81b031916868260208110611e6f57fe5b1a60f81b6001600160f81b03191614611e8757600091505b600101611e40565b50949350505050565b600080600080600060606020604051818152601f19601f8301168101602001604052908015611ece576020820181803883390190505b5090506000602089600381518110611ee257fe5b602001015160f81c60f81b60f81c60ff16036004019050611f0889826020856000610ded565b915060606020604051818152601f19601f8301168101602001604052908015611f38576020820181803883390190505b509050602282019150611f6b8a60208c6001860381518110611f5657fe5b602001015160f81c0384016020846000610ded565b90506020830151945060208101519350611f888b601b8787612417565b90975095506001600160a01b03861689805190602001206001600160a01b03161415611fbe5760019750505050505050506109df565b611fcb8b601c8787612417565b90975095506001600160a01b03861689805190602001206001600160a01b03161497506109df9650505050505050565b600080606084846001018151811061200f57fe5b602001015160f81c600201604051818152601f19601f8301168101602001604052908015612044576020820181803883390190505b50905061205685858351846000610ded565b50606060408051818152601f19601f8301168101602001604052908015612084576020820181803883390190505b5090506120978660046040846000610ded565b5060606062604051818152601f19601f83011681016020016040529080156120c6576020820181803883390190505b509050600160f81b816000815181106120db57fe5b60200101906001600160f81b031916908160001a90535061210487604188036041846001610ded565b5060606040518060400160405280602081526020017ffd94fa71bc0ba10d39d464d0d8f465efeef0a2764e3887fcc9df41ded20f505c815250905061214f8160006020856042610ded565b506121ef6002836040518082805190602001908083835b602083106121855780518252601f199092019160209182019101612166565b6001836020036101000a038019825116818451168082178552505050505050905001915050602060405180830381855afa1580156121c7573d6000803e3d6000fd5b5050506040513d60208110156121dc57600080fd5b8101908080519250879150869050611e98565b94508461220457600095505050505050611072565b606060405180606001604052806040815260200161281a60409139905060606042604051818152601f19601f830116810160200160405290801561224f576020820181803883390190505b509050607f60f91b8160008151811061226457fe5b60200101906001600160f81b031916908160001a90535061228b8a60036041846001610ded565b5060608a60458151811061229b57fe5b602001015160f81c600201604051818152601f19601f83011681016020016040529080156122d0576020820181803883390190505b5090506122e38b60448351846000610ded565b506123836002836040518082805190602001908083835b602083106123195780518252601f1990920191602091820191016122fa565b6001836020036101000a038019825116818451168082178552505050505050905001915050602060405180830381855afa15801561235b573d6000803e3d6000fd5b5050506040513d602081101561237057600080fd5b8101908080519250849150869050611e98565b9b9a5050505050505050505050565b606061239c612457565b6123a4612769565b6123b081610400612463565b6123b981612491565b60005b83518110156123f1576123e98482815181106123d457fe5b6020026020010151839063ffffffff61249c16565b6001016123bc565b506123fb816124b9565b80519392505050565b600381805161040c929160200190612781565b60008060008060405188815287602082015286604082015285606082015260208160808360006001610bb8f1925080519299929850919650505050505050565b60405180590338823950565b8060208106156124765760208106602003015b60208301819052604051928390526000835290910160405250565b6103d28160046124c0565b6124a982600283516124db565b610589828263ffffffff6125ec16565b6103d28160075b61040c82601f611fe0600585901b161763ffffffff61268516565b60178111612501576124fc8360e0600585901b16831763ffffffff61268516565b610589565b60ff811161253c57612524836018611fe0600586901b161763ffffffff61268516565b6125368382600163ffffffff6126be16565b50610589565b61ffff811161257257612560836019611fe0600586901b161763ffffffff61268516565b6125368382600263ffffffff6126be16565b63ffffffff81116125aa5761259883601a611fe0600586901b161763ffffffff61268516565b6125368382600463ffffffff6126be16565b67ffffffffffffffff8111610589576125d483601b611fe0600586901b161763ffffffff61268516565b6125e68382600863ffffffff6126be16565b50505050565b6125f4612769565b82602001518351518351011115612620576126208361261885602001518551612712565b600202612729565b60008060008451905085518051602081830101945086510190526020850191505b6020811061266157815183526020928301929190910190601f1901612641565b60001960208290036101000a01801983511681855116179093525093949350505050565b816020015182515160010111156126a7576126a7828360200151600202612729565b815180516020818301018381535060010190525050565b6126c6612769565b8360200151845151830111156126e8576126e884612618866020015185612712565b60001961010083900a01845180518481830101868419825116179052909301909252509192915050565b600081831115612723575081611072565b50919050565b6060825190506127398383612463565b6125e683826125ec565b604051608081016040526004815b60608152602001906001900390816127515790505090565b60405160408082019052606081526000602082015290565b828054600181600116156101000203166002900490600052602060002090601f016020900481019282601f106127c257805160ff19168380011785556127ef565b828001600101855582156127ef579182015b828111156127ef5782518255916020019190600101906127d4565b506127fb9291506127ff565b5090565b6103a091905b808211156127fb576000815560010161280556fe7fb956469c5c9b89840d55b43537e66a98dd4811ea0a27224272c2e5622911e8537a2f8e86a46baec82864e98dd01e9ccc2f8bc5dfc9cbe5a91a290498dd96e450726f7661626c65207175657279207761732073656e742c207374616e64696e6720627920666f72207468652072616e646f6d206e756d6265722e2e2ea265627a7a72315820a920132428d142be3ab43feb87aa68938724aed5a0073d83e8bd144ec5b49bf464736f6c634300050f0032",
  "source": "pragma solidity ^0.5.11;\n\nimport \"../../../decentracraft-contracts/contracts/Utils/IRNGReceiver.sol\";\nimport \"../../../decentracraft-contracts/contracts/Utils/IRandomGenerator.sol\";\nimport \"../../../decentracraft-contracts/contracts/Utils/provableAPI.sol\";\nimport \"../../../decentracraft-contracts/contracts/Utils/Ownable.sol\";\n\n/**\n    @dev RNG\n*/\ncontract ProvableRNG is Ownable, IRandomGenerator, usingProvable {\n\n    // uint256 constant MAX_INT_FROM_BYTE = 99999;//256;\n    uint256 constant MAX_NUMBER = 10000;\n    uint256 constant NUM_RANDOM_BYTES_REQUESTED = 7;\n\n    uint256 GAS_FOR_CALLBACK = 1500000;   \n\n    function setGasForCall(uint256 _gas) external ownerOnly {\n        GAS_FOR_CALLBACK = _gas;\n    }\n\n    event LogNewProvableQuery(string description);\n    event generatedRandomNumber(uint256 randomNumber);\n\n    mapping (bytes32 => IRNGReceiver) callingMap;\n\n    function () external payable {\n    }\n\n    constructor () public payable  { \n        provable_setProof(proofType_Ledger);\n    }\n\n    function generateRandom() external payable ownerOnly returns (bytes32){\n\n        uint256 QUERY_EXECUTION_DELAY = 0;         \n        bytes32 queryId = provable_newRandomDSQuery(QUERY_EXECUTION_DELAY, NUM_RANDOM_BYTES_REQUESTED, GAS_FOR_CALLBACK);\n        callingMap[queryId] = IRNGReceiver(msg.sender);\n        emit LogNewProvableQuery(\"Provable query was sent, standing by for the random number...\");\n        return queryId;\n    }\n\n    function __callback(bytes32 _queryId, string memory _result, bytes memory _proof) public {\n        require(msg.sender == provable_cbAddress());\n\n        if (provable_randomDS_proofVerify__returnCode(_queryId, _result, _proof) == 0) {\n            /**\n             *\n             * @notice  The proof verifiction has passed!\n             *\n             *          Let's convert the random bytes received from the query\n             *          to a `uint256`.\n             *\n             *          To do so, We define the variable `ceiling`, where\n             *          `ceiling - 1` is the highest `uint256` we want to get.\n             *          The variable `ceiling` should never be greater than:\n             *          `(MAX_INT_FROM_BYTE ^ NUM_RANDOM_BYTES_REQUESTED) - 1`.\n             *\n             *          By hashing the random bytes and casting them to a\n             *          `uint256` we can then modulo that number by our ceiling\n             *          in order to get a random number within the desired\n             *          range of [0, ceiling - 1].\n             *\n             */\n            // uint256 ceiling = (MAX_INT_FROM_BYTE ** NUM_RANDOM_BYTES_REQUESTED) - 1;\n            uint256 randomNumber = uint256(keccak256(abi.encodePacked(_result))) % MAX_NUMBER;\n            emit generatedRandomNumber(randomNumber);\n\n            callingMap[_queryId].__callback(_queryId, randomNumber);\n            delete callingMap[_queryId];\n        }\n    }\n}\n",
  "sourcePath": "/mnt/c/Kiko/MyProjects/Blockchain/Decentraland/etherpay/contracts/lib/ProvableRNG.sol",
  "compiler": {
    "name": "solc",
    "version": "0.5.15+commit.6a57276f.Emscripten.clang"
  },
  "schemaVersion": "3.3.2",
  "updatedAt": "2021-01-22T13:22:53.020Z",
  "devdoc": {
    "details": "RNG",
    "methods": {
      "__callback(bytes32,string)": {
        "details": "The following `__callback` functions are just placeholders ideally     meant to be defined in child contract when proofs are used.     The function bodies simply silence compiler warnings."
      }
    }
  },
  "userdoc": {
    "methods": {}
  }
}